{"v3-periphery/test/NFTDescriptorTest.sol":{"NFTDescriptorTest":{"abi":[{"inputs":[{"internalType":"address","name":"_address","type":"address"}],"name":"addressToString","outputs":[{"internalType":"string","name":"","type":"string"}],"stateMutability":"pure","type":"function"},{"inputs":[{"components":[{"internalType":"uint256","name":"tokenId","type":"uint256"},{"internalType":"address","name":"quoteTokenAddress","type":"address"},{"internalType":"address","name":"baseTokenAddress","type":"address"},{"internalType":"string","name":"quoteTokenSymbol","type":"string"},{"internalType":"string","name":"baseTokenSymbol","type":"string"},{"internalType":"uint8","name":"quoteTokenDecimals","type":"uint8"},{"internalType":"uint8","name":"baseTokenDecimals","type":"uint8"},{"internalType":"bool","name":"flipRatio","type":"bool"},{"internalType":"int24","name":"tickLower","type":"int24"},{"internalType":"int24","name":"tickUpper","type":"int24"},{"internalType":"int24","name":"tickCurrent","type":"int24"},{"internalType":"int24","name":"tickSpacing","type":"int24"},{"internalType":"uint24","name":"fee","type":"uint24"},{"internalType":"address","name":"poolAddress","type":"address"}],"internalType":"struct NFTDescriptor.ConstructTokenURIParams","name":"params","type":"tuple"}],"name":"constructTokenURI","outputs":[{"internalType":"string","name":"","type":"string"}],"stateMutability":"pure","type":"function"},{"inputs":[{"internalType":"uint24","name":"fee","type":"uint24"}],"name":"feeToPercentString","outputs":[{"internalType":"string","name":"","type":"string"}],"stateMutability":"pure","type":"function"},{"inputs":[{"internalType":"uint160","name":"sqrtRatioX96","type":"uint160"},{"internalType":"uint8","name":"token0Decimals","type":"uint8"},{"internalType":"uint8","name":"token1Decimals","type":"uint8"}],"name":"fixedPointToDecimalString","outputs":[{"internalType":"string","name":"","type":"string"}],"stateMutability":"pure","type":"function"},{"inputs":[{"components":[{"internalType":"uint256","name":"tokenId","type":"uint256"},{"internalType":"address","name":"quoteTokenAddress","type":"address"},{"internalType":"address","name":"baseTokenAddress","type":"address"},{"internalType":"string","name":"quoteTokenSymbol","type":"string"},{"internalType":"string","name":"baseTokenSymbol","type":"string"},{"internalType":"uint8","name":"quoteTokenDecimals","type":"uint8"},{"internalType":"uint8","name":"baseTokenDecimals","type":"uint8"},{"internalType":"bool","name":"flipRatio","type":"bool"},{"internalType":"int24","name":"tickLower","type":"int24"},{"internalType":"int24","name":"tickUpper","type":"int24"},{"internalType":"int24","name":"tickCurrent","type":"int24"},{"internalType":"int24","name":"tickSpacing","type":"int24"},{"internalType":"uint24","name":"fee","type":"uint24"},{"internalType":"address","name":"poolAddress","type":"address"}],"internalType":"struct NFTDescriptor.ConstructTokenURIParams","name":"params","type":"tuple"}],"name":"generateSVGImage","outputs":[{"internalType":"string","name":"","type":"string"}],"stateMutability":"pure","type":"function"},{"inputs":[{"components":[{"internalType":"uint256","name":"tokenId","type":"uint256"},{"internalType":"address","name":"quoteTokenAddress","type":"address"},{"internalType":"address","name":"baseTokenAddress","type":"address"},{"internalType":"string","name":"quoteTokenSymbol","type":"string"},{"internalType":"string","name":"baseTokenSymbol","type":"string"},{"internalType":"uint8","name":"quoteTokenDecimals","type":"uint8"},{"internalType":"uint8","name":"baseTokenDecimals","type":"uint8"},{"internalType":"bool","name":"flipRatio","type":"bool"},{"internalType":"int24","name":"tickLower","type":"int24"},{"internalType":"int24","name":"tickUpper","type":"int24"},{"internalType":"int24","name":"tickCurrent","type":"int24"},{"internalType":"int24","name":"tickSpacing","type":"int24"},{"internalType":"uint24","name":"fee","type":"uint24"},{"internalType":"address","name":"poolAddress","type":"address"}],"internalType":"struct NFTDescriptor.ConstructTokenURIParams","name":"params","type":"tuple"}],"name":"getGasCostOfConstructTokenURI","outputs":[{"internalType":"uint256","name":"","type":"uint256"}],"stateMutability":"view","type":"function"},{"inputs":[{"internalType":"uint256","name":"tokenId","type":"uint256"},{"internalType":"address","name":"poolAddress","type":"address"}],"name":"isRare","outputs":[{"internalType":"bool","name":"","type":"bool"}],"stateMutability":"pure","type":"function"},{"inputs":[{"internalType":"int24","name":"tickLower","type":"int24"},{"internalType":"int24","name":"tickUpper","type":"int24"}],"name":"rangeLocation","outputs":[{"internalType":"string","name":"","type":"string"},{"internalType":"string","name":"","type":"string"}],"stateMutability":"pure","type":"function"},{"inputs":[{"internalType":"address","name":"token","type":"address"},{"internalType":"uint256","name":"offset","type":"uint256"}],"name":"sliceTokenHex","outputs":[{"internalType":"uint256","name":"","type":"uint256"}],"stateMutability":"pure","type":"function"},{"inputs":[{"internalType":"int24","name":"tick","type":"int24"},{"internalType":"int24","name":"tickSpacing","type":"int24"},{"internalType":"uint8","name":"token0Decimals","type":"uint8"},{"internalType":"uint8","name":"token1Decimals","type":"uint8"},{"internalType":"bool","name":"flipRatio","type":"bool"}],"name":"tickToDecimalString","outputs":[{"internalType":"string","name":"","type":"string"}],"stateMutability":"pure","type":"function"},{"inputs":[{"internalType":"address","name":"token","type":"address"},{"internalType":"uint256","name":"offset","type":"uint256"}],"name":"tokenToColorHex","outputs":[{"internalType":"string","name":"","type":"string"}],"stateMutability":"pure","type":"function"}],"evm":{"bytecode":{"linkReferences":{"v3-periphery/libraries/NFTDescriptor.sol":{"NFTDescriptor":[{"length":20,"start":605},{"length":20,"start":862}]}},"object":"608060405234801561001057600080fd5b50615e3c806100206000396000f3fe608060405234801561001057600080fd5b50600436106100c95760003560e01c8063d5c0bdd811610081578063e73869061161005b578063e738690614610197578063ea4d3bcd146101b7578063f93a7911146101ca576100c9565b8063d5c0bdd81461015e578063d6986d4514610171578063e1649fcf14610184576100c9565b80635e57966d116100b25780635e57966d14610118578063854924ab1461012b5780639288c2181461014b576100c9565b80632fa2af10146100ce5780633a0cdee2146100f8575b600080fd5b6100e16100dc366004613ec7565b6101dd565b6040516100ef929190614296565b60405180910390f35b61010b610106366004613e9c565b6101f6565b6040516100ef9190614283565b61010b610126366004613e80565b610214565b61013e610139366004613fc7565b610227565b6040516100ef9190614454565b61010b610159366004613ef9565b6102c3565b61010b61016c36600461416b565b6102de565b61013e61017f366004613e9c565b6102f5565b61010b610192366004614000565b61030a565b6101aa6101a53660046141c9565b610315565b6040516100ef9190614278565b61010b6101c53660046141af565b610321565b61010b6101d8366004613fc7565b61032c565b6060806101ea84846103ba565b915091505b9250929050565b606061020b836001600160a01b0316836107eb565b90505b92915050565b606061021f826107fa565b90505b919050565b6000805a60405163c49917d760e01b815290915073__$3474f5fa183c8dd63dba6f3a9054ff9d64$__9063c49917d7906102659086906004016142bb565b60006040518083038186803b15801561027d57600080fd5b505af4158015610291573d6000803e3d6000fd5b505050506040513d6000823e601f3d908101601f191682016040526102b99190810190613f5d565b505a900392915050565b60606102d28686868686610810565b90505b95945050505050565b60606102eb84848461093a565b90505b9392505050565b600061020b836001600160a01b031683610b0e565b606061021f82610b15565b600061020b8383610d50565b606061021f82610db3565b60405163c49917d760e01b815260609073__$3474f5fa183c8dd63dba6f3a9054ff9d64$__9063c49917d7906103669085906004016142bb565b60006040518083038186803b15801561037e57600080fd5b505af4158015610392573d6000803e3d6000fd5b505050506040513d6000823e601f3d908101601f1916820160405261021f9190810190613f5d565b60608060006002858501810b0590506201e847198160020b121561043257604051806040016040528060018152602001600760fb1b8152506040518060400160405280600181526020017f370000000000000000000000000000000000000000000000000000000000000081525092509250506101ef565b620124f7198160020b121561049b57604051806040016040528060018152602001600760fb1b8152506040518060400160405280600481526020017f31302e350000000000000000000000000000000000000000000000000000000081525092509250506101ef565b6161a7198160020b121561050357604051806040016040528060018152602001600760fb1b8152506040518060400160405280600581526020017f31342e323500000000000000000000000000000000000000000000000000000081525092509250506101ef565b611387198160020b121561056c576040518060400160405280600281526020017f313000000000000000000000000000000000000000000000000000000000000081525060405180604001604052806002815260200161062760f31b81525092509250506101ef565b60008160020b12156105d3576040518060400160405280600281526020017f313100000000000000000000000000000000000000000000000000000000000081525060405180604001604052806002815260200161323160f01b81525092509250506101ef565b6113888160020b1215610656576040518060400160405280600281526020017f31330000000000000000000000000000000000000000000000000000000000008152506040518060400160405280600281526020017f323300000000000000000000000000000000000000000000000000000000000081525092509250506101ef565b6161a88160020b12156106d9576040518060400160405280600281526020017f31350000000000000000000000000000000000000000000000000000000000008152506040518060400160405280600281526020017f323500000000000000000000000000000000000000000000000000000000000081525092509250506101ef565b620124f88160020b12156107425760405180604001604052806002815260200161062760f31b8152506040518060400160405280600281526020017f323600000000000000000000000000000000000000000000000000000000000081525092509250506101ef565b6201e8488160020b12156107905760405180604001604052806002815260200161323160f01b81525060405180604001604052806002815260200161323760f01b81525092509250506101ef565b6040518060400160405280600281526020017f323400000000000000000000000000000000000000000000000000000000000081525060405180604001604052806002815260200161323760f01b81525092509250506101ef565b606061020b83831c600361100e565b606061021f6001600160a01b03831660146110d5565b606084600281900b620d89e7198161082457fe5b050260020b8660020b141561087e57811561085a576040518060400160405280600381526020016209a82b60eb1b815250610877565b6040518060400160405280600381526020016226a4a760e91b8152505b90506102d5565b84600281900b620d89e88161088f57fe5b050260020b8660020b14156108e55781156108c5576040518060400160405280600381526020016226a4a760e91b815250610877565b5060408051808201909152600381526209a82b60eb1b60208201526102d5565b60006108f08761125d565b905082156109275761092478010000000000000000000000000000000000000000000000006001600160a01b0383166115ab565b90505b61093281868661093a565b9150506102d5565b60606000610949858585611612565b90506000610961828368010000000000000000611714565b90506c01000000000000000000000000821080156109a25761099b8272047bf19673df52e37f2410011d100000000000600160801b611714565b91506109b7565b6109b482620186a0600160801b611714565b91505b8160005b81156109cf57600101600a820491506109bb565b600019016000806109e086846117c3565b9150915080156109f1576001909201915b6109f9613d9a565b8515610a6c57610a18610a10602b60ff871661182f565b60079061188c565b60ff908116602083015260026080830152610a4490600190610a3e90602b90881661182f565b9061188c565b60ff90811660a08301526020820151610a5f9116600161182f565b60ff166040820152610ae3565b60098460ff1610610ab557610a8560ff8516600461182f565b60ff166020820181905260056080830152610aa190600161182f565b60ff1660a082015260046040820152610ae3565b60066020820152600560408201819052610ada90600190610a3e9060ff88169061182f565b60ff1660608201525b82815285151560c0820152600060e0820152610afe816118e6565b9c9b505050505050505050505050565b1c60ff1690565b60606000604051806102a00160405280610b3285602001516107fa565b8152602001610b4485604001516107fa565b8152602001846101a001516001600160a01b031681526020018460600151815260200184608001518152602001610b7f856101800151610db3565b815260200184610100015160020b815260200184610120015160020b815260200184610160015160020b8152602001610bc8856101000151866101200151876101400151611b12565b60000b815260200184600001518152602001610bf285602001516001600160a01b031660886107eb565b8152602001610c0f85604001516001600160a01b031660886107eb565b8152602001610c2c85602001516001600160a01b031660006107eb565b8152602001610c4985604001516001600160a01b031660006107eb565b8152602001610c7c610c6e86602001516001600160a01b031660108860000151611b49565b600060ff6010610112611b69565b8152602001610caf610ca186604001516001600160a01b031660108860000151611b49565b600060ff60646101e4611b69565b8152602001610cd4610c6e86602001516001600160a01b031660208860000151611b49565b8152602001610cf9610ca186604001516001600160a01b031660208860000151611b49565b8152602001610d1e610c6e86602001516001600160a01b031660308860000151611b49565b8152602001610d43610ca186604001516001600160a01b031660308860000151611b49565b905290506102ee81611ba7565b6040805160208082018590526bffffffffffffffffffffffff19606085901b16828401528251603481840301815260549092019092528051910120600090610d9784611e36565b60020260010160ff1660001981610daa57fe5b04119392505050565b606062ffffff8216610df9575060408051808201909152600281527f30250000000000000000000000000000000000000000000000000000000000006020820152610222565b816000805b62ffffff831615610e495760ff811615610e1a57600101610e33565b600a62ffffff84160662ffffff16600014610e33576001015b600190910190600a62ffffff8416049250610dfe565b610e51613d9a565b600060058410610f405760006004610e6c8660ff871661182f565b1015610e79576001610e7c565b60005b60ff9081169150610e90908516600161182f565b610e9b86600561182f565b10610ec757610ec2610eb160ff8616600161182f565b610ebc87600561182f565b9061182f565b610eca565b60005b60ff851660808501819052909250610ee990600190610ebc908561188c565b60ff90811660a08501526080840151610f0a918391610a3e9116600161182f565b60ff9081166040850152610f32908290610a3e90610f2b908816600161188c565b859061188c565b60ff16602084015250610fb0565b610f4b60058561182f565b600260808401819052909150610f6990600190610ebc90849061188c565b60ff90811660a0840152610f8b90610f84908516600261188c565b829061188c565b60ff1660208301819052610fa090600261182f565b60ff166040830152600160c08301525b610fcf610fc08560ff861661182f565b62ffffff891690600a0a6115ab565b8252600160e083015260048411610fe7576000610ff2565b610ff284600461182f565b60ff166060830152611003826118e6565b979650505050505050565b606060008260020267ffffffffffffffff8111801561102c57600080fd5b506040519080825280601f01601f191660200182016040528015611057576020820181803683370190505b5080519091505b80156110cd577f303132333435363738396162636465660000000000000000000000000000000085600f166010811061109357fe5b1a60f81b8260018303815181106110a657fe5b60200101906001600160f81b031916908160001a90535060049490941c936000190161105e565b509392505050565b606060008260020260020167ffffffffffffffff811180156110f657600080fd5b506040519080825280601f01601f191660200182016040528015611121576020820181803683370190505b509050600360fc1b8160008151811061113657fe5b60200101906001600160f81b031916908160001a9053507f78000000000000000000000000000000000000000000000000000000000000008160018151811061117b57fe5b60200101906001600160f81b031916908160001a905350600160028402015b6001811115611209577f303132333435363738396162636465660000000000000000000000000000000085600f16601081106111d257fe5b1a60f81b8282815181106111e257fe5b60200101906001600160f81b031916908160001a90535060049490941c936000190161119a565b50831561020b576040805162461bcd60e51b815260206004820181905260248201527f537472696e67733a20686578206c656e67746820696e73756666696369656e74604482015290519081900360640190fd5b60008060008360020b12611274578260020b61127c565b8260020b6000035b9050620d89e88111156112d6576040805162461bcd60e51b815260206004820152600160248201527f5400000000000000000000000000000000000000000000000000000000000000604482015290519081900360640190fd5b6000600182166112ea57600160801b6112fc565b6ffffcb933bd6fad37aa2d162d1a5940015b70ffffffffffffffffffffffffffffffffff1690506002821615611330576ffff97272373d413259a46990580e213a0260801c5b600482161561134f576ffff2e50f5f656932ef12357cf3c7fdcc0260801c5b600882161561136e576fffe5caca7e10e4e61c3624eaa0941cd00260801c5b601082161561138d576fffcb9843d60f6159c9db58835c9266440260801c5b60208216156113ac576fff973b41fa98c081472e6896dfb254c00260801c5b60408216156113cb576fff2ea16466c96a3843ec78b326b528610260801c5b60808216156113ea576ffe5dee046a99a2a811c461f1969c30530260801c5b61010082161561140a576ffcbe86c7900a88aedcffc83b479aa3a40260801c5b61020082161561142a576ff987a7253ac413176f2b074cf7815e540260801c5b61040082161561144a576ff3392b0822b70005940c7a398e4b70f30260801c5b61080082161561146a576fe7159475a2c29b7443b29c7fa6e889d90260801c5b61100082161561148a576fd097f3bdfd2022b8845ad8f792aa58250260801c5b6120008216156114aa576fa9f746462d870fdf8a65dc1f90e061e50260801c5b6140008216156114ca576f70d869a156d2a1b890bb3df62baf32f70260801c5b6180008216156114ea576f31be135f97d08fd981231505542fcfa60260801c5b6201000082161561150b576f09aa508b5b7a84e1c677de54f3e99bc90260801c5b6202000082161561152b576e5d6af8dedb81196699c329225ee6040260801c5b6204000082161561154a576d2216e584f5fa1ea926041bedfe980260801c5b62080000821615611567576b048a170391f7dc42444e8fa20260801c5b60008460020b131561158257806000198161157e57fe5b0490505b640100000000810615611596576001611599565b60005b60ff16602082901c0192505050919050565b6000808211611601576040805162461bcd60e51b815260206004820152601a60248201527f536166654d6174683a206469766973696f6e206279207a65726f000000000000604482015290519081900360640190fd5b81838161160a57fe5b049392505050565b60008061162d61162860ff868116908616611ed6565b611f3b565b9050600081118015611640575060128111155b15611701578260ff168460ff1611156116aa576116746116618260026115ab565b6001600160a01b03871690600a0a611f52565b915060028106600114156116a5576116a2827003298b075b4b6a5240945790619b37fd4a600160801b611714565b91505b6116fc565b6116cb6116b88260026115ab565b6001600160a01b03871690600a0a6115ab565b915060028106600114156116fc576116f982600160801b7003298b075b4b6a5240945790619b37fd4a611714565b91505b6110cd565b50506001600160a01b0390921692915050565b600080806000198587098686029250828110908390030390508061174a576000841161173f57600080fd5b5082900490506102ee565b80841161175657600080fd5b6000848688096000868103871696879004966002600389028118808a02820302808a02820302808a02820302808a02820302808a02820302808a02909103029181900381900460010186841190950394909402919094039290920491909117919091029150509392505050565b600080600060058460ff1611156117eb576117e88560ff600419870116600a0a6115ab565b94505b60006004600a870611905061180186600a6115ab565b95508015611810578560010195505b85620186a0141561182657600a86049550600191505b50939492505050565b600082821115611886576040805162461bcd60e51b815260206004820152601e60248201527f536166654d6174683a207375627472616374696f6e206f766572666c6f770000604482015290519081900360640190fd5b50900390565b60008282018381101561020b576040805162461bcd60e51b815260206004820152601b60248201527f536166654d6174683a206164646974696f6e206f766572666c6f770000000000604482015290519081900360640190fd5b60606000826020015160ff1667ffffffffffffffff8111801561190857600080fd5b506040519080825280601f01601f191660200182016040528015611933576020820181803683370190505b5090508260e0015115611989577f25000000000000000000000000000000000000000000000000000000000000008160018351038151811061197157fe5b60200101906001600160f81b031916908160001a9053505b8260c00151156119e657600360fc1b816000815181106119a557fe5b60200101906001600160f81b031916908160001a905350601760f91b816001815181106119ce57fe5b60200101906001600160f81b031916908160001a9053505b608083015160ff165b60a0840151611a029060ff16600161188c565b811015611a3957603060f81b828281518110611a1a57fe5b60200101906001600160f81b031916908160001a9053506001016119ef565b505b82511561021f576000836060015160ff16118015611a665750826060015160ff16836040015160ff16145b15611aa95760408301805160ff600019820181169092528251601760f91b92849216908110611a9157fe5b60200101906001600160f81b031916908160001a9053505b8251611abb90603090600a900661188c565b60f81b818460400180518091906001900360ff1660ff1681525060ff1681518110611ae257fe5b60200101906001600160f81b031916908160001a905350600a8360000181815181611b0957fe5b04905250611a3b565b60008360020b8260020b1215611b2b57506000196102ee565b8260020b8260020b1315611b41575060016102ee565b5060006102ee565b600060ff82611b588686610b0e565b0281611b6057fe5b06949350505050565b60606102d2611ba284610a3e611b7f888a61182f565b611b9c611b8c888a61182f565b611b968d8d61182f565b90611f52565b906115ab565b611fab565b6060611bb282612086565b611bce836000015184602001518560600151866080015161273a565b611be5846060015185608001518660a00151612a65565b611c038560c001518660e00151876101000151886101200151612bd1565b611c23611c14876101400151611fab565b8760c001518860e00151612f24565b611c368761014001518860400151613355565b6040516020018087805190602001908083835b60208310611c685780518252601f199092019160209182019101611c49565b51815160209384036101000a600019018019909216911617905289519190930192890191508083835b60208310611cb05780518252601f199092019160209182019101611c91565b51815160209384036101000a600019018019909216911617905288519190930192880191508083835b60208310611cf85780518252601f199092019160209182019101611cd9565b51815160209384036101000a600019018019909216911617905287519190930192870191508083835b60208310611d405780518252601f199092019160209182019101611d21565b51815160209384036101000a600019018019909216911617905286519190930192860191508083835b60208310611d885780518252601f199092019160209182019101611d69565b51815160209384036101000a600019018019909216911617905285519190930192850191508083835b60208310611dd05780518252601f199092019160209182019101611db1565b5181516020939093036101000a60001901801990911692169190911790527f3c2f7376673e000000000000000000000000000000000000000000000000000092019182525060408051808303601919018152600690920190529998505050505050505050565b6000808211611e4457600080fd5b600160801b8210611e5757608091821c91015b680100000000000000008210611e6f57604091821c91015b6401000000008210611e8357602091821c91015b620100008210611e9557601091821c91015b6101008210611ea657600891821c91015b60108210611eb657600491821c91015b60048210611ec657600291821c91015b6002821061022257600101919050565b6000818303818312801590611eeb5750838113155b80611f005750600083128015611f0057508381135b61020b5760405162461bcd60e51b8152600401808060200182810382526024815260200180615bd06024913960400191505060405180910390fd5b600080821215611f4e578160000361021f565b5090565b600082611f615750600061020e565b82820282848281611f6e57fe5b041461020b5760405162461bcd60e51b81526004018080602001828103825260218152602001806152e96021913960400191505060405180910390fd5b606081611fd057506040805180820190915260018152600360fc1b6020820152610222565b8160005b8115611fe857600101600a82049150611fd4565b60008167ffffffffffffffff8111801561200157600080fd5b506040519080825280601f01601f19166020018201604052801561202c576020820181803683370190505b50859350905060001982015b831561207d57600a840660300160f81b8282806001900393508151811061205b57fe5b60200101906001600160f81b031916908160001a905350600a84049350612038565b50949350505050565b606061211b8261016001516040516020018080614ea36081913960810182805190602001908083835b602083106120ce5780518252601f1990920191602091820191016120af565b6001836020036101000a038019825116818451168082178552505050505050905001806813979f1e17b9bb339f60b91b8152506009019150506040516020818303038152906040526133cd565b612287836101e0015184610200015185610180015160405160200180806149e06063913960630184805190602001908083835b6020831061216d5780518252601f19909201916020918201910161214e565b51815160209384036101000a600019018019909216911617905265272063793d2760d01b919093019081528551600690910192860191508083835b602083106121c75780518252601f1990920191602091820191016121a8565b51815160209384036101000a60001901801990921691161790527f2720723d273132307078272066696c6c3d272300000000000000000000000000919093019081528451601390910192850191508083835b602083106122385780518252601f199092019160209182019101612219565b6001836020036101000a038019825116818451168082178552505050505050905001806813979f1e17b9bb339f60b91b81525060090193505050506040516020818303038152906040526133cd565b6122d8846102200151856102400151866101a0015160405160200180806149e06063913960630184805190602001908083836020831061216d5780518252601f19909201916020918201910161214e565b6123f7856102600151866102800151876101c0015160405160200180806149e06063913960630184805190602001908083835b6020831061232a5780518252601f19909201916020918201910161230b565b51815160209384036101000a600019018019909216911617905265272063793d2760d01b919093019081528551600690910192860191508083835b602083106123845780518252601f199092019160209182019101612365565b51815160001960209485036101000a019081169019919091161790527f2720723d273130307078272066696c6c3d2723000000000000000000000000009390910192835284516013909301929085019150808383602083106122385780518252601f199092019160209182019101612219565b61016086015160405160200180605661475b8239605601602c61510a82397f3c646566733e0000000000000000000000000000000000000000000000000000602c820152603201604b614e588239604b0186805190602001908083835b602083106124735780518252601f199092019160209182019101612454565b6001836020036101000a03801982511681845116808217855250505050505090500180615990603e9139603e0185805190602001908083835b602083106124cb5780518252601f1990920191602091820191016124ac565b6001836020036101000a03801982511681845116808217855250505050505090500180614f24603e9139603e0184805190602001908083835b602083106125235780518252601f199092019160209182019101612504565b5181516020939093036101000a60001901801990911692169190911790527f22202f3e00000000000000000000000000000000000000000000000000000000920191825250600401603b6146538239603b0183805190602001908083835b602083106125a05780518252601f199092019160209182019101612581565b6001836020036101000a03801982511681845116808217855250505050505090500180614aa060999139609901607f6155418239607f01608861590882396088016041614b398239604101605d615ac88239605d0160726155ed823960720160496145bc823960490160be614d9a823960be01607161486c8239607101607561548482396075016066614b7a823960660160a4615136823960a40160856159ce82397f3c6720636c69702d706174683d2275726c2823636f726e65727329223e00000060858201527f3c726563742066696c6c3d22000000000000000000000000000000000000000060a2820152825160ae9091019060208401908083835b602083106126be5780518252601f19909201916020918201910161269f565b6001836020036101000a03801982511681845116808217855250505050505090500180614be060319139603101604e6146058239604e01605d614a438239605d01604161508982396041016052614f6282396052016075615a538239607501955050505050506040516020818303038152906040529050919050565b60608382858488878a896040516020018080615bab60259139602501607d614d1d8239607d0189805190602001908083835b6020831061278b5780518252601f19909201916020918201910161276c565b51815160209384036101000a600019018019909216911617905264010714051160dd1b919093019081528a516005909101928b0191508083835b602083106127e45780518252601f1990920191602091820191016127c5565b6001836020036101000a03801982511681845116808217855250505050505090500180614c11607991396079016086615b25823960860187805190602001908083835b602083106128465780518252601f199092019160209182019101612827565b51815160209384036101000a600019018019909216911617905264010714051160dd1b919093019081528851600590910192890191508083835b6020831061289f5780518252601f199092019160209182019101612880565b6001836020036101000a038019825116818451168082178552505050505050905001806147e760859139608501607b6157768239607b0185805190602001908083835b602083106129015780518252601f1990920191602091820191016128e2565b51815160209384036101000a600019018019909216911617905264010714051160dd1b919093019081528651600590910192870191508083835b6020831061295a5780518252601f19909201916020918201910161293b565b6001836020036101000a03801982511681845116808217855250505050505090500180614931605d9139605d0160a36153e1823960a30183805190602001908083835b602083106129bc5780518252601f19909201916020918201910161299d565b51815160209384036101000a600019018019909216911617905264010714051160dd1b919093019081528451600590910192850191508083835b60208310612a155780518252601f1990920191602091820191016129f6565b6001836020036101000a03801982511681845116808217855250505050505090500180614531608b9139608b01985050505050505050506040516020818303038152906040529050949350505050565b6060838383604051602001808061468e60cd913960cd0184805190602001908083835b60208310612aa75780518252601f199092019160209182019101612a88565b6001836020036101000a038019825116818451168082178552505050505050905001807f2f0000000000000000000000000000000000000000000000000000000000000081525060010183805190602001908083835b60208310612b1c5780518252601f199092019160209182019101612afd565b6001836020036101000a03801982511681845116808217855250505050505090500180615d546077913960770182805190602001908083835b60208310612b745780518252601f199092019160209182019101612b55565b5181516020939093036101000a60001901801990911692169190911790526a1e17ba32bc3a1f1e17b39f60a91b920191825250600b016073615bf48239607301935050505060405160208183030381529060405290509392505050565b606060008260000b600114612c63578260000b60001914612c27576040518060400160405280600581526020017f236e6f6e65000000000000000000000000000000000000000000000000000000815250612c5e565b6040518060400160405280600a81526020017f23666164652d646f776e000000000000000000000000000000000000000000008152505b612c9a565b6040518060400160405280600881526020017f23666164652d75700000000000000000000000000000000000000000000000008152505b90506000612ca9878787613552565b905081818383612cb8886137a0565b60405160200180807f3c67206d61736b3d2275726c2800000000000000000000000000000000000000815250600d0186805190602001908083835b60208310612d125780518252601f199092019160209182019101612cf3565b5181516020939093036101000a600019018019909116921691909117905261149160f11b92019182525060020160776151da823960770185805190602001908083835b60208310612d745780518252601f199092019160209182019101612d55565b6001836020036101000a038019825116818451168082178552505050505050905001806148dd60549139605401807f3c2f673e3c67206d61736b3d2275726c2800000000000000000000000000000081525060110184805190602001908083835b60208310612df45780518252601f199092019160209182019101612dd5565b5181516020939093036101000a600019018019909116921691909117905261149160f11b9201918252506002016029615251823960290160456152a48239604501807f3c7061746820643d22000000000000000000000000000000000000000000000081525060090183805190602001908083835b60208310612e885780518252601f199092019160209182019101612e69565b6001836020036101000a038019825116818451168082178552505050505050905001806154f96048913960480182805190602001908083835b60208310612ee05780518252601f199092019160209182019101612ec1565b6001836020036101000a0380198251168184511680821785525050505050509050019550505050505060405160208183030381529060405292505050949350505050565b60606000612f3184613c74565b90506000612f3e84613c74565b865183518251929350600490910191600a9182019101600080612f618a8a6103ba565b91509150612f7485600401600702611fab565b8b612f8486600401600702611fab565b89612f9487600401600702611fab565b8a878760405160200180806155c0602d9139602d01806c1e3932b1ba103bb4b23a341e9160991b815250600d0189805190602001908083835b60208310612fec5780518252601f199092019160209182019101612fcd565b6001836020036101000a03801982511681845116808217855250505050505090500180614fb4603d9139603d01608d615c678239608d0188805190602001908083835b6020831061304e5780518252601f19909201916020918201910161302f565b5181516020939093036101000a60001901801990911692169190911790526a1e17ba32bc3a1f1e17b39f60a91b920191825250600b01602d615e038239602d01806c1e3932b1ba103bb4b23a341e9160991b815250600d0187805190602001908083835b602083106130d15780518252601f1990920191602091820191016130b2565b6001836020036101000a03801982511681845116808217855250505050505090500180614fb4603d9139603d016093614c8a823960930186805190602001908083835b602083106131335780518252601f199092019160209182019101613114565b5181516020939093036101000a60001901801990911692169190911790526a1e17ba32bc3a1f1e17b39f60a91b920191825250600b01602d61498e8239602d01806c1e3932b1ba103bb4b23a341e9160991b815250600d0185805190602001908083835b602083106131b65780518252601f199092019160209182019101613197565b6001836020036101000a03801982511681845116808217855250505050505090500180614fb4603d9139603d0160936157f1823960930184805190602001908083835b602083106132185780518252601f1990920191602091820191016131f9565b6001836020036101000a03801982511681845116808217855250505050505090500180615dcb603891396038016060615cf48239606001606461537d823960640160256149bb823960250183805190602001908083835b6020831061328e5780518252601f19909201916020918201910161326f565b51815160209384036101000a60001901801990921691161790527f70782c2000000000000000000000000000000000000000000000000000000000919093019081528451600490910192850191508083835b602083106132ff5780518252601f1990920191602091820191016132e0565b6001836020036101000a038019825116818451168082178552505050505050905001806147b160369139603601985050505050505050506040516020818303038152906040529750505050505050509392505050565b60606133618383610d50565b156133b75760405160200180608d6156e98239608d01607361530a823960730160716150188239607101608a61565f8239608a01608461588482396084019050604051602081830303815290604052905061020e565b5060408051602081019091526000815292915050565b60608151600014156133ee5750604080516020810190915260008152610222565b60006040518060600160405280604081526020016150ca6040913990506000600384516002018161341b57fe5b04600402905060008160200167ffffffffffffffff8111801561343d57600080fd5b506040519080825280601f01601f191660200182016040528015613468576020820181803683370190505b509050818152600183018586518101602084015b818310156134d65760039283018051603f601282901c811687015160f890811b8552600c83901c8216880151811b6001860152600683901c8216880151811b60028601529116860151901b9382019390935260040161347c565b6003895106600181146134f0576002811461351c57613544565b7f3d3d000000000000000000000000000000000000000000000000000000000000600119830152613544565b7f3d000000000000000000000000000000000000000000000000000000000000006000198301525b509398975050505050505050565b606060008260020b85850360020b8161356757fe5b05905060048160020b136135b2576040518060400160405280601a81526020017f4d3120314334312034312031303520313035203134352031343500000000000081525091506110cd565b60088160020b136135fa576040518060400160405280601981526020017f4d3120314333332034392039372031313320313435203134350000000000000081525091506110cd565b60108160020b13613642576040518060400160405280601981526020017f4d3120314333332035372038392031313320313435203134350000000000000081525091506110cd565b60208160020b1361368a576040518060400160405280601981526020017f4d3120314332352036352038312031323120313435203134350000000000000081525091506110cd565b60408160020b136136d2576040518060400160405280601981526020017f4d3120314331372037332037332031323920313435203134350000000000000081525091506110cd565b60808160020b1361371a576040518060400160405280601881526020017f4d3120314339203831203635203133372031343520313435000000000000000081525091506110cd565b6101008160020b13613763576040518060400160405280601a81526020017f4d31203143312038392035372e3520313435203134352031343500000000000081525091506110cd565b505060408051808201909152601881527f4d3120314331203937203439203134352031343520313435000000000000000060208201529392505050565b604080518082018252600281527f37330000000000000000000000000000000000000000000000000000000000006020808301919091528251808401845260038082527f313930000000000000000000000000000000000000000000000000000000000082840152845180860186528181527f32313700000000000000000000000000000000000000000000000000000000008185015285518087019096529085527f3333340000000000000000000000000000000000000000000000000000000000928501929092526060939091906001600087900b148061388757508560000b600019145b15613a7e578560000b6000191461389e57816138a0565b835b8660000b600019146138b257816138b4565b835b8760000b600019146138c657836138c8565b855b8860000b600019146138da57836138dc565b855b60405160200180806b1e31b4b931b6329031bc1e9160a11b815250600c0185805190602001908083835b602083106139255780518252601f199092019160209182019101613906565b51815160209384036101000a600019018019909216911617905267383c111031bc9e9160c11b919093019081528651600890910192870191508083835b602083106139815780518252601f199092019160209182019101613962565b6001836020036101000a03801982511681845116808217855250505050505090500180614ff16027913960270183805190602001908083835b602083106139d95780518252601f1990920191602091820191016139ba565b51815160209384036101000a600019018019909216911617905267383c111031bc9e9160c11b919093019081528451600890910192850191508083835b60208310613a355780518252601f199092019160209182019101613a16565b6001836020036101000a0380198251168184511680821785525050505050509050018061527a602a9139602a019450505050506040516020818303038152906040529450613c6b565b8383838360405160200180806b1e31b4b931b6329031bc1e9160a11b815250600c0185805190602001908083835b60208310613acb5780518252601f199092019160209182019101613aac565b51815160209384036101000a600019018019909216911617905267383c111031bc9e9160c11b919093019081528651600890910192870191508083835b60208310613b275780518252601f199092019160209182019101613b08565b51815160209384036101000a60001901801990921691161790527f70782220723d22347078222066696c6c3d22776869746522202f3e0000000000919093019081526b1e31b4b931b6329031bc1e9160a11b601b8201528551602790910192860191508083835b60208310613bad5780518252601f199092019160209182019101613b8e565b51815160209384036101000a600019018019909216911617905267383c111031bc9e9160c11b919093019081528451600890910192850191508083835b60208310613c095780518252601f199092019160209182019101613bea565b6001836020036101000a038019825116818451168082178552505050505050905001807f70782220723d22347078222066696c6c3d22776869746522202f3e0000000000815250601b0194505050505060405160208183030381529060405294505b50505050919050565b6060600060405180602001604052806000815250905060008360020b1215613cd657826000190292506040518060400160405280600181526020017f2d0000000000000000000000000000000000000000000000000000000000000081525090505b80613ce38460020b611fab565b6040516020018083805190602001908083835b60208310613d155780518252601f199092019160209182019101613cf6565b51815160209384036101000a600019018019909216911617905285519190930192850191508083835b60208310613d5d5780518252601f199092019160209182019101613d3e565b6001836020036101000a03801982511681845116808217855250505050505090500192505050604051602081830303815290604052915050919050565b6040805161010081018252600080825260208201819052918101829052606081018290526080810182905260a0810182905260c0810182905260e081019190915290565b803561022281614518565b8035801515811461022257600080fd5b8035600281900b811461022257600080fd5b600082601f830112613e1b578081fd5b8135613e2e613e2982614481565b61445d565b818152846020838601011115613e42578283fd5b816020850160208301379081016020019190915292915050565b803562ffffff8116811461022257600080fd5b803560ff8116811461022257600080fd5b600060208284031215613e91578081fd5b813561020b81614518565b60008060408385031215613eae578081fd5b8235613eb981614518565b946020939093013593505050565b60008060408385031215613ed9578182fd5b613ee283613df9565b9150613ef060208401613df9565b90509250929050565b600080600080600060a08688031215613f10578081fd5b613f1986613df9565b9450613f2760208701613df9565b9350613f3560408701613e6f565b9250613f4360608701613e6f565b9150613f5160808701613de9565b90509295509295909350565b600060208284031215613f6e578081fd5b815167ffffffffffffffff811115613f84578182fd5b8201601f81018413613f94578182fd5b8051613fa2613e2982614481565b818152856020838501011115613fb6578384fd5b6102d58260208301602086016144e8565b600060208284031215613fd8578081fd5b813567ffffffffffffffff811115613fee578182fd5b82016101c0818503121561020b578182fd5b600060208284031215614011578081fd5b813567ffffffffffffffff80821115614028578283fd5b81840191506101c080838703121561403e578384fd5b6140478161445d565b90508235815261405960208401613dde565b602082015261406a60408401613dde565b6040820152606083013582811115614080578485fd5b61408c87828601613e0b565b6060830152506080830135828111156140a3578485fd5b6140af87828601613e0b565b6080830152506140c160a08401613e6f565b60a08201526140d260c08401613e6f565b60c08201526140e360e08401613de9565b60e082015261010091506140f8828401613df9565b82820152610120915061410c828401613df9565b828201526101409150614120828401613df9565b828201526101609150614134828401613df9565b828201526101809150614148828401613e5c565b828201526101a0915061415c828401613dde565b91810191909152949350505050565b60008060006060848603121561417f578283fd5b833561418a81614518565b925061419860208501613e6f565b91506141a660408501613e6f565b90509250925092565b6000602082840312156141c0578081fd5b61020b82613e5c565b600080604083850312156141db578182fd5b8235915060208301356141ed81614518565b809150509250929050565b6001600160a01b03169052565b15159052565b60020b9052565b60008284528282602086013780602084860101526020601f19601f85011685010190509392505050565b600081518084526142548160208601602086016144e8565b601f01601f19169290920160200192915050565b62ffffff169052565b60ff169052565b901515815260200190565b60006020825261020b602083018461423c565b6000604082526142a9604083018561423c565b82810360208401526102d5818561423c565b600060208252823560208301526142d460208401613dde565b6142e160408401826141f8565b506142ee60408401613dde565b6142fb60608401826141f8565b5061430960608401846144a3565b6101c08060808601526143216101e086018385614212565b925061433060808701876144a3565b868503601f190160a08801529250614349848483614212565b93505061435860a08701613e6f565b915061436760c0860183614271565b61437360c08701613e6f565b915061438260e0860183614271565b61438e60e08701613de9565b915061010061439f81870184614205565b6143aa818801613df9565b9250506101206143bc8187018461420b565b6143c7818801613df9565b9250506101406143d98187018461420b565b6143e4818801613df9565b9250506101606143f68187018461420b565b614401818801613df9565b9250506101806144138187018461420b565b61441e818801613e5c565b9250506101a061443081870184614268565b61443b818801613dde565b92505061444a818601836141f8565b5090949350505050565b90815260200190565b60405181810167ffffffffffffffff8111828210171561447957fe5b604052919050565b600067ffffffffffffffff82111561449557fe5b50601f01601f191660200190565b6000808335601e198436030181126144b9578283fd5b830160208101925035905067ffffffffffffffff8111156144d957600080fd5b8036038313156101ef57600080fd5b60005b838110156145035781810151838201526020016144eb565b83811115614512576000848401525b50505050565b6001600160a01b038116811461452d57600080fd5b5056fe203c616e696d6174652061646469746976653d2273756d22206174747269627574654e616d653d2273746172744f6666736574222066726f6d3d2230252220746f3d22313030252220626567696e3d22307322206475723d223330732220726570656174436f756e743d22696e646566696e69746522202f3e3c2f74657874506174683e3c2f746578743e3c73746f70206f66667365743d222e39222073746f702d636f6c6f723d227768697465222073746f702d6f7061636974793d223022202f3e3c2f6c696e6561724772616469656e743e3c72656374207374796c653d2266696c7465723a2075726c28236631292220783d223070782220793d22307078222077696474683d22323930707822206865696768743d22353030707822202f3e3c6665496d61676520726573756c743d2270332220786c696e6b3a687265663d22646174613a696d6167652f7376672b786d6c3b6261736536342c3c67206d61736b3d2275726c2823666164652d73796d626f6c29223e3c726563742066696c6c3d226e6f6e652220783d223070782220793d22307078222077696474683d22323930707822206865696768743d22323030707822202f3e203c7465787420793d22373070782220783d2233327078222066696c6c3d2277686974652220666f6e742d66616d696c793d2227436f7572696572204e6577272c206d6f6e6f73706163652220666f6e742d7765696768743d223230302220666f6e742d73697a653d2233367078223e3c7376672077696474683d2232393022206865696768743d22353030222076696577426f783d2230203020323930203530302220786d6c6e733d22687474703a2f2f7777772e77332e6f72672f323030302f7376672270782c2030707829222063783d22307078222063793d223070782220723d22347078222066696c6c3d227768697465222f3e3c2f673e203c616e696d6174652061646469746976653d2273756d22206174747269627574654e616d653d2273746172744f6666736574222066726f6d3d2230252220746f3d22313030252220626567696e3d22307322206475723d223330732220726570656174436f756e743d22696e646566696e69746522202f3e203c2f74657874506174683e3c6d61736b2069643d22666164652d757022206d61736b436f6e74656e74556e6974733d226f626a656374426f756e64696e67426f78223e3c726563742077696474683d223122206865696768743d2231222066696c6c3d2275726c2823677261642d75702922202f3e3c2f6d61736b3e22207374726f6b653d227267626128302c302c302c302e332922207374726f6b652d77696474683d2233327078222066696c6c3d226e6f6e6522207374726f6b652d6c696e656361703d22726f756e6422202f3e203c616e696d6174652061646469746976653d2273756d22206174747269627574654e616d653d2273746172744f6666736574222066726f6d3d2230252220746f3d22313030252220626567696e3d22307322206475723d2233307322203c67207374796c653d227472616e73666f726d3a7472616e736c61746528323970782c20343434707829223e3c636972636c65207374796c653d227472616e73666f726d3a7472616e736c6174653364283c7376672077696474683d2732393027206865696768743d27353030272076696577426f783d2730203020323930203530302720786d6c6e733d27687474703a2f2f7777772e77332e6f72672f323030302f737667273e3c636972636c652063783d27203c67207374796c653d2266696c7465723a75726c2823746f702d726567696f6e2d626c7572293b207472616e73666f726d3a7363616c6528312e35293b207472616e73666f726d2d6f726967696e3a63656e74657220746f703b223e22202f3e3c6665426c656e64206d6f64653d226f7665726c61792220696e3d2270302220696e323d22703122202f3e3c6665426c656e64206d6f64653d226578636c7573696f6e2220696e323d22703222202f3e3c6665426c656e64206d6f64653d226f7665726c61792220696e323d2270332220726573756c743d22626c656e644f757422202f3e3c6665476175737369616e426c7572203c706174682069643d226d696e696d61702220643d224d3233342034343443323334203435372e393439203234322e323120343633203235332034363322202f3e3c6d61736b2069643d226e6f6e6522206d61736b436f6e74656e74556e6974733d226f626a656374426f756e64696e67426f78223e3c726563742077696474683d223122206865696768743d2231222066696c6c3d22776869746522202f3e3c2f6d61736b3e2220783d223070782220793d22307078222077696474683d22323930707822206865696768743d22353030707822202f3e203c616e696d6174652061646469746976653d2273756d22206174747269627574654e616d653d2273746172744f6666736574222066726f6d3d2230252220746f3d22313030252220626567696e3d22307322206475723d223330732220726570656174436f756e743d22696e646566696e69746522202f3e3c7465787420783d22313270782220793d22313770782220666f6e742d66616d696c793d2227436f7572696572204e6577272c206d6f6e6f73706163652220666f6e742d73697a653d2231327078222066696c6c3d227768697465223e3c747370616e2066696c6c3d2272676261283235352c3235352c3235352c302e3629223e4d696e205469636b3a203c2f747370616e3e3c74657874506174682073746172744f66667365743d222d31303025222066696c6c3d2277686974652220666f6e742d66616d696c793d2227436f7572696572204e6577272c206d6f6e6f73706163652220666f6e742d73697a653d22313070782220786c696e6b3a687265663d2223746578742d706174682d61223e3c6c696e6561724772616469656e742069643d22677261642d646f776e222078313d2230222078323d2231222079313d2230222079323d2231223e3c73746f70206f66667365743d22302e30222073746f702d636f6c6f723d227768697465222073746f702d6f7061636974793d223122202f3e3c73746f70206f66667365743d22302e39222073746f702d636f6c6f723d227768697465222073746f702d6f7061636974793d223022202f3e3c2f6c696e6561724772616469656e743e3c66696c7465722069643d226631223e3c6665496d61676520726573756c743d2270302220786c696e6b3a687265663d22646174613a696d6167652f7376672b786d6c3b6261736536342c3c7376672077696474683d2732393027206865696768743d27353030272076696577426f783d2730203020323930203530302720786d6c6e733d27687474703a2f2f7777772e77332e6f72672f323030302f737667273e3c726563742077696474683d27323930707827206865696768743d273530307078272066696c6c3d2723222f3e3c6665496d61676520726573756c743d2270322220786c696e6b3a687265663d22646174613a696d6167652f7376672b786d6c3b6261736536342c3c656c6c697073652063783d22353025222063793d22307078222072783d223138307078222072793d223132307078222066696c6c3d222330303022206f7061636974793d22302e383522202f3e3c2f673e707822206865696768743d2232367078222072783d22387078222072793d22387078222066696c6c3d227267626128302c302c302c302e362922202f3e70782220723d22347078222066696c6c3d22776869746522202f3e3c636972636c652063783d2231312e333437384c32342031324c31342e343334312031322e363532324c32322e333932332031384c31332e373831392031332e373831394c31382032322e333932334c31322e363532322031342e343334314c31322032344c31312e333437382031342e343334314c362032322e33393c726563742066696c6c3d226e6f6e652220783d223070782220793d22307078222077696474683d22323930707822206865696768743d22353030707822202f3e4142434445464748494a4b4c4d4e4f505152535455565758595a6162636465666768696a6b6c6d6e6f707172737475767778797a303132333435363738392b2f20786d6c6e733a786c696e6b3d27687474703a2f2f7777772e77332e6f72672f313939392f786c696e6b273e3c6c696e6561724772616469656e742069643d22677261642d73796d626f6c223e3c73746f70206f66667365743d22302e37222073746f702d636f6c6f723d227768697465222073746f702d6f7061636974793d223122202f3e3c73746f70206f66667365743d222e3935222073746f702d636f6c6f723d227768697465222073746f702d6f7061636974793d223022202f3e3c2f6c696e6561724772616469656e743e207374796c653d227472616e73666f726d3a7472616e736c61746528373270782c313839707829223e3c7265637420783d222d313670782220793d222d31367078222077696474683d22313830707822206865696768743d223138307078222066696c6c3d226e6f6e6522202f3e3c7061746820643d22207374796c653d227472616e73666f726d3a7472616e736c61746528373270782c313839707829223e70782220723d2232347078222066696c6c3d226e6f6e6522207374726f6b653d22776869746522202f3e3c7265637420783d222d313670782220793d222d31367078222077696474683d22313830707822206865696768743d223138307078222066696c6c3d226e6f6e6522202f3e536166654d6174683a206d756c7469706c69636174696f6e206f766572666c6f773c673e3c70617468207374796c653d227472616e73666f726d3a7472616e736c617465283670782c367078292220643d224d313220304c31322e3635323220392e35363538374c313820312e363037374c31332e373831392031302e323138314c32322e3339323320364c31342e34333431203c70617468207374726f6b652d6c696e656361703d22726f756e642220643d224d38203943382e30303030342032322e393439342031362e32303939203238203237203238222066696c6c3d226e6f6e6522207374726f6b653d22776869746522202f3e20726570656174436f756e743d22696e646566696e69746522202f3e3c2f74657874506174683e3c74657874506174682073746172744f66667365743d222d353025222066696c6c3d2277686974652220666f6e742d66616d696c793d2227436f7572696572204e6577272c206d6f6e6f73706163652220666f6e742d73697a653d22313070782220786c696e6b3a687265663d2223746578742d706174682d61223e3c6d61736b2069643d22666164652d646f776e22206d61736b436f6e74656e74556e6974733d226f626a656374426f756e64696e67426f78223e3c726563742077696474683d223122206865696768743d2231222066696c6c3d2275726c2823677261642d646f776e2922202f3e3c2f6d61736b3e22207374726f6b653d2272676261283235352c3235352c3235352c3129222066696c6c3d226e6f6e6522207374726f6b652d6c696e656361703d22726f756e6422202f3e3c2f673e696e3d22626c656e644f75742220737464446576696174696f6e3d22343222202f3e3c2f66696c7465723e203c636c6970506174682069643d22636f726e657273223e3c726563742077696474683d2232393022206865696768743d22353030222072783d223432222072793d22343222202f3e3c2f636c6970506174683e203c67207374796c653d227472616e73666f726d3a7472616e736c61746528323970782c20333834707829223e3c6c696e6561724772616469656e742069643d22677261642d7570222078313d2231222078323d2230222079313d2231222079323d2230223e3c73746f70206f66667365743d22302e30222073746f702d636f6c6f723d227768697465222073746f702d6f7061636974793d223122202f3e32334c31302e323138312031332e373831394c312e363037372031384c392e35363538372031322e363532324c302031324c392e35363538372031312e333437384c312e3630373720364c31302e323138312031302e323138314c3620312e363037374c31312e3334373820392e35363538374c313220305a222066696c6c3d22776869746522202f3e3c67207374796c653d227472616e73666f726d3a7472616e736c6174652832323670782c20333932707829223e3c726563742077696474683d223336707822206865696768743d2233367078222072783d22387078222072793d22387078222066696c6c3d226e6f6e6522207374726f6b653d2272676261283235352c3235352c3235352c302e322922202f3e3c74657874506174682073746172744f66667365743d22353025222066696c6c3d2277686974652220666f6e742d66616d696c793d2227436f7572696572204e6577272c206d6f6e6f73706163652220666f6e742d73697a653d22313070782220786c696e6b3a687265663d2223746578742d706174682d61223e3c7465787420783d22313270782220793d22313770782220666f6e742d66616d696c793d2227436f7572696572204e6577272c206d6f6e6f73706163652220666f6e742d73697a653d2231327078222066696c6c3d227768697465223e3c747370616e2066696c6c3d2272676261283235352c3235352c3235352c302e3629223e4d6178205469636b3a203c2f747370616e3e3c616e696d6174655472616e73666f726d206174747269627574654e616d653d227472616e73666f726d2220747970653d22726f74617465222066726f6d3d22302031382031382220746f3d2233363020313820313822206475723d223130732220726570656174436f756e743d22696e646566696e697465222f3e3c2f673e3c2f673e3c706174682069643d22746578742d706174682d612220643d224d34302031322048323530204132382032382030203020312032373820343020563436302041323820323820302030203120323530203438382048343020413238203238203020302031203132203436302056343020413238203238203020302031203430203132207a22202f3e222f3e3c6665496d61676520726573756c743d2270312220786c696e6b3a687265663d22646174613a696d6167652f7376672b786d6c3b6261736536342c3c6d61736b2069643d22666164652d73796d626f6c22206d61736b436f6e74656e74556e6974733d227573657253706163654f6e557365223e3c726563742077696474683d22323930707822206865696768743d223230307078222066696c6c3d2275726c2823677261642d73796d626f6c2922202f3e3c2f6d61736b3e3c2f646566733e3c7265637420783d22302220793d2230222077696474683d2232393022206865696768743d22353030222072783d223432222072793d223432222066696c6c3d227267626128302c302c302c302922207374726f6b653d2272676261283235352c3235352c3235352c302e322922202f3e3c2f673e3c66696c7465722069643d22746f702d726567696f6e2d626c7572223e3c6665476175737369616e426c757220696e3d22536f75726365477261706869632220737464446576696174696f6e3d22323422202f3e3c2f66696c7465723e3c2f74657874506174683e203c74657874506174682073746172744f66667365743d223025222066696c6c3d2277686974652220666f6e742d66616d696c793d2227436f7572696572204e6577272c206d6f6e6f73706163652220666f6e742d73697a653d22313070782220786c696e6b3a687265663d2223746578742d706174682d61223e3c7465787420746578742d72656e646572696e673d226f7074696d697a655370656564223e5369676e6564536166654d6174683a207375627472616374696f6e206f766572666c6f773c7265637420783d2231362220793d223136222077696474683d2232353822206865696768743d22343638222072783d223236222072793d223236222066696c6c3d227267626128302c302c302c302922207374726f6b653d2272676261283235352c3235352c3235352c302e322922202f3e3c7465787420783d22313270782220793d22313770782220666f6e742d66616d696c793d2227436f7572696572204e6577272c206d6f6e6f73706163652220666f6e742d73697a653d2231327078222066696c6c3d227768697465223e3c747370616e2066696c6c3d2272676261283235352c3235352c3235352c302e3629223e49443a203c2f747370616e3e3c726563742077696474683d223336707822206865696768743d2233367078222072783d22387078222072793d22387078222066696c6c3d226e6f6e6522207374726f6b653d2272676261283235352c3235352c3235352c302e322922202f3e3c2f746578743e3c7465787420793d2231313570782220783d2233327078222066696c6c3d2277686974652220666f6e742d66616d696c793d2227436f7572696572204e6577272c206d6f6e6f73706163652220666f6e742d7765696768743d223230302220666f6e742d73697a653d2233367078223e3c2f746578743e3c2f673e3c67207374796c653d227472616e73666f726d3a7472616e736c6174652832323670782c20343333707829223e203c67207374796c653d227472616e73666f726d3a7472616e736c61746528323970782c20343134707829223ea164736f6c6343000706000a","opcodes":"PUSH1 0x80 PUSH1 0x40 MSTORE CALLVALUE DUP1 ISZERO PUSH2 0x10 JUMPI PUSH1 0x0 DUP1 REVERT JUMPDEST POP PUSH2 0x5E3C DUP1 PUSH2 0x20 PUSH1 0x0 CODECOPY PUSH1 0x0 RETURN INVALID PUSH1 0x80 PUSH1 0x40 MSTORE CALLVALUE DUP1 ISZERO PUSH2 0x10 JUMPI PUSH1 0x0 DUP1 REVERT JUMPDEST POP PUSH1 0x4 CALLDATASIZE LT PUSH2 0xC9 JUMPI PUSH1 0x0 CALLDATALOAD PUSH1 0xE0 SHR DUP1 PUSH4 0xD5C0BDD8 GT PUSH2 0x81 JUMPI DUP1 PUSH4 0xE7386906 GT PUSH2 0x5B JUMPI DUP1 PUSH4 0xE7386906 EQ PUSH2 0x197 JUMPI DUP1 PUSH4 0xEA4D3BCD EQ PUSH2 0x1B7 JUMPI DUP1 PUSH4 0xF93A7911 EQ PUSH2 0x1CA JUMPI PUSH2 0xC9 JUMP JUMPDEST DUP1 PUSH4 0xD5C0BDD8 EQ PUSH2 0x15E JUMPI DUP1 PUSH4 0xD6986D45 EQ PUSH2 0x171 JUMPI DUP1 PUSH4 0xE1649FCF EQ PUSH2 0x184 JUMPI PUSH2 0xC9 JUMP JUMPDEST DUP1 PUSH4 0x5E57966D GT PUSH2 0xB2 JUMPI DUP1 PUSH4 0x5E57966D EQ PUSH2 0x118 JUMPI DUP1 PUSH4 0x854924AB EQ PUSH2 0x12B JUMPI DUP1 PUSH4 0x9288C218 EQ PUSH2 0x14B JUMPI PUSH2 0xC9 JUMP JUMPDEST DUP1 PUSH4 0x2FA2AF10 EQ PUSH2 0xCE JUMPI DUP1 PUSH4 0x3A0CDEE2 EQ PUSH2 0xF8 JUMPI JUMPDEST PUSH1 0x0 DUP1 REVERT JUMPDEST PUSH2 0xE1 PUSH2 0xDC CALLDATASIZE PUSH1 0x4 PUSH2 0x3EC7 JUMP JUMPDEST PUSH2 0x1DD JUMP JUMPDEST PUSH1 0x40 MLOAD PUSH2 0xEF SWAP3 SWAP2 SWAP1 PUSH2 0x4296 JUMP JUMPDEST PUSH1 0x40 MLOAD DUP1 SWAP2 SUB SWAP1 RETURN JUMPDEST PUSH2 0x10B PUSH2 0x106 CALLDATASIZE PUSH1 0x4 PUSH2 0x3E9C JUMP JUMPDEST PUSH2 0x1F6 JUMP JUMPDEST PUSH1 0x40 MLOAD PUSH2 0xEF SWAP2 SWAP1 PUSH2 0x4283 JUMP JUMPDEST PUSH2 0x10B PUSH2 0x126 CALLDATASIZE PUSH1 0x4 PUSH2 0x3E80 JUMP JUMPDEST PUSH2 0x214 JUMP JUMPDEST PUSH2 0x13E PUSH2 0x139 CALLDATASIZE PUSH1 0x4 PUSH2 0x3FC7 JUMP JUMPDEST PUSH2 0x227 JUMP JUMPDEST PUSH1 0x40 MLOAD PUSH2 0xEF SWAP2 SWAP1 PUSH2 0x4454 JUMP JUMPDEST PUSH2 0x10B PUSH2 0x159 CALLDATASIZE PUSH1 0x4 PUSH2 0x3EF9 JUMP JUMPDEST PUSH2 0x2C3 JUMP JUMPDEST PUSH2 0x10B PUSH2 0x16C CALLDATASIZE PUSH1 0x4 PUSH2 0x416B JUMP JUMPDEST PUSH2 0x2DE JUMP JUMPDEST PUSH2 0x13E PUSH2 0x17F CALLDATASIZE PUSH1 0x4 PUSH2 0x3E9C JUMP JUMPDEST PUSH2 0x2F5 JUMP JUMPDEST PUSH2 0x10B PUSH2 0x192 CALLDATASIZE PUSH1 0x4 PUSH2 0x4000 JUMP JUMPDEST PUSH2 0x30A JUMP JUMPDEST PUSH2 0x1AA PUSH2 0x1A5 CALLDATASIZE PUSH1 0x4 PUSH2 0x41C9 JUMP JUMPDEST PUSH2 0x315 JUMP JUMPDEST PUSH1 0x40 MLOAD PUSH2 0xEF SWAP2 SWAP1 PUSH2 0x4278 JUMP JUMPDEST PUSH2 0x10B PUSH2 0x1C5 CALLDATASIZE PUSH1 0x4 PUSH2 0x41AF JUMP JUMPDEST PUSH2 0x321 JUMP JUMPDEST PUSH2 0x10B PUSH2 0x1D8 CALLDATASIZE PUSH1 0x4 PUSH2 0x3FC7 JUMP JUMPDEST PUSH2 0x32C JUMP JUMPDEST PUSH1 0x60 DUP1 PUSH2 0x1EA DUP5 DUP5 PUSH2 0x3BA JUMP JUMPDEST SWAP2 POP SWAP2 POP JUMPDEST SWAP3 POP SWAP3 SWAP1 POP JUMP JUMPDEST PUSH1 0x60 PUSH2 0x20B DUP4 PUSH1 0x1 PUSH1 0x1 PUSH1 0xA0 SHL SUB AND DUP4 PUSH2 0x7EB JUMP JUMPDEST SWAP1 POP JUMPDEST SWAP3 SWAP2 POP POP JUMP JUMPDEST PUSH1 0x60 PUSH2 0x21F DUP3 PUSH2 0x7FA JUMP JUMPDEST SWAP1 POP JUMPDEST SWAP2 SWAP1 POP JUMP JUMPDEST PUSH1 0x0 DUP1 GAS PUSH1 0x40 MLOAD PUSH4 0xC49917D7 PUSH1 0xE0 SHL DUP2 MSTORE SWAP1 SWAP2 POP PUSH20 0x0 SWAP1 PUSH4 0xC49917D7 SWAP1 PUSH2 0x265 SWAP1 DUP7 SWAP1 PUSH1 0x4 ADD PUSH2 0x42BB JUMP JUMPDEST PUSH1 0x0 PUSH1 0x40 MLOAD DUP1 DUP4 SUB DUP2 DUP7 DUP1 EXTCODESIZE ISZERO DUP1 ISZERO PUSH2 0x27D JUMPI PUSH1 0x0 DUP1 REVERT JUMPDEST POP GAS DELEGATECALL ISZERO DUP1 ISZERO PUSH2 0x291 JUMPI RETURNDATASIZE PUSH1 0x0 DUP1 RETURNDATACOPY RETURNDATASIZE PUSH1 0x0 REVERT JUMPDEST POP POP POP POP PUSH1 0x40 MLOAD RETURNDATASIZE PUSH1 0x0 DUP3 RETURNDATACOPY PUSH1 0x1F RETURNDATASIZE SWAP1 DUP2 ADD PUSH1 0x1F NOT AND DUP3 ADD PUSH1 0x40 MSTORE PUSH2 0x2B9 SWAP2 SWAP1 DUP2 ADD SWAP1 PUSH2 0x3F5D JUMP JUMPDEST POP GAS SWAP1 SUB SWAP3 SWAP2 POP POP JUMP JUMPDEST PUSH1 0x60 PUSH2 0x2D2 DUP7 DUP7 DUP7 DUP7 DUP7 PUSH2 0x810 JUMP JUMPDEST SWAP1 POP JUMPDEST SWAP6 SWAP5 POP POP POP POP POP JUMP JUMPDEST PUSH1 0x60 PUSH2 0x2EB DUP5 DUP5 DUP5 PUSH2 0x93A JUMP JUMPDEST SWAP1 POP JUMPDEST SWAP4 SWAP3 POP POP POP JUMP JUMPDEST PUSH1 0x0 PUSH2 0x20B DUP4 PUSH1 0x1 PUSH1 0x1 PUSH1 0xA0 SHL SUB AND DUP4 PUSH2 0xB0E JUMP JUMPDEST PUSH1 0x60 PUSH2 0x21F DUP3 PUSH2 0xB15 JUMP JUMPDEST PUSH1 0x0 PUSH2 0x20B DUP4 DUP4 PUSH2 0xD50 JUMP JUMPDEST PUSH1 0x60 PUSH2 0x21F DUP3 PUSH2 0xDB3 JUMP JUMPDEST PUSH1 0x40 MLOAD PUSH4 0xC49917D7 PUSH1 0xE0 SHL DUP2 MSTORE PUSH1 0x60 SWAP1 PUSH20 0x0 SWAP1 PUSH4 0xC49917D7 SWAP1 PUSH2 0x366 SWAP1 DUP6 SWAP1 PUSH1 0x4 ADD PUSH2 0x42BB JUMP JUMPDEST PUSH1 0x0 PUSH1 0x40 MLOAD DUP1 DUP4 SUB DUP2 DUP7 DUP1 EXTCODESIZE ISZERO DUP1 ISZERO PUSH2 0x37E JUMPI PUSH1 0x0 DUP1 REVERT JUMPDEST POP GAS DELEGATECALL ISZERO DUP1 ISZERO PUSH2 0x392 JUMPI RETURNDATASIZE PUSH1 0x0 DUP1 RETURNDATACOPY RETURNDATASIZE PUSH1 0x0 REVERT JUMPDEST POP POP POP POP PUSH1 0x40 MLOAD RETURNDATASIZE PUSH1 0x0 DUP3 RETURNDATACOPY PUSH1 0x1F RETURNDATASIZE SWAP1 DUP2 ADD PUSH1 0x1F NOT AND DUP3 ADD PUSH1 0x40 MSTORE PUSH2 0x21F SWAP2 SWAP1 DUP2 ADD SWAP1 PUSH2 0x3F5D JUMP JUMPDEST PUSH1 0x60 DUP1 PUSH1 0x0 PUSH1 0x2 DUP6 DUP6 ADD DUP2 SIGNEXTEND SDIV SWAP1 POP PUSH3 0x1E847 NOT DUP2 PUSH1 0x2 SIGNEXTEND SLT ISZERO PUSH2 0x432 JUMPI PUSH1 0x40 MLOAD DUP1 PUSH1 0x40 ADD PUSH1 0x40 MSTORE DUP1 PUSH1 0x1 DUP2 MSTORE PUSH1 0x20 ADD PUSH1 0x7 PUSH1 0xFB SHL DUP2 MSTORE POP PUSH1 0x40 MLOAD DUP1 PUSH1 0x40 ADD PUSH1 0x40 MSTORE DUP1 PUSH1 0x1 DUP2 MSTORE PUSH1 0x20 ADD PUSH32 0x3700000000000000000000000000000000000000000000000000000000000000 DUP2 MSTORE POP SWAP3 POP SWAP3 POP POP PUSH2 0x1EF JUMP JUMPDEST PUSH3 0x124F7 NOT DUP2 PUSH1 0x2 SIGNEXTEND SLT ISZERO PUSH2 0x49B JUMPI PUSH1 0x40 MLOAD DUP1 PUSH1 0x40 ADD PUSH1 0x40 MSTORE DUP1 PUSH1 0x1 DUP2 MSTORE PUSH1 0x20 ADD PUSH1 0x7 PUSH1 0xFB SHL DUP2 MSTORE POP PUSH1 0x40 MLOAD DUP1 PUSH1 0x40 ADD PUSH1 0x40 MSTORE DUP1 PUSH1 0x4 DUP2 MSTORE PUSH1 0x20 ADD PUSH32 0x31302E3500000000000000000000000000000000000000000000000000000000 DUP2 MSTORE POP SWAP3 POP SWAP3 POP POP PUSH2 0x1EF JUMP JUMPDEST PUSH2 0x61A7 NOT DUP2 PUSH1 0x2 SIGNEXTEND SLT ISZERO PUSH2 0x503 JUMPI PUSH1 0x40 MLOAD DUP1 PUSH1 0x40 ADD PUSH1 0x40 MSTORE DUP1 PUSH1 0x1 DUP2 MSTORE PUSH1 0x20 ADD PUSH1 0x7 PUSH1 0xFB SHL DUP2 MSTORE POP PUSH1 0x40 MLOAD DUP1 PUSH1 0x40 ADD PUSH1 0x40 MSTORE DUP1 PUSH1 0x5 DUP2 MSTORE PUSH1 0x20 ADD PUSH32 0x31342E3235000000000000000000000000000000000000000000000000000000 DUP2 MSTORE POP SWAP3 POP SWAP3 POP POP PUSH2 0x1EF JUMP JUMPDEST PUSH2 0x1387 NOT DUP2 PUSH1 0x2 SIGNEXTEND SLT ISZERO PUSH2 0x56C JUMPI PUSH1 0x40 MLOAD DUP1 PUSH1 0x40 ADD PUSH1 0x40 MSTORE DUP1 PUSH1 0x2 DUP2 MSTORE PUSH1 0x20 ADD PUSH32 0x3130000000000000000000000000000000000000000000000000000000000000 DUP2 MSTORE POP PUSH1 0x40 MLOAD DUP1 PUSH1 0x40 ADD PUSH1 0x40 MSTORE DUP1 PUSH1 0x2 DUP2 MSTORE PUSH1 0x20 ADD PUSH2 0x627 PUSH1 0xF3 SHL DUP2 MSTORE POP SWAP3 POP SWAP3 POP POP PUSH2 0x1EF JUMP JUMPDEST PUSH1 0x0 DUP2 PUSH1 0x2 SIGNEXTEND SLT ISZERO PUSH2 0x5D3 JUMPI PUSH1 0x40 MLOAD DUP1 PUSH1 0x40 ADD PUSH1 0x40 MSTORE DUP1 PUSH1 0x2 DUP2 MSTORE PUSH1 0x20 ADD PUSH32 0x3131000000000000000000000000000000000000000000000000000000000000 DUP2 MSTORE POP PUSH1 0x40 MLOAD DUP1 PUSH1 0x40 ADD PUSH1 0x40 MSTORE DUP1 PUSH1 0x2 DUP2 MSTORE PUSH1 0x20 ADD PUSH2 0x3231 PUSH1 0xF0 SHL DUP2 MSTORE POP SWAP3 POP SWAP3 POP POP PUSH2 0x1EF JUMP JUMPDEST PUSH2 0x1388 DUP2 PUSH1 0x2 SIGNEXTEND SLT ISZERO PUSH2 0x656 JUMPI PUSH1 0x40 MLOAD DUP1 PUSH1 0x40 ADD PUSH1 0x40 MSTORE DUP1 PUSH1 0x2 DUP2 MSTORE PUSH1 0x20 ADD PUSH32 0x3133000000000000000000000000000000000000000000000000000000000000 DUP2 MSTORE POP PUSH1 0x40 MLOAD DUP1 PUSH1 0x40 ADD PUSH1 0x40 MSTORE DUP1 PUSH1 0x2 DUP2 MSTORE PUSH1 0x20 ADD PUSH32 0x3233000000000000000000000000000000000000000000000000000000000000 DUP2 MSTORE POP SWAP3 POP SWAP3 POP POP PUSH2 0x1EF JUMP JUMPDEST PUSH2 0x61A8 DUP2 PUSH1 0x2 SIGNEXTEND SLT ISZERO PUSH2 0x6D9 JUMPI PUSH1 0x40 MLOAD DUP1 PUSH1 0x40 ADD PUSH1 0x40 MSTORE DUP1 PUSH1 0x2 DUP2 MSTORE PUSH1 0x20 ADD PUSH32 0x3135000000000000000000000000000000000000000000000000000000000000 DUP2 MSTORE POP PUSH1 0x40 MLOAD DUP1 PUSH1 0x40 ADD PUSH1 0x40 MSTORE DUP1 PUSH1 0x2 DUP2 MSTORE PUSH1 0x20 ADD PUSH32 0x3235000000000000000000000000000000000000000000000000000000000000 DUP2 MSTORE POP SWAP3 POP SWAP3 POP POP PUSH2 0x1EF JUMP JUMPDEST PUSH3 0x124F8 DUP2 PUSH1 0x2 SIGNEXTEND SLT ISZERO PUSH2 0x742 JUMPI PUSH1 0x40 MLOAD DUP1 PUSH1 0x40 ADD PUSH1 0x40 MSTORE DUP1 PUSH1 0x2 DUP2 MSTORE PUSH1 0x20 ADD PUSH2 0x627 PUSH1 0xF3 SHL DUP2 MSTORE POP PUSH1 0x40 MLOAD DUP1 PUSH1 0x40 ADD PUSH1 0x40 MSTORE DUP1 PUSH1 0x2 DUP2 MSTORE PUSH1 0x20 ADD PUSH32 0x3236000000000000000000000000000000000000000000000000000000000000 DUP2 MSTORE POP SWAP3 POP SWAP3 POP POP PUSH2 0x1EF JUMP JUMPDEST PUSH3 0x1E848 DUP2 PUSH1 0x2 SIGNEXTEND SLT ISZERO PUSH2 0x790 JUMPI PUSH1 0x40 MLOAD DUP1 PUSH1 0x40 ADD PUSH1 0x40 MSTORE DUP1 PUSH1 0x2 DUP2 MSTORE PUSH1 0x20 ADD PUSH2 0x3231 PUSH1 0xF0 SHL DUP2 MSTORE POP PUSH1 0x40 MLOAD DUP1 PUSH1 0x40 ADD PUSH1 0x40 MSTORE DUP1 PUSH1 0x2 DUP2 MSTORE PUSH1 0x20 ADD PUSH2 0x3237 PUSH1 0xF0 SHL DUP2 MSTORE POP SWAP3 POP SWAP3 POP POP PUSH2 0x1EF JUMP JUMPDEST PUSH1 0x40 MLOAD DUP1 PUSH1 0x40 ADD PUSH1 0x40 MSTORE DUP1 PUSH1 0x2 DUP2 MSTORE PUSH1 0x20 ADD PUSH32 0x3234000000000000000000000000000000000000000000000000000000000000 DUP2 MSTORE POP PUSH1 0x40 MLOAD DUP1 PUSH1 0x40 ADD PUSH1 0x40 MSTORE DUP1 PUSH1 0x2 DUP2 MSTORE PUSH1 0x20 ADD PUSH2 0x3237 PUSH1 0xF0 SHL DUP2 MSTORE POP SWAP3 POP SWAP3 POP POP PUSH2 0x1EF JUMP JUMPDEST PUSH1 0x60 PUSH2 0x20B DUP4 DUP4 SHR PUSH1 0x3 PUSH2 0x100E JUMP JUMPDEST PUSH1 0x60 PUSH2 0x21F PUSH1 0x1 PUSH1 0x1 PUSH1 0xA0 SHL SUB DUP4 AND PUSH1 0x14 PUSH2 0x10D5 JUMP JUMPDEST PUSH1 0x60 DUP5 PUSH1 0x2 DUP2 SWAP1 SIGNEXTEND PUSH3 0xD89E7 NOT DUP2 PUSH2 0x824 JUMPI INVALID JUMPDEST SDIV MUL PUSH1 0x2 SIGNEXTEND DUP7 PUSH1 0x2 SIGNEXTEND EQ ISZERO PUSH2 0x87E JUMPI DUP2 ISZERO PUSH2 0x85A JUMPI PUSH1 0x40 MLOAD DUP1 PUSH1 0x40 ADD PUSH1 0x40 MSTORE DUP1 PUSH1 0x3 DUP2 MSTORE PUSH1 0x20 ADD PUSH3 0x9A82B PUSH1 0xEB SHL DUP2 MSTORE POP PUSH2 0x877 JUMP JUMPDEST PUSH1 0x40 MLOAD DUP1 PUSH1 0x40 ADD PUSH1 0x40 MSTORE DUP1 PUSH1 0x3 DUP2 MSTORE PUSH1 0x20 ADD PUSH3 0x26A4A7 PUSH1 0xE9 SHL DUP2 MSTORE POP JUMPDEST SWAP1 POP PUSH2 0x2D5 JUMP JUMPDEST DUP5 PUSH1 0x2 DUP2 SWAP1 SIGNEXTEND PUSH3 0xD89E8 DUP2 PUSH2 0x88F JUMPI INVALID JUMPDEST SDIV MUL PUSH1 0x2 SIGNEXTEND DUP7 PUSH1 0x2 SIGNEXTEND EQ ISZERO PUSH2 0x8E5 JUMPI DUP2 ISZERO PUSH2 0x8C5 JUMPI PUSH1 0x40 MLOAD DUP1 PUSH1 0x40 ADD PUSH1 0x40 MSTORE DUP1 PUSH1 0x3 DUP2 MSTORE PUSH1 0x20 ADD PUSH3 0x26A4A7 PUSH1 0xE9 SHL DUP2 MSTORE POP PUSH2 0x877 JUMP JUMPDEST POP PUSH1 0x40 DUP1 MLOAD DUP1 DUP3 ADD SWAP1 SWAP2 MSTORE PUSH1 0x3 DUP2 MSTORE PUSH3 0x9A82B PUSH1 0xEB SHL PUSH1 0x20 DUP3 ADD MSTORE PUSH2 0x2D5 JUMP JUMPDEST PUSH1 0x0 PUSH2 0x8F0 DUP8 PUSH2 0x125D JUMP JUMPDEST SWAP1 POP DUP3 ISZERO PUSH2 0x927 JUMPI PUSH2 0x924 PUSH25 0x1000000000000000000000000000000000000000000000000 PUSH1 0x1 PUSH1 0x1 PUSH1 0xA0 SHL SUB DUP4 AND PUSH2 0x15AB JUMP JUMPDEST SWAP1 POP JUMPDEST PUSH2 0x932 DUP2 DUP7 DUP7 PUSH2 0x93A JUMP JUMPDEST SWAP2 POP POP PUSH2 0x2D5 JUMP JUMPDEST PUSH1 0x60 PUSH1 0x0 PUSH2 0x949 DUP6 DUP6 DUP6 PUSH2 0x1612 JUMP JUMPDEST SWAP1 POP PUSH1 0x0 PUSH2 0x961 DUP3 DUP4 PUSH9 0x10000000000000000 PUSH2 0x1714 JUMP JUMPDEST SWAP1 POP PUSH13 0x1000000000000000000000000 DUP3 LT DUP1 ISZERO PUSH2 0x9A2 JUMPI PUSH2 0x99B DUP3 PUSH19 0x47BF19673DF52E37F2410011D100000000000 PUSH1 0x1 PUSH1 0x80 SHL PUSH2 0x1714 JUMP JUMPDEST SWAP2 POP PUSH2 0x9B7 JUMP JUMPDEST PUSH2 0x9B4 DUP3 PUSH3 0x186A0 PUSH1 0x1 PUSH1 0x80 SHL PUSH2 0x1714 JUMP JUMPDEST SWAP2 POP JUMPDEST DUP2 PUSH1 0x0 JUMPDEST DUP2 ISZERO PUSH2 0x9CF JUMPI PUSH1 0x1 ADD PUSH1 0xA DUP3 DIV SWAP2 POP PUSH2 0x9BB JUMP JUMPDEST PUSH1 0x0 NOT ADD PUSH1 0x0 DUP1 PUSH2 0x9E0 DUP7 DUP5 PUSH2 0x17C3 JUMP JUMPDEST SWAP2 POP SWAP2 POP DUP1 ISZERO PUSH2 0x9F1 JUMPI PUSH1 0x1 SWAP1 SWAP3 ADD SWAP2 JUMPDEST PUSH2 0x9F9 PUSH2 0x3D9A JUMP JUMPDEST DUP6 ISZERO PUSH2 0xA6C JUMPI PUSH2 0xA18 PUSH2 0xA10 PUSH1 0x2B PUSH1 0xFF DUP8 AND PUSH2 0x182F JUMP JUMPDEST PUSH1 0x7 SWAP1 PUSH2 0x188C JUMP JUMPDEST PUSH1 0xFF SWAP1 DUP2 AND PUSH1 0x20 DUP4 ADD MSTORE PUSH1 0x2 PUSH1 0x80 DUP4 ADD MSTORE PUSH2 0xA44 SWAP1 PUSH1 0x1 SWAP1 PUSH2 0xA3E SWAP1 PUSH1 0x2B SWAP1 DUP9 AND PUSH2 0x182F JUMP JUMPDEST SWAP1 PUSH2 0x188C JUMP JUMPDEST PUSH1 0xFF SWAP1 DUP2 AND PUSH1 0xA0 DUP4 ADD MSTORE PUSH1 0x20 DUP3 ADD MLOAD PUSH2 0xA5F SWAP2 AND PUSH1 0x1 PUSH2 0x182F JUMP JUMPDEST PUSH1 0xFF AND PUSH1 0x40 DUP3 ADD MSTORE PUSH2 0xAE3 JUMP JUMPDEST PUSH1 0x9 DUP5 PUSH1 0xFF AND LT PUSH2 0xAB5 JUMPI PUSH2 0xA85 PUSH1 0xFF DUP6 AND PUSH1 0x4 PUSH2 0x182F JUMP JUMPDEST PUSH1 0xFF AND PUSH1 0x20 DUP3 ADD DUP2 SWAP1 MSTORE PUSH1 0x5 PUSH1 0x80 DUP4 ADD MSTORE PUSH2 0xAA1 SWAP1 PUSH1 0x1 PUSH2 0x182F JUMP JUMPDEST PUSH1 0xFF AND PUSH1 0xA0 DUP3 ADD MSTORE PUSH1 0x4 PUSH1 0x40 DUP3 ADD MSTORE PUSH2 0xAE3 JUMP JUMPDEST PUSH1 0x6 PUSH1 0x20 DUP3 ADD MSTORE PUSH1 0x5 PUSH1 0x40 DUP3 ADD DUP2 SWAP1 MSTORE PUSH2 0xADA SWAP1 PUSH1 0x1 SWAP1 PUSH2 0xA3E SWAP1 PUSH1 0xFF DUP9 AND SWAP1 PUSH2 0x182F JUMP JUMPDEST PUSH1 0xFF AND PUSH1 0x60 DUP3 ADD MSTORE JUMPDEST DUP3 DUP2 MSTORE DUP6 ISZERO ISZERO PUSH1 0xC0 DUP3 ADD MSTORE PUSH1 0x0 PUSH1 0xE0 DUP3 ADD MSTORE PUSH2 0xAFE DUP2 PUSH2 0x18E6 JUMP JUMPDEST SWAP13 SWAP12 POP POP POP POP POP POP POP POP POP POP POP POP JUMP JUMPDEST SHR PUSH1 0xFF AND SWAP1 JUMP JUMPDEST PUSH1 0x60 PUSH1 0x0 PUSH1 0x40 MLOAD DUP1 PUSH2 0x2A0 ADD PUSH1 0x40 MSTORE DUP1 PUSH2 0xB32 DUP6 PUSH1 0x20 ADD MLOAD PUSH2 0x7FA JUMP JUMPDEST DUP2 MSTORE PUSH1 0x20 ADD PUSH2 0xB44 DUP6 PUSH1 0x40 ADD MLOAD PUSH2 0x7FA JUMP JUMPDEST DUP2 MSTORE PUSH1 0x20 ADD DUP5 PUSH2 0x1A0 ADD MLOAD PUSH1 0x1 PUSH1 0x1 PUSH1 0xA0 SHL SUB AND DUP2 MSTORE PUSH1 0x20 ADD DUP5 PUSH1 0x60 ADD MLOAD DUP2 MSTORE PUSH1 0x20 ADD DUP5 PUSH1 0x80 ADD MLOAD DUP2 MSTORE PUSH1 0x20 ADD PUSH2 0xB7F DUP6 PUSH2 0x180 ADD MLOAD PUSH2 0xDB3 JUMP JUMPDEST DUP2 MSTORE PUSH1 0x20 ADD DUP5 PUSH2 0x100 ADD MLOAD PUSH1 0x2 SIGNEXTEND DUP2 MSTORE PUSH1 0x20 ADD DUP5 PUSH2 0x120 ADD MLOAD PUSH1 0x2 SIGNEXTEND DUP2 MSTORE PUSH1 0x20 ADD DUP5 PUSH2 0x160 ADD MLOAD PUSH1 0x2 SIGNEXTEND DUP2 MSTORE PUSH1 0x20 ADD PUSH2 0xBC8 DUP6 PUSH2 0x100 ADD MLOAD DUP7 PUSH2 0x120 ADD MLOAD DUP8 PUSH2 0x140 ADD MLOAD PUSH2 0x1B12 JUMP JUMPDEST PUSH1 0x0 SIGNEXTEND DUP2 MSTORE PUSH1 0x20 ADD DUP5 PUSH1 0x0 ADD MLOAD DUP2 MSTORE PUSH1 0x20 ADD PUSH2 0xBF2 DUP6 PUSH1 0x20 ADD MLOAD PUSH1 0x1 PUSH1 0x1 PUSH1 0xA0 SHL SUB AND PUSH1 0x88 PUSH2 0x7EB JUMP JUMPDEST DUP2 MSTORE PUSH1 0x20 ADD PUSH2 0xC0F DUP6 PUSH1 0x40 ADD MLOAD PUSH1 0x1 PUSH1 0x1 PUSH1 0xA0 SHL SUB AND PUSH1 0x88 PUSH2 0x7EB JUMP JUMPDEST DUP2 MSTORE PUSH1 0x20 ADD PUSH2 0xC2C DUP6 PUSH1 0x20 ADD MLOAD PUSH1 0x1 PUSH1 0x1 PUSH1 0xA0 SHL SUB AND PUSH1 0x0 PUSH2 0x7EB JUMP JUMPDEST DUP2 MSTORE PUSH1 0x20 ADD PUSH2 0xC49 DUP6 PUSH1 0x40 ADD MLOAD PUSH1 0x1 PUSH1 0x1 PUSH1 0xA0 SHL SUB AND PUSH1 0x0 PUSH2 0x7EB JUMP JUMPDEST DUP2 MSTORE PUSH1 0x20 ADD PUSH2 0xC7C PUSH2 0xC6E DUP7 PUSH1 0x20 ADD MLOAD PUSH1 0x1 PUSH1 0x1 PUSH1 0xA0 SHL SUB AND PUSH1 0x10 DUP9 PUSH1 0x0 ADD MLOAD PUSH2 0x1B49 JUMP JUMPDEST PUSH1 0x0 PUSH1 0xFF PUSH1 0x10 PUSH2 0x112 PUSH2 0x1B69 JUMP JUMPDEST DUP2 MSTORE PUSH1 0x20 ADD PUSH2 0xCAF PUSH2 0xCA1 DUP7 PUSH1 0x40 ADD MLOAD PUSH1 0x1 PUSH1 0x1 PUSH1 0xA0 SHL SUB AND PUSH1 0x10 DUP9 PUSH1 0x0 ADD MLOAD PUSH2 0x1B49 JUMP JUMPDEST PUSH1 0x0 PUSH1 0xFF PUSH1 0x64 PUSH2 0x1E4 PUSH2 0x1B69 JUMP JUMPDEST DUP2 MSTORE PUSH1 0x20 ADD PUSH2 0xCD4 PUSH2 0xC6E DUP7 PUSH1 0x20 ADD MLOAD PUSH1 0x1 PUSH1 0x1 PUSH1 0xA0 SHL SUB AND PUSH1 0x20 DUP9 PUSH1 0x0 ADD MLOAD PUSH2 0x1B49 JUMP JUMPDEST DUP2 MSTORE PUSH1 0x20 ADD PUSH2 0xCF9 PUSH2 0xCA1 DUP7 PUSH1 0x40 ADD MLOAD PUSH1 0x1 PUSH1 0x1 PUSH1 0xA0 SHL SUB AND PUSH1 0x20 DUP9 PUSH1 0x0 ADD MLOAD PUSH2 0x1B49 JUMP JUMPDEST DUP2 MSTORE PUSH1 0x20 ADD PUSH2 0xD1E PUSH2 0xC6E DUP7 PUSH1 0x20 ADD MLOAD PUSH1 0x1 PUSH1 0x1 PUSH1 0xA0 SHL SUB AND PUSH1 0x30 DUP9 PUSH1 0x0 ADD MLOAD PUSH2 0x1B49 JUMP JUMPDEST DUP2 MSTORE PUSH1 0x20 ADD PUSH2 0xD43 PUSH2 0xCA1 DUP7 PUSH1 0x40 ADD MLOAD PUSH1 0x1 PUSH1 0x1 PUSH1 0xA0 SHL SUB AND PUSH1 0x30 DUP9 PUSH1 0x0 ADD MLOAD PUSH2 0x1B49 JUMP JUMPDEST SWAP1 MSTORE SWAP1 POP PUSH2 0x2EE DUP2 PUSH2 0x1BA7 JUMP JUMPDEST PUSH1 0x40 DUP1 MLOAD PUSH1 0x20 DUP1 DUP3 ADD DUP6 SWAP1 MSTORE PUSH12 0xFFFFFFFFFFFFFFFFFFFFFFFF NOT PUSH1 0x60 DUP6 SWAP1 SHL AND DUP3 DUP5 ADD MSTORE DUP3 MLOAD PUSH1 0x34 DUP2 DUP5 SUB ADD DUP2 MSTORE PUSH1 0x54 SWAP1 SWAP3 ADD SWAP1 SWAP3 MSTORE DUP1 MLOAD SWAP2 ADD KECCAK256 PUSH1 0x0 SWAP1 PUSH2 0xD97 DUP5 PUSH2 0x1E36 JUMP JUMPDEST PUSH1 0x2 MUL PUSH1 0x1 ADD PUSH1 0xFF AND PUSH1 0x0 NOT DUP2 PUSH2 0xDAA JUMPI INVALID JUMPDEST DIV GT SWAP4 SWAP3 POP POP POP JUMP JUMPDEST PUSH1 0x60 PUSH3 0xFFFFFF DUP3 AND PUSH2 0xDF9 JUMPI POP PUSH1 0x40 DUP1 MLOAD DUP1 DUP3 ADD SWAP1 SWAP2 MSTORE PUSH1 0x2 DUP2 MSTORE PUSH32 0x3025000000000000000000000000000000000000000000000000000000000000 PUSH1 0x20 DUP3 ADD MSTORE PUSH2 0x222 JUMP JUMPDEST DUP2 PUSH1 0x0 DUP1 JUMPDEST PUSH3 0xFFFFFF DUP4 AND ISZERO PUSH2 0xE49 JUMPI PUSH1 0xFF DUP2 AND ISZERO PUSH2 0xE1A JUMPI PUSH1 0x1 ADD PUSH2 0xE33 JUMP JUMPDEST PUSH1 0xA PUSH3 0xFFFFFF DUP5 AND MOD PUSH3 0xFFFFFF AND PUSH1 0x0 EQ PUSH2 0xE33 JUMPI PUSH1 0x1 ADD JUMPDEST PUSH1 0x1 SWAP1 SWAP2 ADD SWAP1 PUSH1 0xA PUSH3 0xFFFFFF DUP5 AND DIV SWAP3 POP PUSH2 0xDFE JUMP JUMPDEST PUSH2 0xE51 PUSH2 0x3D9A JUMP JUMPDEST PUSH1 0x0 PUSH1 0x5 DUP5 LT PUSH2 0xF40 JUMPI PUSH1 0x0 PUSH1 0x4 PUSH2 0xE6C DUP7 PUSH1 0xFF DUP8 AND PUSH2 0x182F JUMP JUMPDEST LT ISZERO PUSH2 0xE79 JUMPI PUSH1 0x1 PUSH2 0xE7C JUMP JUMPDEST PUSH1 0x0 JUMPDEST PUSH1 0xFF SWAP1 DUP2 AND SWAP2 POP PUSH2 0xE90 SWAP1 DUP6 AND PUSH1 0x1 PUSH2 0x182F JUMP JUMPDEST PUSH2 0xE9B DUP7 PUSH1 0x5 PUSH2 0x182F JUMP JUMPDEST LT PUSH2 0xEC7 JUMPI PUSH2 0xEC2 PUSH2 0xEB1 PUSH1 0xFF DUP7 AND PUSH1 0x1 PUSH2 0x182F JUMP JUMPDEST PUSH2 0xEBC DUP8 PUSH1 0x5 PUSH2 0x182F JUMP JUMPDEST SWAP1 PUSH2 0x182F JUMP JUMPDEST PUSH2 0xECA JUMP JUMPDEST PUSH1 0x0 JUMPDEST PUSH1 0xFF DUP6 AND PUSH1 0x80 DUP6 ADD DUP2 SWAP1 MSTORE SWAP1 SWAP3 POP PUSH2 0xEE9 SWAP1 PUSH1 0x1 SWAP1 PUSH2 0xEBC SWAP1 DUP6 PUSH2 0x188C JUMP JUMPDEST PUSH1 0xFF SWAP1 DUP2 AND PUSH1 0xA0 DUP6 ADD MSTORE PUSH1 0x80 DUP5 ADD MLOAD PUSH2 0xF0A SWAP2 DUP4 SWAP2 PUSH2 0xA3E SWAP2 AND PUSH1 0x1 PUSH2 0x182F JUMP JUMPDEST PUSH1 0xFF SWAP1 DUP2 AND PUSH1 0x40 DUP6 ADD MSTORE PUSH2 0xF32 SWAP1 DUP3 SWAP1 PUSH2 0xA3E SWAP1 PUSH2 0xF2B SWAP1 DUP9 AND PUSH1 0x1 PUSH2 0x188C JUMP JUMPDEST DUP6 SWAP1 PUSH2 0x188C JUMP JUMPDEST PUSH1 0xFF AND PUSH1 0x20 DUP5 ADD MSTORE POP PUSH2 0xFB0 JUMP JUMPDEST PUSH2 0xF4B PUSH1 0x5 DUP6 PUSH2 0x182F JUMP JUMPDEST PUSH1 0x2 PUSH1 0x80 DUP5 ADD DUP2 SWAP1 MSTORE SWAP1 SWAP2 POP PUSH2 0xF69 SWAP1 PUSH1 0x1 SWAP1 PUSH2 0xEBC SWAP1 DUP5 SWAP1 PUSH2 0x188C JUMP JUMPDEST PUSH1 0xFF SWAP1 DUP2 AND PUSH1 0xA0 DUP5 ADD MSTORE PUSH2 0xF8B SWAP1 PUSH2 0xF84 SWAP1 DUP6 AND PUSH1 0x2 PUSH2 0x188C JUMP JUMPDEST DUP3 SWAP1 PUSH2 0x188C JUMP JUMPDEST PUSH1 0xFF AND PUSH1 0x20 DUP4 ADD DUP2 SWAP1 MSTORE PUSH2 0xFA0 SWAP1 PUSH1 0x2 PUSH2 0x182F JUMP JUMPDEST PUSH1 0xFF AND PUSH1 0x40 DUP4 ADD MSTORE PUSH1 0x1 PUSH1 0xC0 DUP4 ADD MSTORE JUMPDEST PUSH2 0xFCF PUSH2 0xFC0 DUP6 PUSH1 0xFF DUP7 AND PUSH2 0x182F JUMP JUMPDEST PUSH3 0xFFFFFF DUP10 AND SWAP1 PUSH1 0xA EXP PUSH2 0x15AB JUMP JUMPDEST DUP3 MSTORE PUSH1 0x1 PUSH1 0xE0 DUP4 ADD MSTORE PUSH1 0x4 DUP5 GT PUSH2 0xFE7 JUMPI PUSH1 0x0 PUSH2 0xFF2 JUMP JUMPDEST PUSH2 0xFF2 DUP5 PUSH1 0x4 PUSH2 0x182F JUMP JUMPDEST PUSH1 0xFF AND PUSH1 0x60 DUP4 ADD MSTORE PUSH2 0x1003 DUP3 PUSH2 0x18E6 JUMP JUMPDEST SWAP8 SWAP7 POP POP POP POP POP POP POP JUMP JUMPDEST PUSH1 0x60 PUSH1 0x0 DUP3 PUSH1 0x2 MUL PUSH8 0xFFFFFFFFFFFFFFFF DUP2 GT DUP1 ISZERO PUSH2 0x102C JUMPI PUSH1 0x0 DUP1 REVERT JUMPDEST POP PUSH1 0x40 MLOAD SWAP1 DUP1 DUP3 MSTORE DUP1 PUSH1 0x1F ADD PUSH1 0x1F NOT AND PUSH1 0x20 ADD DUP3 ADD PUSH1 0x40 MSTORE DUP1 ISZERO PUSH2 0x1057 JUMPI PUSH1 0x20 DUP3 ADD DUP2 DUP1 CALLDATASIZE DUP4 CALLDATACOPY ADD SWAP1 POP JUMPDEST POP DUP1 MLOAD SWAP1 SWAP2 POP JUMPDEST DUP1 ISZERO PUSH2 0x10CD JUMPI PUSH32 0x3031323334353637383961626364656600000000000000000000000000000000 DUP6 PUSH1 0xF AND PUSH1 0x10 DUP2 LT PUSH2 0x1093 JUMPI INVALID JUMPDEST BYTE PUSH1 0xF8 SHL DUP3 PUSH1 0x1 DUP4 SUB DUP2 MLOAD DUP2 LT PUSH2 0x10A6 JUMPI INVALID JUMPDEST PUSH1 0x20 ADD ADD SWAP1 PUSH1 0x1 PUSH1 0x1 PUSH1 0xF8 SHL SUB NOT AND SWAP1 DUP2 PUSH1 0x0 BYTE SWAP1 MSTORE8 POP PUSH1 0x4 SWAP5 SWAP1 SWAP5 SHR SWAP4 PUSH1 0x0 NOT ADD PUSH2 0x105E JUMP JUMPDEST POP SWAP4 SWAP3 POP POP POP JUMP JUMPDEST PUSH1 0x60 PUSH1 0x0 DUP3 PUSH1 0x2 MUL PUSH1 0x2 ADD PUSH8 0xFFFFFFFFFFFFFFFF DUP2 GT DUP1 ISZERO PUSH2 0x10F6 JUMPI PUSH1 0x0 DUP1 REVERT JUMPDEST POP PUSH1 0x40 MLOAD SWAP1 DUP1 DUP3 MSTORE DUP1 PUSH1 0x1F ADD PUSH1 0x1F NOT AND PUSH1 0x20 ADD DUP3 ADD PUSH1 0x40 MSTORE DUP1 ISZERO PUSH2 0x1121 JUMPI PUSH1 0x20 DUP3 ADD DUP2 DUP1 CALLDATASIZE DUP4 CALLDATACOPY ADD SWAP1 POP JUMPDEST POP SWAP1 POP PUSH1 0x3 PUSH1 0xFC SHL DUP2 PUSH1 0x0 DUP2 MLOAD DUP2 LT PUSH2 0x1136 JUMPI INVALID JUMPDEST PUSH1 0x20 ADD ADD SWAP1 PUSH1 0x1 PUSH1 0x1 PUSH1 0xF8 SHL SUB NOT AND SWAP1 DUP2 PUSH1 0x0 BYTE SWAP1 MSTORE8 POP PUSH32 0x7800000000000000000000000000000000000000000000000000000000000000 DUP2 PUSH1 0x1 DUP2 MLOAD DUP2 LT PUSH2 0x117B JUMPI INVALID JUMPDEST PUSH1 0x20 ADD ADD SWAP1 PUSH1 0x1 PUSH1 0x1 PUSH1 0xF8 SHL SUB NOT AND SWAP1 DUP2 PUSH1 0x0 BYTE SWAP1 MSTORE8 POP PUSH1 0x1 PUSH1 0x2 DUP5 MUL ADD JUMPDEST PUSH1 0x1 DUP2 GT ISZERO PUSH2 0x1209 JUMPI PUSH32 0x3031323334353637383961626364656600000000000000000000000000000000 DUP6 PUSH1 0xF AND PUSH1 0x10 DUP2 LT PUSH2 0x11D2 JUMPI INVALID JUMPDEST BYTE PUSH1 0xF8 SHL DUP3 DUP3 DUP2 MLOAD DUP2 LT PUSH2 0x11E2 JUMPI INVALID JUMPDEST PUSH1 0x20 ADD ADD SWAP1 PUSH1 0x1 PUSH1 0x1 PUSH1 0xF8 SHL SUB NOT AND SWAP1 DUP2 PUSH1 0x0 BYTE SWAP1 MSTORE8 POP PUSH1 0x4 SWAP5 SWAP1 SWAP5 SHR SWAP4 PUSH1 0x0 NOT ADD PUSH2 0x119A JUMP JUMPDEST POP DUP4 ISZERO PUSH2 0x20B JUMPI PUSH1 0x40 DUP1 MLOAD PUSH3 0x461BCD PUSH1 0xE5 SHL DUP2 MSTORE PUSH1 0x20 PUSH1 0x4 DUP3 ADD DUP2 SWAP1 MSTORE PUSH1 0x24 DUP3 ADD MSTORE PUSH32 0x537472696E67733A20686578206C656E67746820696E73756666696369656E74 PUSH1 0x44 DUP3 ADD MSTORE SWAP1 MLOAD SWAP1 DUP2 SWAP1 SUB PUSH1 0x64 ADD SWAP1 REVERT JUMPDEST PUSH1 0x0 DUP1 PUSH1 0x0 DUP4 PUSH1 0x2 SIGNEXTEND SLT PUSH2 0x1274 JUMPI DUP3 PUSH1 0x2 SIGNEXTEND PUSH2 0x127C JUMP JUMPDEST DUP3 PUSH1 0x2 SIGNEXTEND PUSH1 0x0 SUB JUMPDEST SWAP1 POP PUSH3 0xD89E8 DUP2 GT ISZERO PUSH2 0x12D6 JUMPI PUSH1 0x40 DUP1 MLOAD PUSH3 0x461BCD PUSH1 0xE5 SHL DUP2 MSTORE PUSH1 0x20 PUSH1 0x4 DUP3 ADD MSTORE PUSH1 0x1 PUSH1 0x24 DUP3 ADD MSTORE PUSH32 0x5400000000000000000000000000000000000000000000000000000000000000 PUSH1 0x44 DUP3 ADD MSTORE SWAP1 MLOAD SWAP1 DUP2 SWAP1 SUB PUSH1 0x64 ADD SWAP1 REVERT JUMPDEST PUSH1 0x0 PUSH1 0x1 DUP3 AND PUSH2 0x12EA JUMPI PUSH1 0x1 PUSH1 0x80 SHL PUSH2 0x12FC JUMP JUMPDEST PUSH16 0xFFFCB933BD6FAD37AA2D162D1A594001 JUMPDEST PUSH17 0xFFFFFFFFFFFFFFFFFFFFFFFFFFFFFFFFFF AND SWAP1 POP PUSH1 0x2 DUP3 AND ISZERO PUSH2 0x1330 JUMPI PUSH16 0xFFF97272373D413259A46990580E213A MUL PUSH1 0x80 SHR JUMPDEST PUSH1 0x4 DUP3 AND ISZERO PUSH2 0x134F JUMPI PUSH16 0xFFF2E50F5F656932EF12357CF3C7FDCC MUL PUSH1 0x80 SHR JUMPDEST PUSH1 0x8 DUP3 AND ISZERO PUSH2 0x136E JUMPI PUSH16 0xFFE5CACA7E10E4E61C3624EAA0941CD0 MUL PUSH1 0x80 SHR JUMPDEST PUSH1 0x10 DUP3 AND ISZERO PUSH2 0x138D JUMPI PUSH16 0xFFCB9843D60F6159C9DB58835C926644 MUL PUSH1 0x80 SHR JUMPDEST PUSH1 0x20 DUP3 AND ISZERO PUSH2 0x13AC JUMPI PUSH16 0xFF973B41FA98C081472E6896DFB254C0 MUL PUSH1 0x80 SHR JUMPDEST PUSH1 0x40 DUP3 AND ISZERO PUSH2 0x13CB JUMPI PUSH16 0xFF2EA16466C96A3843EC78B326B52861 MUL PUSH1 0x80 SHR JUMPDEST PUSH1 0x80 DUP3 AND ISZERO PUSH2 0x13EA JUMPI PUSH16 0xFE5DEE046A99A2A811C461F1969C3053 MUL PUSH1 0x80 SHR JUMPDEST PUSH2 0x100 DUP3 AND ISZERO PUSH2 0x140A JUMPI PUSH16 0xFCBE86C7900A88AEDCFFC83B479AA3A4 MUL PUSH1 0x80 SHR JUMPDEST PUSH2 0x200 DUP3 AND ISZERO PUSH2 0x142A JUMPI PUSH16 0xF987A7253AC413176F2B074CF7815E54 MUL PUSH1 0x80 SHR JUMPDEST PUSH2 0x400 DUP3 AND ISZERO PUSH2 0x144A JUMPI PUSH16 0xF3392B0822B70005940C7A398E4B70F3 MUL PUSH1 0x80 SHR JUMPDEST PUSH2 0x800 DUP3 AND ISZERO PUSH2 0x146A JUMPI PUSH16 0xE7159475A2C29B7443B29C7FA6E889D9 MUL PUSH1 0x80 SHR JUMPDEST PUSH2 0x1000 DUP3 AND ISZERO PUSH2 0x148A JUMPI PUSH16 0xD097F3BDFD2022B8845AD8F792AA5825 MUL PUSH1 0x80 SHR JUMPDEST PUSH2 0x2000 DUP3 AND ISZERO PUSH2 0x14AA JUMPI PUSH16 0xA9F746462D870FDF8A65DC1F90E061E5 MUL PUSH1 0x80 SHR JUMPDEST PUSH2 0x4000 DUP3 AND ISZERO PUSH2 0x14CA JUMPI PUSH16 0x70D869A156D2A1B890BB3DF62BAF32F7 MUL PUSH1 0x80 SHR JUMPDEST PUSH2 0x8000 DUP3 AND ISZERO PUSH2 0x14EA JUMPI PUSH16 0x31BE135F97D08FD981231505542FCFA6 MUL PUSH1 0x80 SHR JUMPDEST PUSH3 0x10000 DUP3 AND ISZERO PUSH2 0x150B JUMPI PUSH16 0x9AA508B5B7A84E1C677DE54F3E99BC9 MUL PUSH1 0x80 SHR JUMPDEST PUSH3 0x20000 DUP3 AND ISZERO PUSH2 0x152B JUMPI PUSH15 0x5D6AF8DEDB81196699C329225EE604 MUL PUSH1 0x80 SHR JUMPDEST PUSH3 0x40000 DUP3 AND ISZERO PUSH2 0x154A JUMPI PUSH14 0x2216E584F5FA1EA926041BEDFE98 MUL PUSH1 0x80 SHR JUMPDEST PUSH3 0x80000 DUP3 AND ISZERO PUSH2 0x1567 JUMPI PUSH12 0x48A170391F7DC42444E8FA2 MUL PUSH1 0x80 SHR JUMPDEST PUSH1 0x0 DUP5 PUSH1 0x2 SIGNEXTEND SGT ISZERO PUSH2 0x1582 JUMPI DUP1 PUSH1 0x0 NOT DUP2 PUSH2 0x157E JUMPI INVALID JUMPDEST DIV SWAP1 POP JUMPDEST PUSH5 0x100000000 DUP2 MOD ISZERO PUSH2 0x1596 JUMPI PUSH1 0x1 PUSH2 0x1599 JUMP JUMPDEST PUSH1 0x0 JUMPDEST PUSH1 0xFF AND PUSH1 0x20 DUP3 SWAP1 SHR ADD SWAP3 POP POP POP SWAP2 SWAP1 POP JUMP JUMPDEST PUSH1 0x0 DUP1 DUP3 GT PUSH2 0x1601 JUMPI PUSH1 0x40 DUP1 MLOAD PUSH3 0x461BCD PUSH1 0xE5 SHL DUP2 MSTORE PUSH1 0x20 PUSH1 0x4 DUP3 ADD MSTORE PUSH1 0x1A PUSH1 0x24 DUP3 ADD MSTORE PUSH32 0x536166654D6174683A206469766973696F6E206279207A65726F000000000000 PUSH1 0x44 DUP3 ADD MSTORE SWAP1 MLOAD SWAP1 DUP2 SWAP1 SUB PUSH1 0x64 ADD SWAP1 REVERT JUMPDEST DUP2 DUP4 DUP2 PUSH2 0x160A JUMPI INVALID JUMPDEST DIV SWAP4 SWAP3 POP POP POP JUMP JUMPDEST PUSH1 0x0 DUP1 PUSH2 0x162D PUSH2 0x1628 PUSH1 0xFF DUP7 DUP2 AND SWAP1 DUP7 AND PUSH2 0x1ED6 JUMP JUMPDEST PUSH2 0x1F3B JUMP JUMPDEST SWAP1 POP PUSH1 0x0 DUP2 GT DUP1 ISZERO PUSH2 0x1640 JUMPI POP PUSH1 0x12 DUP2 GT ISZERO JUMPDEST ISZERO PUSH2 0x1701 JUMPI DUP3 PUSH1 0xFF AND DUP5 PUSH1 0xFF AND GT ISZERO PUSH2 0x16AA JUMPI PUSH2 0x1674 PUSH2 0x1661 DUP3 PUSH1 0x2 PUSH2 0x15AB JUMP JUMPDEST PUSH1 0x1 PUSH1 0x1 PUSH1 0xA0 SHL SUB DUP8 AND SWAP1 PUSH1 0xA EXP PUSH2 0x1F52 JUMP JUMPDEST SWAP2 POP PUSH1 0x2 DUP2 MOD PUSH1 0x1 EQ ISZERO PUSH2 0x16A5 JUMPI PUSH2 0x16A2 DUP3 PUSH17 0x3298B075B4B6A5240945790619B37FD4A PUSH1 0x1 PUSH1 0x80 SHL PUSH2 0x1714 JUMP JUMPDEST SWAP2 POP JUMPDEST PUSH2 0x16FC JUMP JUMPDEST PUSH2 0x16CB PUSH2 0x16B8 DUP3 PUSH1 0x2 PUSH2 0x15AB JUMP JUMPDEST PUSH1 0x1 PUSH1 0x1 PUSH1 0xA0 SHL SUB DUP8 AND SWAP1 PUSH1 0xA EXP PUSH2 0x15AB JUMP JUMPDEST SWAP2 POP PUSH1 0x2 DUP2 MOD PUSH1 0x1 EQ ISZERO PUSH2 0x16FC JUMPI PUSH2 0x16F9 DUP3 PUSH1 0x1 PUSH1 0x80 SHL PUSH17 0x3298B075B4B6A5240945790619B37FD4A PUSH2 0x1714 JUMP JUMPDEST SWAP2 POP JUMPDEST PUSH2 0x10CD JUMP JUMPDEST POP POP PUSH1 0x1 PUSH1 0x1 PUSH1 0xA0 SHL SUB SWAP1 SWAP3 AND SWAP3 SWAP2 POP POP JUMP JUMPDEST PUSH1 0x0 DUP1 DUP1 PUSH1 0x0 NOT DUP6 DUP8 MULMOD DUP7 DUP7 MUL SWAP3 POP DUP3 DUP2 LT SWAP1 DUP4 SWAP1 SUB SUB SWAP1 POP DUP1 PUSH2 0x174A JUMPI PUSH1 0x0 DUP5 GT PUSH2 0x173F JUMPI PUSH1 0x0 DUP1 REVERT JUMPDEST POP DUP3 SWAP1 DIV SWAP1 POP PUSH2 0x2EE JUMP JUMPDEST DUP1 DUP5 GT PUSH2 0x1756 JUMPI PUSH1 0x0 DUP1 REVERT JUMPDEST PUSH1 0x0 DUP5 DUP7 DUP9 MULMOD PUSH1 0x0 DUP7 DUP2 SUB DUP8 AND SWAP7 DUP8 SWAP1 DIV SWAP7 PUSH1 0x2 PUSH1 0x3 DUP10 MUL DUP2 XOR DUP1 DUP11 MUL DUP3 SUB MUL DUP1 DUP11 MUL DUP3 SUB MUL DUP1 DUP11 MUL DUP3 SUB MUL DUP1 DUP11 MUL DUP3 SUB MUL DUP1 DUP11 MUL DUP3 SUB MUL DUP1 DUP11 MUL SWAP1 SWAP2 SUB MUL SWAP2 DUP2 SWAP1 SUB DUP2 SWAP1 DIV PUSH1 0x1 ADD DUP7 DUP5 GT SWAP1 SWAP6 SUB SWAP5 SWAP1 SWAP5 MUL SWAP2 SWAP1 SWAP5 SUB SWAP3 SWAP1 SWAP3 DIV SWAP2 SWAP1 SWAP2 OR SWAP2 SWAP1 SWAP2 MUL SWAP2 POP POP SWAP4 SWAP3 POP POP POP JUMP JUMPDEST PUSH1 0x0 DUP1 PUSH1 0x0 PUSH1 0x5 DUP5 PUSH1 0xFF AND GT ISZERO PUSH2 0x17EB JUMPI PUSH2 0x17E8 DUP6 PUSH1 0xFF PUSH1 0x4 NOT DUP8 ADD AND PUSH1 0xA EXP PUSH2 0x15AB JUMP JUMPDEST SWAP5 POP JUMPDEST PUSH1 0x0 PUSH1 0x4 PUSH1 0xA DUP8 MOD GT SWAP1 POP PUSH2 0x1801 DUP7 PUSH1 0xA PUSH2 0x15AB JUMP JUMPDEST SWAP6 POP DUP1 ISZERO PUSH2 0x1810 JUMPI DUP6 PUSH1 0x1 ADD SWAP6 POP JUMPDEST DUP6 PUSH3 0x186A0 EQ ISZERO PUSH2 0x1826 JUMPI PUSH1 0xA DUP7 DIV SWAP6 POP PUSH1 0x1 SWAP2 POP JUMPDEST POP SWAP4 SWAP5 SWAP3 POP POP POP JUMP JUMPDEST PUSH1 0x0 DUP3 DUP3 GT ISZERO PUSH2 0x1886 JUMPI PUSH1 0x40 DUP1 MLOAD PUSH3 0x461BCD PUSH1 0xE5 SHL DUP2 MSTORE PUSH1 0x20 PUSH1 0x4 DUP3 ADD MSTORE PUSH1 0x1E PUSH1 0x24 DUP3 ADD MSTORE PUSH32 0x536166654D6174683A207375627472616374696F6E206F766572666C6F770000 PUSH1 0x44 DUP3 ADD MSTORE SWAP1 MLOAD SWAP1 DUP2 SWAP1 SUB PUSH1 0x64 ADD SWAP1 REVERT JUMPDEST POP SWAP1 SUB SWAP1 JUMP JUMPDEST PUSH1 0x0 DUP3 DUP3 ADD DUP4 DUP2 LT ISZERO PUSH2 0x20B JUMPI PUSH1 0x40 DUP1 MLOAD PUSH3 0x461BCD PUSH1 0xE5 SHL DUP2 MSTORE PUSH1 0x20 PUSH1 0x4 DUP3 ADD MSTORE PUSH1 0x1B PUSH1 0x24 DUP3 ADD MSTORE PUSH32 0x536166654D6174683A206164646974696F6E206F766572666C6F770000000000 PUSH1 0x44 DUP3 ADD MSTORE SWAP1 MLOAD SWAP1 DUP2 SWAP1 SUB PUSH1 0x64 ADD SWAP1 REVERT JUMPDEST PUSH1 0x60 PUSH1 0x0 DUP3 PUSH1 0x20 ADD MLOAD PUSH1 0xFF AND PUSH8 0xFFFFFFFFFFFFFFFF DUP2 GT DUP1 ISZERO PUSH2 0x1908 JUMPI PUSH1 0x0 DUP1 REVERT JUMPDEST POP PUSH1 0x40 MLOAD SWAP1 DUP1 DUP3 MSTORE DUP1 PUSH1 0x1F ADD PUSH1 0x1F NOT AND PUSH1 0x20 ADD DUP3 ADD PUSH1 0x40 MSTORE DUP1 ISZERO PUSH2 0x1933 JUMPI PUSH1 0x20 DUP3 ADD DUP2 DUP1 CALLDATASIZE DUP4 CALLDATACOPY ADD SWAP1 POP JUMPDEST POP SWAP1 POP DUP3 PUSH1 0xE0 ADD MLOAD ISZERO PUSH2 0x1989 JUMPI PUSH32 0x2500000000000000000000000000000000000000000000000000000000000000 DUP2 PUSH1 0x1 DUP4 MLOAD SUB DUP2 MLOAD DUP2 LT PUSH2 0x1971 JUMPI INVALID JUMPDEST PUSH1 0x20 ADD ADD SWAP1 PUSH1 0x1 PUSH1 0x1 PUSH1 0xF8 SHL SUB NOT AND SWAP1 DUP2 PUSH1 0x0 BYTE SWAP1 MSTORE8 POP JUMPDEST DUP3 PUSH1 0xC0 ADD MLOAD ISZERO PUSH2 0x19E6 JUMPI PUSH1 0x3 PUSH1 0xFC SHL DUP2 PUSH1 0x0 DUP2 MLOAD DUP2 LT PUSH2 0x19A5 JUMPI INVALID JUMPDEST PUSH1 0x20 ADD ADD SWAP1 PUSH1 0x1 PUSH1 0x1 PUSH1 0xF8 SHL SUB NOT AND SWAP1 DUP2 PUSH1 0x0 BYTE SWAP1 MSTORE8 POP PUSH1 0x17 PUSH1 0xF9 SHL DUP2 PUSH1 0x1 DUP2 MLOAD DUP2 LT PUSH2 0x19CE JUMPI INVALID JUMPDEST PUSH1 0x20 ADD ADD SWAP1 PUSH1 0x1 PUSH1 0x1 PUSH1 0xF8 SHL SUB NOT AND SWAP1 DUP2 PUSH1 0x0 BYTE SWAP1 MSTORE8 POP JUMPDEST PUSH1 0x80 DUP4 ADD MLOAD PUSH1 0xFF AND JUMPDEST PUSH1 0xA0 DUP5 ADD MLOAD PUSH2 0x1A02 SWAP1 PUSH1 0xFF AND PUSH1 0x1 PUSH2 0x188C JUMP JUMPDEST DUP2 LT ISZERO PUSH2 0x1A39 JUMPI PUSH1 0x30 PUSH1 0xF8 SHL DUP3 DUP3 DUP2 MLOAD DUP2 LT PUSH2 0x1A1A JUMPI INVALID JUMPDEST PUSH1 0x20 ADD ADD SWAP1 PUSH1 0x1 PUSH1 0x1 PUSH1 0xF8 SHL SUB NOT AND SWAP1 DUP2 PUSH1 0x0 BYTE SWAP1 MSTORE8 POP PUSH1 0x1 ADD PUSH2 0x19EF JUMP JUMPDEST POP JUMPDEST DUP3 MLOAD ISZERO PUSH2 0x21F JUMPI PUSH1 0x0 DUP4 PUSH1 0x60 ADD MLOAD PUSH1 0xFF AND GT DUP1 ISZERO PUSH2 0x1A66 JUMPI POP DUP3 PUSH1 0x60 ADD MLOAD PUSH1 0xFF AND DUP4 PUSH1 0x40 ADD MLOAD PUSH1 0xFF AND EQ JUMPDEST ISZERO PUSH2 0x1AA9 JUMPI PUSH1 0x40 DUP4 ADD DUP1 MLOAD PUSH1 0xFF PUSH1 0x0 NOT DUP3 ADD DUP2 AND SWAP1 SWAP3 MSTORE DUP3 MLOAD PUSH1 0x17 PUSH1 0xF9 SHL SWAP3 DUP5 SWAP3 AND SWAP1 DUP2 LT PUSH2 0x1A91 JUMPI INVALID JUMPDEST PUSH1 0x20 ADD ADD SWAP1 PUSH1 0x1 PUSH1 0x1 PUSH1 0xF8 SHL SUB NOT AND SWAP1 DUP2 PUSH1 0x0 BYTE SWAP1 MSTORE8 POP JUMPDEST DUP3 MLOAD PUSH2 0x1ABB SWAP1 PUSH1 0x30 SWAP1 PUSH1 0xA SWAP1 MOD PUSH2 0x188C JUMP JUMPDEST PUSH1 0xF8 SHL DUP2 DUP5 PUSH1 0x40 ADD DUP1 MLOAD DUP1 SWAP2 SWAP1 PUSH1 0x1 SWAP1 SUB PUSH1 0xFF AND PUSH1 0xFF AND DUP2 MSTORE POP PUSH1 0xFF AND DUP2 MLOAD DUP2 LT PUSH2 0x1AE2 JUMPI INVALID JUMPDEST PUSH1 0x20 ADD ADD SWAP1 PUSH1 0x1 PUSH1 0x1 PUSH1 0xF8 SHL SUB NOT AND SWAP1 DUP2 PUSH1 0x0 BYTE SWAP1 MSTORE8 POP PUSH1 0xA DUP4 PUSH1 0x0 ADD DUP2 DUP2 MLOAD DUP2 PUSH2 0x1B09 JUMPI INVALID JUMPDEST DIV SWAP1 MSTORE POP PUSH2 0x1A3B JUMP JUMPDEST PUSH1 0x0 DUP4 PUSH1 0x2 SIGNEXTEND DUP3 PUSH1 0x2 SIGNEXTEND SLT ISZERO PUSH2 0x1B2B JUMPI POP PUSH1 0x0 NOT PUSH2 0x2EE JUMP JUMPDEST DUP3 PUSH1 0x2 SIGNEXTEND DUP3 PUSH1 0x2 SIGNEXTEND SGT ISZERO PUSH2 0x1B41 JUMPI POP PUSH1 0x1 PUSH2 0x2EE JUMP JUMPDEST POP PUSH1 0x0 PUSH2 0x2EE JUMP JUMPDEST PUSH1 0x0 PUSH1 0xFF DUP3 PUSH2 0x1B58 DUP7 DUP7 PUSH2 0xB0E JUMP JUMPDEST MUL DUP2 PUSH2 0x1B60 JUMPI INVALID JUMPDEST MOD SWAP5 SWAP4 POP POP POP POP JUMP JUMPDEST PUSH1 0x60 PUSH2 0x2D2 PUSH2 0x1BA2 DUP5 PUSH2 0xA3E PUSH2 0x1B7F DUP9 DUP11 PUSH2 0x182F JUMP JUMPDEST PUSH2 0x1B9C PUSH2 0x1B8C DUP9 DUP11 PUSH2 0x182F JUMP JUMPDEST PUSH2 0x1B96 DUP14 DUP14 PUSH2 0x182F JUMP JUMPDEST SWAP1 PUSH2 0x1F52 JUMP JUMPDEST SWAP1 PUSH2 0x15AB JUMP JUMPDEST PUSH2 0x1FAB JUMP JUMPDEST PUSH1 0x60 PUSH2 0x1BB2 DUP3 PUSH2 0x2086 JUMP JUMPDEST PUSH2 0x1BCE DUP4 PUSH1 0x0 ADD MLOAD DUP5 PUSH1 0x20 ADD MLOAD DUP6 PUSH1 0x60 ADD MLOAD DUP7 PUSH1 0x80 ADD MLOAD PUSH2 0x273A JUMP JUMPDEST PUSH2 0x1BE5 DUP5 PUSH1 0x60 ADD MLOAD DUP6 PUSH1 0x80 ADD MLOAD DUP7 PUSH1 0xA0 ADD MLOAD PUSH2 0x2A65 JUMP JUMPDEST PUSH2 0x1C03 DUP6 PUSH1 0xC0 ADD MLOAD DUP7 PUSH1 0xE0 ADD MLOAD DUP8 PUSH2 0x100 ADD MLOAD DUP9 PUSH2 0x120 ADD MLOAD PUSH2 0x2BD1 JUMP JUMPDEST PUSH2 0x1C23 PUSH2 0x1C14 DUP8 PUSH2 0x140 ADD MLOAD PUSH2 0x1FAB JUMP JUMPDEST DUP8 PUSH1 0xC0 ADD MLOAD DUP9 PUSH1 0xE0 ADD MLOAD PUSH2 0x2F24 JUMP JUMPDEST PUSH2 0x1C36 DUP8 PUSH2 0x140 ADD MLOAD DUP9 PUSH1 0x40 ADD MLOAD PUSH2 0x3355 JUMP JUMPDEST PUSH1 0x40 MLOAD PUSH1 0x20 ADD DUP1 DUP8 DUP1 MLOAD SWAP1 PUSH1 0x20 ADD SWAP1 DUP1 DUP4 DUP4 JUMPDEST PUSH1 0x20 DUP4 LT PUSH2 0x1C68 JUMPI DUP1 MLOAD DUP3 MSTORE PUSH1 0x1F NOT SWAP1 SWAP3 ADD SWAP2 PUSH1 0x20 SWAP2 DUP3 ADD SWAP2 ADD PUSH2 0x1C49 JUMP JUMPDEST MLOAD DUP2 MLOAD PUSH1 0x20 SWAP4 DUP5 SUB PUSH2 0x100 EXP PUSH1 0x0 NOT ADD DUP1 NOT SWAP1 SWAP3 AND SWAP2 AND OR SWAP1 MSTORE DUP10 MLOAD SWAP2 SWAP1 SWAP4 ADD SWAP3 DUP10 ADD SWAP2 POP DUP1 DUP4 DUP4 JUMPDEST PUSH1 0x20 DUP4 LT PUSH2 0x1CB0 JUMPI DUP1 MLOAD DUP3 MSTORE PUSH1 0x1F NOT SWAP1 SWAP3 ADD SWAP2 PUSH1 0x20 SWAP2 DUP3 ADD SWAP2 ADD PUSH2 0x1C91 JUMP JUMPDEST MLOAD DUP2 MLOAD PUSH1 0x20 SWAP4 DUP5 SUB PUSH2 0x100 EXP PUSH1 0x0 NOT ADD DUP1 NOT SWAP1 SWAP3 AND SWAP2 AND OR SWAP1 MSTORE DUP9 MLOAD SWAP2 SWAP1 SWAP4 ADD SWAP3 DUP9 ADD SWAP2 POP DUP1 DUP4 DUP4 JUMPDEST PUSH1 0x20 DUP4 LT PUSH2 0x1CF8 JUMPI DUP1 MLOAD DUP3 MSTORE PUSH1 0x1F NOT SWAP1 SWAP3 ADD SWAP2 PUSH1 0x20 SWAP2 DUP3 ADD SWAP2 ADD PUSH2 0x1CD9 JUMP JUMPDEST MLOAD DUP2 MLOAD PUSH1 0x20 SWAP4 DUP5 SUB PUSH2 0x100 EXP PUSH1 0x0 NOT ADD DUP1 NOT SWAP1 SWAP3 AND SWAP2 AND OR SWAP1 MSTORE DUP8 MLOAD SWAP2 SWAP1 SWAP4 ADD SWAP3 DUP8 ADD SWAP2 POP DUP1 DUP4 DUP4 JUMPDEST PUSH1 0x20 DUP4 LT PUSH2 0x1D40 JUMPI DUP1 MLOAD DUP3 MSTORE PUSH1 0x1F NOT SWAP1 SWAP3 ADD SWAP2 PUSH1 0x20 SWAP2 DUP3 ADD SWAP2 ADD PUSH2 0x1D21 JUMP JUMPDEST MLOAD DUP2 MLOAD PUSH1 0x20 SWAP4 DUP5 SUB PUSH2 0x100 EXP PUSH1 0x0 NOT ADD DUP1 NOT SWAP1 SWAP3 AND SWAP2 AND OR SWAP1 MSTORE DUP7 MLOAD SWAP2 SWAP1 SWAP4 ADD SWAP3 DUP7 ADD SWAP2 POP DUP1 DUP4 DUP4 JUMPDEST PUSH1 0x20 DUP4 LT PUSH2 0x1D88 JUMPI DUP1 MLOAD DUP3 MSTORE PUSH1 0x1F NOT SWAP1 SWAP3 ADD SWAP2 PUSH1 0x20 SWAP2 DUP3 ADD SWAP2 ADD PUSH2 0x1D69 JUMP JUMPDEST MLOAD DUP2 MLOAD PUSH1 0x20 SWAP4 DUP5 SUB PUSH2 0x100 EXP PUSH1 0x0 NOT ADD DUP1 NOT SWAP1 SWAP3 AND SWAP2 AND OR SWAP1 MSTORE DUP6 MLOAD SWAP2 SWAP1 SWAP4 ADD SWAP3 DUP6 ADD SWAP2 POP DUP1 DUP4 DUP4 JUMPDEST PUSH1 0x20 DUP4 LT PUSH2 0x1DD0 JUMPI DUP1 MLOAD DUP3 MSTORE PUSH1 0x1F NOT SWAP1 SWAP3 ADD SWAP2 PUSH1 0x20 SWAP2 DUP3 ADD SWAP2 ADD PUSH2 0x1DB1 JUMP JUMPDEST MLOAD DUP2 MLOAD PUSH1 0x20 SWAP4 SWAP1 SWAP4 SUB PUSH2 0x100 EXP PUSH1 0x0 NOT ADD DUP1 NOT SWAP1 SWAP2 AND SWAP3 AND SWAP2 SWAP1 SWAP2 OR SWAP1 MSTORE PUSH32 0x3C2F7376673E0000000000000000000000000000000000000000000000000000 SWAP3 ADD SWAP2 DUP3 MSTORE POP PUSH1 0x40 DUP1 MLOAD DUP1 DUP4 SUB PUSH1 0x19 NOT ADD DUP2 MSTORE PUSH1 0x6 SWAP1 SWAP3 ADD SWAP1 MSTORE SWAP10 SWAP9 POP POP POP POP POP POP POP POP POP JUMP JUMPDEST PUSH1 0x0 DUP1 DUP3 GT PUSH2 0x1E44 JUMPI PUSH1 0x0 DUP1 REVERT JUMPDEST PUSH1 0x1 PUSH1 0x80 SHL DUP3 LT PUSH2 0x1E57 JUMPI PUSH1 0x80 SWAP2 DUP3 SHR SWAP2 ADD JUMPDEST PUSH9 0x10000000000000000 DUP3 LT PUSH2 0x1E6F JUMPI PUSH1 0x40 SWAP2 DUP3 SHR SWAP2 ADD JUMPDEST PUSH5 0x100000000 DUP3 LT PUSH2 0x1E83 JUMPI PUSH1 0x20 SWAP2 DUP3 SHR SWAP2 ADD JUMPDEST PUSH3 0x10000 DUP3 LT PUSH2 0x1E95 JUMPI PUSH1 0x10 SWAP2 DUP3 SHR SWAP2 ADD JUMPDEST PUSH2 0x100 DUP3 LT PUSH2 0x1EA6 JUMPI PUSH1 0x8 SWAP2 DUP3 SHR SWAP2 ADD JUMPDEST PUSH1 0x10 DUP3 LT PUSH2 0x1EB6 JUMPI PUSH1 0x4 SWAP2 DUP3 SHR SWAP2 ADD JUMPDEST PUSH1 0x4 DUP3 LT PUSH2 0x1EC6 JUMPI PUSH1 0x2 SWAP2 DUP3 SHR SWAP2 ADD JUMPDEST PUSH1 0x2 DUP3 LT PUSH2 0x222 JUMPI PUSH1 0x1 ADD SWAP2 SWAP1 POP JUMP JUMPDEST PUSH1 0x0 DUP2 DUP4 SUB DUP2 DUP4 SLT DUP1 ISZERO SWAP1 PUSH2 0x1EEB JUMPI POP DUP4 DUP2 SGT ISZERO JUMPDEST DUP1 PUSH2 0x1F00 JUMPI POP PUSH1 0x0 DUP4 SLT DUP1 ISZERO PUSH2 0x1F00 JUMPI POP DUP4 DUP2 SGT JUMPDEST PUSH2 0x20B JUMPI PUSH1 0x40 MLOAD PUSH3 0x461BCD PUSH1 0xE5 SHL DUP2 MSTORE PUSH1 0x4 ADD DUP1 DUP1 PUSH1 0x20 ADD DUP3 DUP2 SUB DUP3 MSTORE PUSH1 0x24 DUP2 MSTORE PUSH1 0x20 ADD DUP1 PUSH2 0x5BD0 PUSH1 0x24 SWAP2 CODECOPY PUSH1 0x40 ADD SWAP2 POP POP PUSH1 0x40 MLOAD DUP1 SWAP2 SUB SWAP1 REVERT JUMPDEST PUSH1 0x0 DUP1 DUP3 SLT ISZERO PUSH2 0x1F4E JUMPI DUP2 PUSH1 0x0 SUB PUSH2 0x21F JUMP JUMPDEST POP SWAP1 JUMP JUMPDEST PUSH1 0x0 DUP3 PUSH2 0x1F61 JUMPI POP PUSH1 0x0 PUSH2 0x20E JUMP JUMPDEST DUP3 DUP3 MUL DUP3 DUP5 DUP3 DUP2 PUSH2 0x1F6E JUMPI INVALID JUMPDEST DIV EQ PUSH2 0x20B JUMPI PUSH1 0x40 MLOAD PUSH3 0x461BCD PUSH1 0xE5 SHL DUP2 MSTORE PUSH1 0x4 ADD DUP1 DUP1 PUSH1 0x20 ADD DUP3 DUP2 SUB DUP3 MSTORE PUSH1 0x21 DUP2 MSTORE PUSH1 0x20 ADD DUP1 PUSH2 0x52E9 PUSH1 0x21 SWAP2 CODECOPY PUSH1 0x40 ADD SWAP2 POP POP PUSH1 0x40 MLOAD DUP1 SWAP2 SUB SWAP1 REVERT JUMPDEST PUSH1 0x60 DUP2 PUSH2 0x1FD0 JUMPI POP PUSH1 0x40 DUP1 MLOAD DUP1 DUP3 ADD SWAP1 SWAP2 MSTORE PUSH1 0x1 DUP2 MSTORE PUSH1 0x3 PUSH1 0xFC SHL PUSH1 0x20 DUP3 ADD MSTORE PUSH2 0x222 JUMP JUMPDEST DUP2 PUSH1 0x0 JUMPDEST DUP2 ISZERO PUSH2 0x1FE8 JUMPI PUSH1 0x1 ADD PUSH1 0xA DUP3 DIV SWAP2 POP PUSH2 0x1FD4 JUMP JUMPDEST PUSH1 0x0 DUP2 PUSH8 0xFFFFFFFFFFFFFFFF DUP2 GT DUP1 ISZERO PUSH2 0x2001 JUMPI PUSH1 0x0 DUP1 REVERT JUMPDEST POP PUSH1 0x40 MLOAD SWAP1 DUP1 DUP3 MSTORE DUP1 PUSH1 0x1F ADD PUSH1 0x1F NOT AND PUSH1 0x20 ADD DUP3 ADD PUSH1 0x40 MSTORE DUP1 ISZERO PUSH2 0x202C JUMPI PUSH1 0x20 DUP3 ADD DUP2 DUP1 CALLDATASIZE DUP4 CALLDATACOPY ADD SWAP1 POP JUMPDEST POP DUP6 SWAP4 POP SWAP1 POP PUSH1 0x0 NOT DUP3 ADD JUMPDEST DUP4 ISZERO PUSH2 0x207D JUMPI PUSH1 0xA DUP5 MOD PUSH1 0x30 ADD PUSH1 0xF8 SHL DUP3 DUP3 DUP1 PUSH1 0x1 SWAP1 SUB SWAP4 POP DUP2 MLOAD DUP2 LT PUSH2 0x205B JUMPI INVALID JUMPDEST PUSH1 0x20 ADD ADD SWAP1 PUSH1 0x1 PUSH1 0x1 PUSH1 0xF8 SHL SUB NOT AND SWAP1 DUP2 PUSH1 0x0 BYTE SWAP1 MSTORE8 POP PUSH1 0xA DUP5 DIV SWAP4 POP PUSH2 0x2038 JUMP JUMPDEST POP SWAP5 SWAP4 POP POP POP POP JUMP JUMPDEST PUSH1 0x60 PUSH2 0x211B DUP3 PUSH2 0x160 ADD MLOAD PUSH1 0x40 MLOAD PUSH1 0x20 ADD DUP1 DUP1 PUSH2 0x4EA3 PUSH1 0x81 SWAP2 CODECOPY PUSH1 0x81 ADD DUP3 DUP1 MLOAD SWAP1 PUSH1 0x20 ADD SWAP1 DUP1 DUP4 DUP4 JUMPDEST PUSH1 0x20 DUP4 LT PUSH2 0x20CE JUMPI DUP1 MLOAD DUP3 MSTORE PUSH1 0x1F NOT SWAP1 SWAP3 ADD SWAP2 PUSH1 0x20 SWAP2 DUP3 ADD SWAP2 ADD PUSH2 0x20AF JUMP JUMPDEST PUSH1 0x1 DUP4 PUSH1 0x20 SUB PUSH2 0x100 EXP SUB DUP1 NOT DUP3 MLOAD AND DUP2 DUP5 MLOAD AND DUP1 DUP3 OR DUP6 MSTORE POP POP POP POP POP POP SWAP1 POP ADD DUP1 PUSH9 0x13979F1E17B9BB339F PUSH1 0xB9 SHL DUP2 MSTORE POP PUSH1 0x9 ADD SWAP2 POP POP PUSH1 0x40 MLOAD PUSH1 0x20 DUP2 DUP4 SUB SUB DUP2 MSTORE SWAP1 PUSH1 0x40 MSTORE PUSH2 0x33CD JUMP JUMPDEST PUSH2 0x2287 DUP4 PUSH2 0x1E0 ADD MLOAD DUP5 PUSH2 0x200 ADD MLOAD DUP6 PUSH2 0x180 ADD MLOAD PUSH1 0x40 MLOAD PUSH1 0x20 ADD DUP1 DUP1 PUSH2 0x49E0 PUSH1 0x63 SWAP2 CODECOPY PUSH1 0x63 ADD DUP5 DUP1 MLOAD SWAP1 PUSH1 0x20 ADD SWAP1 DUP1 DUP4 DUP4 JUMPDEST PUSH1 0x20 DUP4 LT PUSH2 0x216D JUMPI DUP1 MLOAD DUP3 MSTORE PUSH1 0x1F NOT SWAP1 SWAP3 ADD SWAP2 PUSH1 0x20 SWAP2 DUP3 ADD SWAP2 ADD PUSH2 0x214E JUMP JUMPDEST MLOAD DUP2 MLOAD PUSH1 0x20 SWAP4 DUP5 SUB PUSH2 0x100 EXP PUSH1 0x0 NOT ADD DUP1 NOT SWAP1 SWAP3 AND SWAP2 AND OR SWAP1 MSTORE PUSH6 0x272063793D27 PUSH1 0xD0 SHL SWAP2 SWAP1 SWAP4 ADD SWAP1 DUP2 MSTORE DUP6 MLOAD PUSH1 0x6 SWAP1 SWAP2 ADD SWAP3 DUP7 ADD SWAP2 POP DUP1 DUP4 DUP4 JUMPDEST PUSH1 0x20 DUP4 LT PUSH2 0x21C7 JUMPI DUP1 MLOAD DUP3 MSTORE PUSH1 0x1F NOT SWAP1 SWAP3 ADD SWAP2 PUSH1 0x20 SWAP2 DUP3 ADD SWAP2 ADD PUSH2 0x21A8 JUMP JUMPDEST MLOAD DUP2 MLOAD PUSH1 0x20 SWAP4 DUP5 SUB PUSH2 0x100 EXP PUSH1 0x0 NOT ADD DUP1 NOT SWAP1 SWAP3 AND SWAP2 AND OR SWAP1 MSTORE PUSH32 0x2720723D273132307078272066696C6C3D272300000000000000000000000000 SWAP2 SWAP1 SWAP4 ADD SWAP1 DUP2 MSTORE DUP5 MLOAD PUSH1 0x13 SWAP1 SWAP2 ADD SWAP3 DUP6 ADD SWAP2 POP DUP1 DUP4 DUP4 JUMPDEST PUSH1 0x20 DUP4 LT PUSH2 0x2238 JUMPI DUP1 MLOAD DUP3 MSTORE PUSH1 0x1F NOT SWAP1 SWAP3 ADD SWAP2 PUSH1 0x20 SWAP2 DUP3 ADD SWAP2 ADD PUSH2 0x2219 JUMP JUMPDEST PUSH1 0x1 DUP4 PUSH1 0x20 SUB PUSH2 0x100 EXP SUB DUP1 NOT DUP3 MLOAD AND DUP2 DUP5 MLOAD AND DUP1 DUP3 OR DUP6 MSTORE POP POP POP POP POP POP SWAP1 POP ADD DUP1 PUSH9 0x13979F1E17B9BB339F PUSH1 0xB9 SHL DUP2 MSTORE POP PUSH1 0x9 ADD SWAP4 POP POP POP POP PUSH1 0x40 MLOAD PUSH1 0x20 DUP2 DUP4 SUB SUB DUP2 MSTORE SWAP1 PUSH1 0x40 MSTORE PUSH2 0x33CD JUMP JUMPDEST PUSH2 0x22D8 DUP5 PUSH2 0x220 ADD MLOAD DUP6 PUSH2 0x240 ADD MLOAD DUP7 PUSH2 0x1A0 ADD MLOAD PUSH1 0x40 MLOAD PUSH1 0x20 ADD DUP1 DUP1 PUSH2 0x49E0 PUSH1 0x63 SWAP2 CODECOPY PUSH1 0x63 ADD DUP5 DUP1 MLOAD SWAP1 PUSH1 0x20 ADD SWAP1 DUP1 DUP4 DUP4 PUSH1 0x20 DUP4 LT PUSH2 0x216D JUMPI DUP1 MLOAD DUP3 MSTORE PUSH1 0x1F NOT SWAP1 SWAP3 ADD SWAP2 PUSH1 0x20 SWAP2 DUP3 ADD SWAP2 ADD PUSH2 0x214E JUMP JUMPDEST PUSH2 0x23F7 DUP6 PUSH2 0x260 ADD MLOAD DUP7 PUSH2 0x280 ADD MLOAD DUP8 PUSH2 0x1C0 ADD MLOAD PUSH1 0x40 MLOAD PUSH1 0x20 ADD DUP1 DUP1 PUSH2 0x49E0 PUSH1 0x63 SWAP2 CODECOPY PUSH1 0x63 ADD DUP5 DUP1 MLOAD SWAP1 PUSH1 0x20 ADD SWAP1 DUP1 DUP4 DUP4 JUMPDEST PUSH1 0x20 DUP4 LT PUSH2 0x232A JUMPI DUP1 MLOAD DUP3 MSTORE PUSH1 0x1F NOT SWAP1 SWAP3 ADD SWAP2 PUSH1 0x20 SWAP2 DUP3 ADD SWAP2 ADD PUSH2 0x230B JUMP JUMPDEST MLOAD DUP2 MLOAD PUSH1 0x20 SWAP4 DUP5 SUB PUSH2 0x100 EXP PUSH1 0x0 NOT ADD DUP1 NOT SWAP1 SWAP3 AND SWAP2 AND OR SWAP1 MSTORE PUSH6 0x272063793D27 PUSH1 0xD0 SHL SWAP2 SWAP1 SWAP4 ADD SWAP1 DUP2 MSTORE DUP6 MLOAD PUSH1 0x6 SWAP1 SWAP2 ADD SWAP3 DUP7 ADD SWAP2 POP DUP1 DUP4 DUP4 JUMPDEST PUSH1 0x20 DUP4 LT PUSH2 0x2384 JUMPI DUP1 MLOAD DUP3 MSTORE PUSH1 0x1F NOT SWAP1 SWAP3 ADD SWAP2 PUSH1 0x20 SWAP2 DUP3 ADD SWAP2 ADD PUSH2 0x2365 JUMP JUMPDEST MLOAD DUP2 MLOAD PUSH1 0x0 NOT PUSH1 0x20 SWAP5 DUP6 SUB PUSH2 0x100 EXP ADD SWAP1 DUP2 AND SWAP1 NOT SWAP2 SWAP1 SWAP2 AND OR SWAP1 MSTORE PUSH32 0x2720723D273130307078272066696C6C3D272300000000000000000000000000 SWAP4 SWAP1 SWAP2 ADD SWAP3 DUP4 MSTORE DUP5 MLOAD PUSH1 0x13 SWAP1 SWAP4 ADD SWAP3 SWAP1 DUP6 ADD SWAP2 POP DUP1 DUP4 DUP4 PUSH1 0x20 DUP4 LT PUSH2 0x2238 JUMPI DUP1 MLOAD DUP3 MSTORE PUSH1 0x1F NOT SWAP1 SWAP3 ADD SWAP2 PUSH1 0x20 SWAP2 DUP3 ADD SWAP2 ADD PUSH2 0x2219 JUMP JUMPDEST PUSH2 0x160 DUP7 ADD MLOAD PUSH1 0x40 MLOAD PUSH1 0x20 ADD DUP1 PUSH1 0x56 PUSH2 0x475B DUP3 CODECOPY PUSH1 0x56 ADD PUSH1 0x2C PUSH2 0x510A DUP3 CODECOPY PUSH32 0x3C646566733E0000000000000000000000000000000000000000000000000000 PUSH1 0x2C DUP3 ADD MSTORE PUSH1 0x32 ADD PUSH1 0x4B PUSH2 0x4E58 DUP3 CODECOPY PUSH1 0x4B ADD DUP7 DUP1 MLOAD SWAP1 PUSH1 0x20 ADD SWAP1 DUP1 DUP4 DUP4 JUMPDEST PUSH1 0x20 DUP4 LT PUSH2 0x2473 JUMPI DUP1 MLOAD DUP3 MSTORE PUSH1 0x1F NOT SWAP1 SWAP3 ADD SWAP2 PUSH1 0x20 SWAP2 DUP3 ADD SWAP2 ADD PUSH2 0x2454 JUMP JUMPDEST PUSH1 0x1 DUP4 PUSH1 0x20 SUB PUSH2 0x100 EXP SUB DUP1 NOT DUP3 MLOAD AND DUP2 DUP5 MLOAD AND DUP1 DUP3 OR DUP6 MSTORE POP POP POP POP POP POP SWAP1 POP ADD DUP1 PUSH2 0x5990 PUSH1 0x3E SWAP2 CODECOPY PUSH1 0x3E ADD DUP6 DUP1 MLOAD SWAP1 PUSH1 0x20 ADD SWAP1 DUP1 DUP4 DUP4 JUMPDEST PUSH1 0x20 DUP4 LT PUSH2 0x24CB JUMPI DUP1 MLOAD DUP3 MSTORE PUSH1 0x1F NOT SWAP1 SWAP3 ADD SWAP2 PUSH1 0x20 SWAP2 DUP3 ADD SWAP2 ADD PUSH2 0x24AC JUMP JUMPDEST PUSH1 0x1 DUP4 PUSH1 0x20 SUB PUSH2 0x100 EXP SUB DUP1 NOT DUP3 MLOAD AND DUP2 DUP5 MLOAD AND DUP1 DUP3 OR DUP6 MSTORE POP POP POP POP POP POP SWAP1 POP ADD DUP1 PUSH2 0x4F24 PUSH1 0x3E SWAP2 CODECOPY PUSH1 0x3E ADD DUP5 DUP1 MLOAD SWAP1 PUSH1 0x20 ADD SWAP1 DUP1 DUP4 DUP4 JUMPDEST PUSH1 0x20 DUP4 LT PUSH2 0x2523 JUMPI DUP1 MLOAD DUP3 MSTORE PUSH1 0x1F NOT SWAP1 SWAP3 ADD SWAP2 PUSH1 0x20 SWAP2 DUP3 ADD SWAP2 ADD PUSH2 0x2504 JUMP JUMPDEST MLOAD DUP2 MLOAD PUSH1 0x20 SWAP4 SWAP1 SWAP4 SUB PUSH2 0x100 EXP PUSH1 0x0 NOT ADD DUP1 NOT SWAP1 SWAP2 AND SWAP3 AND SWAP2 SWAP1 SWAP2 OR SWAP1 MSTORE PUSH32 0x22202F3E00000000000000000000000000000000000000000000000000000000 SWAP3 ADD SWAP2 DUP3 MSTORE POP PUSH1 0x4 ADD PUSH1 0x3B PUSH2 0x4653 DUP3 CODECOPY PUSH1 0x3B ADD DUP4 DUP1 MLOAD SWAP1 PUSH1 0x20 ADD SWAP1 DUP1 DUP4 DUP4 JUMPDEST PUSH1 0x20 DUP4 LT PUSH2 0x25A0 JUMPI DUP1 MLOAD DUP3 MSTORE PUSH1 0x1F NOT SWAP1 SWAP3 ADD SWAP2 PUSH1 0x20 SWAP2 DUP3 ADD SWAP2 ADD PUSH2 0x2581 JUMP JUMPDEST PUSH1 0x1 DUP4 PUSH1 0x20 SUB PUSH2 0x100 EXP SUB DUP1 NOT DUP3 MLOAD AND DUP2 DUP5 MLOAD AND DUP1 DUP3 OR DUP6 MSTORE POP POP POP POP POP POP SWAP1 POP ADD DUP1 PUSH2 0x4AA0 PUSH1 0x99 SWAP2 CODECOPY PUSH1 0x99 ADD PUSH1 0x7F PUSH2 0x5541 DUP3 CODECOPY PUSH1 0x7F ADD PUSH1 0x88 PUSH2 0x5908 DUP3 CODECOPY PUSH1 0x88 ADD PUSH1 0x41 PUSH2 0x4B39 DUP3 CODECOPY PUSH1 0x41 ADD PUSH1 0x5D PUSH2 0x5AC8 DUP3 CODECOPY PUSH1 0x5D ADD PUSH1 0x72 PUSH2 0x55ED DUP3 CODECOPY PUSH1 0x72 ADD PUSH1 0x49 PUSH2 0x45BC DUP3 CODECOPY PUSH1 0x49 ADD PUSH1 0xBE PUSH2 0x4D9A DUP3 CODECOPY PUSH1 0xBE ADD PUSH1 0x71 PUSH2 0x486C DUP3 CODECOPY PUSH1 0x71 ADD PUSH1 0x75 PUSH2 0x5484 DUP3 CODECOPY PUSH1 0x75 ADD PUSH1 0x66 PUSH2 0x4B7A DUP3 CODECOPY PUSH1 0x66 ADD PUSH1 0xA4 PUSH2 0x5136 DUP3 CODECOPY PUSH1 0xA4 ADD PUSH1 0x85 PUSH2 0x59CE DUP3 CODECOPY PUSH32 0x3C6720636C69702D706174683D2275726C2823636F726E65727329223E000000 PUSH1 0x85 DUP3 ADD MSTORE PUSH32 0x3C726563742066696C6C3D220000000000000000000000000000000000000000 PUSH1 0xA2 DUP3 ADD MSTORE DUP3 MLOAD PUSH1 0xAE SWAP1 SWAP2 ADD SWAP1 PUSH1 0x20 DUP5 ADD SWAP1 DUP1 DUP4 DUP4 JUMPDEST PUSH1 0x20 DUP4 LT PUSH2 0x26BE JUMPI DUP1 MLOAD DUP3 MSTORE PUSH1 0x1F NOT SWAP1 SWAP3 ADD SWAP2 PUSH1 0x20 SWAP2 DUP3 ADD SWAP2 ADD PUSH2 0x269F JUMP JUMPDEST PUSH1 0x1 DUP4 PUSH1 0x20 SUB PUSH2 0x100 EXP SUB DUP1 NOT DUP3 MLOAD AND DUP2 DUP5 MLOAD AND DUP1 DUP3 OR DUP6 MSTORE POP POP POP POP POP POP SWAP1 POP ADD DUP1 PUSH2 0x4BE0 PUSH1 0x31 SWAP2 CODECOPY PUSH1 0x31 ADD PUSH1 0x4E PUSH2 0x4605 DUP3 CODECOPY PUSH1 0x4E ADD PUSH1 0x5D PUSH2 0x4A43 DUP3 CODECOPY PUSH1 0x5D ADD PUSH1 0x41 PUSH2 0x5089 DUP3 CODECOPY PUSH1 0x41 ADD PUSH1 0x52 PUSH2 0x4F62 DUP3 CODECOPY PUSH1 0x52 ADD PUSH1 0x75 PUSH2 0x5A53 DUP3 CODECOPY PUSH1 0x75 ADD SWAP6 POP POP POP POP POP POP PUSH1 0x40 MLOAD PUSH1 0x20 DUP2 DUP4 SUB SUB DUP2 MSTORE SWAP1 PUSH1 0x40 MSTORE SWAP1 POP SWAP2 SWAP1 POP JUMP JUMPDEST PUSH1 0x60 DUP4 DUP3 DUP6 DUP5 DUP9 DUP8 DUP11 DUP10 PUSH1 0x40 MLOAD PUSH1 0x20 ADD DUP1 DUP1 PUSH2 0x5BAB PUSH1 0x25 SWAP2 CODECOPY PUSH1 0x25 ADD PUSH1 0x7D PUSH2 0x4D1D DUP3 CODECOPY PUSH1 0x7D ADD DUP10 DUP1 MLOAD SWAP1 PUSH1 0x20 ADD SWAP1 DUP1 DUP4 DUP4 JUMPDEST PUSH1 0x20 DUP4 LT PUSH2 0x278B JUMPI DUP1 MLOAD DUP3 MSTORE PUSH1 0x1F NOT SWAP1 SWAP3 ADD SWAP2 PUSH1 0x20 SWAP2 DUP3 ADD SWAP2 ADD PUSH2 0x276C JUMP JUMPDEST MLOAD DUP2 MLOAD PUSH1 0x20 SWAP4 DUP5 SUB PUSH2 0x100 EXP PUSH1 0x0 NOT ADD DUP1 NOT SWAP1 SWAP3 AND SWAP2 AND OR SWAP1 MSTORE PUSH5 0x107140511 PUSH1 0xDD SHL SWAP2 SWAP1 SWAP4 ADD SWAP1 DUP2 MSTORE DUP11 MLOAD PUSH1 0x5 SWAP1 SWAP2 ADD SWAP3 DUP12 ADD SWAP2 POP DUP1 DUP4 DUP4 JUMPDEST PUSH1 0x20 DUP4 LT PUSH2 0x27E4 JUMPI DUP1 MLOAD DUP3 MSTORE PUSH1 0x1F NOT SWAP1 SWAP3 ADD SWAP2 PUSH1 0x20 SWAP2 DUP3 ADD SWAP2 ADD PUSH2 0x27C5 JUMP JUMPDEST PUSH1 0x1 DUP4 PUSH1 0x20 SUB PUSH2 0x100 EXP SUB DUP1 NOT DUP3 MLOAD AND DUP2 DUP5 MLOAD AND DUP1 DUP3 OR DUP6 MSTORE POP POP POP POP POP POP SWAP1 POP ADD DUP1 PUSH2 0x4C11 PUSH1 0x79 SWAP2 CODECOPY PUSH1 0x79 ADD PUSH1 0x86 PUSH2 0x5B25 DUP3 CODECOPY PUSH1 0x86 ADD DUP8 DUP1 MLOAD SWAP1 PUSH1 0x20 ADD SWAP1 DUP1 DUP4 DUP4 JUMPDEST PUSH1 0x20 DUP4 LT PUSH2 0x2846 JUMPI DUP1 MLOAD DUP3 MSTORE PUSH1 0x1F NOT SWAP1 SWAP3 ADD SWAP2 PUSH1 0x20 SWAP2 DUP3 ADD SWAP2 ADD PUSH2 0x2827 JUMP JUMPDEST MLOAD DUP2 MLOAD PUSH1 0x20 SWAP4 DUP5 SUB PUSH2 0x100 EXP PUSH1 0x0 NOT ADD DUP1 NOT SWAP1 SWAP3 AND SWAP2 AND OR SWAP1 MSTORE PUSH5 0x107140511 PUSH1 0xDD SHL SWAP2 SWAP1 SWAP4 ADD SWAP1 DUP2 MSTORE DUP9 MLOAD PUSH1 0x5 SWAP1 SWAP2 ADD SWAP3 DUP10 ADD SWAP2 POP DUP1 DUP4 DUP4 JUMPDEST PUSH1 0x20 DUP4 LT PUSH2 0x289F JUMPI DUP1 MLOAD DUP3 MSTORE PUSH1 0x1F NOT SWAP1 SWAP3 ADD SWAP2 PUSH1 0x20 SWAP2 DUP3 ADD SWAP2 ADD PUSH2 0x2880 JUMP JUMPDEST PUSH1 0x1 DUP4 PUSH1 0x20 SUB PUSH2 0x100 EXP SUB DUP1 NOT DUP3 MLOAD AND DUP2 DUP5 MLOAD AND DUP1 DUP3 OR DUP6 MSTORE POP POP POP POP POP POP SWAP1 POP ADD DUP1 PUSH2 0x47E7 PUSH1 0x85 SWAP2 CODECOPY PUSH1 0x85 ADD PUSH1 0x7B PUSH2 0x5776 DUP3 CODECOPY PUSH1 0x7B ADD DUP6 DUP1 MLOAD SWAP1 PUSH1 0x20 ADD SWAP1 DUP1 DUP4 DUP4 JUMPDEST PUSH1 0x20 DUP4 LT PUSH2 0x2901 JUMPI DUP1 MLOAD DUP3 MSTORE PUSH1 0x1F NOT SWAP1 SWAP3 ADD SWAP2 PUSH1 0x20 SWAP2 DUP3 ADD SWAP2 ADD PUSH2 0x28E2 JUMP JUMPDEST MLOAD DUP2 MLOAD PUSH1 0x20 SWAP4 DUP5 SUB PUSH2 0x100 EXP PUSH1 0x0 NOT ADD DUP1 NOT SWAP1 SWAP3 AND SWAP2 AND OR SWAP1 MSTORE PUSH5 0x107140511 PUSH1 0xDD SHL SWAP2 SWAP1 SWAP4 ADD SWAP1 DUP2 MSTORE DUP7 MLOAD PUSH1 0x5 SWAP1 SWAP2 ADD SWAP3 DUP8 ADD SWAP2 POP DUP1 DUP4 DUP4 JUMPDEST PUSH1 0x20 DUP4 LT PUSH2 0x295A JUMPI DUP1 MLOAD DUP3 MSTORE PUSH1 0x1F NOT SWAP1 SWAP3 ADD SWAP2 PUSH1 0x20 SWAP2 DUP3 ADD SWAP2 ADD PUSH2 0x293B JUMP JUMPDEST PUSH1 0x1 DUP4 PUSH1 0x20 SUB PUSH2 0x100 EXP SUB DUP1 NOT DUP3 MLOAD AND DUP2 DUP5 MLOAD AND DUP1 DUP3 OR DUP6 MSTORE POP POP POP POP POP POP SWAP1 POP ADD DUP1 PUSH2 0x4931 PUSH1 0x5D SWAP2 CODECOPY PUSH1 0x5D ADD PUSH1 0xA3 PUSH2 0x53E1 DUP3 CODECOPY PUSH1 0xA3 ADD DUP4 DUP1 MLOAD SWAP1 PUSH1 0x20 ADD SWAP1 DUP1 DUP4 DUP4 JUMPDEST PUSH1 0x20 DUP4 LT PUSH2 0x29BC JUMPI DUP1 MLOAD DUP3 MSTORE PUSH1 0x1F NOT SWAP1 SWAP3 ADD SWAP2 PUSH1 0x20 SWAP2 DUP3 ADD SWAP2 ADD PUSH2 0x299D JUMP JUMPDEST MLOAD DUP2 MLOAD PUSH1 0x20 SWAP4 DUP5 SUB PUSH2 0x100 EXP PUSH1 0x0 NOT ADD DUP1 NOT SWAP1 SWAP3 AND SWAP2 AND OR SWAP1 MSTORE PUSH5 0x107140511 PUSH1 0xDD SHL SWAP2 SWAP1 SWAP4 ADD SWAP1 DUP2 MSTORE DUP5 MLOAD PUSH1 0x5 SWAP1 SWAP2 ADD SWAP3 DUP6 ADD SWAP2 POP DUP1 DUP4 DUP4 JUMPDEST PUSH1 0x20 DUP4 LT PUSH2 0x2A15 JUMPI DUP1 MLOAD DUP3 MSTORE PUSH1 0x1F NOT SWAP1 SWAP3 ADD SWAP2 PUSH1 0x20 SWAP2 DUP3 ADD SWAP2 ADD PUSH2 0x29F6 JUMP JUMPDEST PUSH1 0x1 DUP4 PUSH1 0x20 SUB PUSH2 0x100 EXP SUB DUP1 NOT DUP3 MLOAD AND DUP2 DUP5 MLOAD AND DUP1 DUP3 OR DUP6 MSTORE POP POP POP POP POP POP SWAP1 POP ADD DUP1 PUSH2 0x4531 PUSH1 0x8B SWAP2 CODECOPY PUSH1 0x8B ADD SWAP9 POP POP POP POP POP POP POP POP POP PUSH1 0x40 MLOAD PUSH1 0x20 DUP2 DUP4 SUB SUB DUP2 MSTORE SWAP1 PUSH1 0x40 MSTORE SWAP1 POP SWAP5 SWAP4 POP POP POP POP JUMP JUMPDEST PUSH1 0x60 DUP4 DUP4 DUP4 PUSH1 0x40 MLOAD PUSH1 0x20 ADD DUP1 DUP1 PUSH2 0x468E PUSH1 0xCD SWAP2 CODECOPY PUSH1 0xCD ADD DUP5 DUP1 MLOAD SWAP1 PUSH1 0x20 ADD SWAP1 DUP1 DUP4 DUP4 JUMPDEST PUSH1 0x20 DUP4 LT PUSH2 0x2AA7 JUMPI DUP1 MLOAD DUP3 MSTORE PUSH1 0x1F NOT SWAP1 SWAP3 ADD SWAP2 PUSH1 0x20 SWAP2 DUP3 ADD SWAP2 ADD PUSH2 0x2A88 JUMP JUMPDEST PUSH1 0x1 DUP4 PUSH1 0x20 SUB PUSH2 0x100 EXP SUB DUP1 NOT DUP3 MLOAD AND DUP2 DUP5 MLOAD AND DUP1 DUP3 OR DUP6 MSTORE POP POP POP POP POP POP SWAP1 POP ADD DUP1 PUSH32 0x2F00000000000000000000000000000000000000000000000000000000000000 DUP2 MSTORE POP PUSH1 0x1 ADD DUP4 DUP1 MLOAD SWAP1 PUSH1 0x20 ADD SWAP1 DUP1 DUP4 DUP4 JUMPDEST PUSH1 0x20 DUP4 LT PUSH2 0x2B1C JUMPI DUP1 MLOAD DUP3 MSTORE PUSH1 0x1F NOT SWAP1 SWAP3 ADD SWAP2 PUSH1 0x20 SWAP2 DUP3 ADD SWAP2 ADD PUSH2 0x2AFD JUMP JUMPDEST PUSH1 0x1 DUP4 PUSH1 0x20 SUB PUSH2 0x100 EXP SUB DUP1 NOT DUP3 MLOAD AND DUP2 DUP5 MLOAD AND DUP1 DUP3 OR DUP6 MSTORE POP POP POP POP POP POP SWAP1 POP ADD DUP1 PUSH2 0x5D54 PUSH1 0x77 SWAP2 CODECOPY PUSH1 0x77 ADD DUP3 DUP1 MLOAD SWAP1 PUSH1 0x20 ADD SWAP1 DUP1 DUP4 DUP4 JUMPDEST PUSH1 0x20 DUP4 LT PUSH2 0x2B74 JUMPI DUP1 MLOAD DUP3 MSTORE PUSH1 0x1F NOT SWAP1 SWAP3 ADD SWAP2 PUSH1 0x20 SWAP2 DUP3 ADD SWAP2 ADD PUSH2 0x2B55 JUMP JUMPDEST MLOAD DUP2 MLOAD PUSH1 0x20 SWAP4 SWAP1 SWAP4 SUB PUSH2 0x100 EXP PUSH1 0x0 NOT ADD DUP1 NOT SWAP1 SWAP2 AND SWAP3 AND SWAP2 SWAP1 SWAP2 OR SWAP1 MSTORE PUSH11 0x1E17BA32BC3A1F1E17B39F PUSH1 0xA9 SHL SWAP3 ADD SWAP2 DUP3 MSTORE POP PUSH1 0xB ADD PUSH1 0x73 PUSH2 0x5BF4 DUP3 CODECOPY PUSH1 0x73 ADD SWAP4 POP POP POP POP PUSH1 0x40 MLOAD PUSH1 0x20 DUP2 DUP4 SUB SUB DUP2 MSTORE SWAP1 PUSH1 0x40 MSTORE SWAP1 POP SWAP4 SWAP3 POP POP POP JUMP JUMPDEST PUSH1 0x60 PUSH1 0x0 DUP3 PUSH1 0x0 SIGNEXTEND PUSH1 0x1 EQ PUSH2 0x2C63 JUMPI DUP3 PUSH1 0x0 SIGNEXTEND PUSH1 0x0 NOT EQ PUSH2 0x2C27 JUMPI PUSH1 0x40 MLOAD DUP1 PUSH1 0x40 ADD PUSH1 0x40 MSTORE DUP1 PUSH1 0x5 DUP2 MSTORE PUSH1 0x20 ADD PUSH32 0x236E6F6E65000000000000000000000000000000000000000000000000000000 DUP2 MSTORE POP PUSH2 0x2C5E JUMP JUMPDEST PUSH1 0x40 MLOAD DUP1 PUSH1 0x40 ADD PUSH1 0x40 MSTORE DUP1 PUSH1 0xA DUP2 MSTORE PUSH1 0x20 ADD PUSH32 0x23666164652D646F776E00000000000000000000000000000000000000000000 DUP2 MSTORE POP JUMPDEST PUSH2 0x2C9A JUMP JUMPDEST PUSH1 0x40 MLOAD DUP1 PUSH1 0x40 ADD PUSH1 0x40 MSTORE DUP1 PUSH1 0x8 DUP2 MSTORE PUSH1 0x20 ADD PUSH32 0x23666164652D7570000000000000000000000000000000000000000000000000 DUP2 MSTORE POP JUMPDEST SWAP1 POP PUSH1 0x0 PUSH2 0x2CA9 DUP8 DUP8 DUP8 PUSH2 0x3552 JUMP JUMPDEST SWAP1 POP DUP2 DUP2 DUP4 DUP4 PUSH2 0x2CB8 DUP9 PUSH2 0x37A0 JUMP JUMPDEST PUSH1 0x40 MLOAD PUSH1 0x20 ADD DUP1 DUP1 PUSH32 0x3C67206D61736B3D2275726C2800000000000000000000000000000000000000 DUP2 MSTORE POP PUSH1 0xD ADD DUP7 DUP1 MLOAD SWAP1 PUSH1 0x20 ADD SWAP1 DUP1 DUP4 DUP4 JUMPDEST PUSH1 0x20 DUP4 LT PUSH2 0x2D12 JUMPI DUP1 MLOAD DUP3 MSTORE PUSH1 0x1F NOT SWAP1 SWAP3 ADD SWAP2 PUSH1 0x20 SWAP2 DUP3 ADD SWAP2 ADD PUSH2 0x2CF3 JUMP JUMPDEST MLOAD DUP2 MLOAD PUSH1 0x20 SWAP4 SWAP1 SWAP4 SUB PUSH2 0x100 EXP PUSH1 0x0 NOT ADD DUP1 NOT SWAP1 SWAP2 AND SWAP3 AND SWAP2 SWAP1 SWAP2 OR SWAP1 MSTORE PUSH2 0x1491 PUSH1 0xF1 SHL SWAP3 ADD SWAP2 DUP3 MSTORE POP PUSH1 0x2 ADD PUSH1 0x77 PUSH2 0x51DA DUP3 CODECOPY PUSH1 0x77 ADD DUP6 DUP1 MLOAD SWAP1 PUSH1 0x20 ADD SWAP1 DUP1 DUP4 DUP4 JUMPDEST PUSH1 0x20 DUP4 LT PUSH2 0x2D74 JUMPI DUP1 MLOAD DUP3 MSTORE PUSH1 0x1F NOT SWAP1 SWAP3 ADD SWAP2 PUSH1 0x20 SWAP2 DUP3 ADD SWAP2 ADD PUSH2 0x2D55 JUMP JUMPDEST PUSH1 0x1 DUP4 PUSH1 0x20 SUB PUSH2 0x100 EXP SUB DUP1 NOT DUP3 MLOAD AND DUP2 DUP5 MLOAD AND DUP1 DUP3 OR DUP6 MSTORE POP POP POP POP POP POP SWAP1 POP ADD DUP1 PUSH2 0x48DD PUSH1 0x54 SWAP2 CODECOPY PUSH1 0x54 ADD DUP1 PUSH32 0x3C2F673E3C67206D61736B3D2275726C28000000000000000000000000000000 DUP2 MSTORE POP PUSH1 0x11 ADD DUP5 DUP1 MLOAD SWAP1 PUSH1 0x20 ADD SWAP1 DUP1 DUP4 DUP4 JUMPDEST PUSH1 0x20 DUP4 LT PUSH2 0x2DF4 JUMPI DUP1 MLOAD DUP3 MSTORE PUSH1 0x1F NOT SWAP1 SWAP3 ADD SWAP2 PUSH1 0x20 SWAP2 DUP3 ADD SWAP2 ADD PUSH2 0x2DD5 JUMP JUMPDEST MLOAD DUP2 MLOAD PUSH1 0x20 SWAP4 SWAP1 SWAP4 SUB PUSH2 0x100 EXP PUSH1 0x0 NOT ADD DUP1 NOT SWAP1 SWAP2 AND SWAP3 AND SWAP2 SWAP1 SWAP2 OR SWAP1 MSTORE PUSH2 0x1491 PUSH1 0xF1 SHL SWAP3 ADD SWAP2 DUP3 MSTORE POP PUSH1 0x2 ADD PUSH1 0x29 PUSH2 0x5251 DUP3 CODECOPY PUSH1 0x29 ADD PUSH1 0x45 PUSH2 0x52A4 DUP3 CODECOPY PUSH1 0x45 ADD DUP1 PUSH32 0x3C7061746820643D220000000000000000000000000000000000000000000000 DUP2 MSTORE POP PUSH1 0x9 ADD DUP4 DUP1 MLOAD SWAP1 PUSH1 0x20 ADD SWAP1 DUP1 DUP4 DUP4 JUMPDEST PUSH1 0x20 DUP4 LT PUSH2 0x2E88 JUMPI DUP1 MLOAD DUP3 MSTORE PUSH1 0x1F NOT SWAP1 SWAP3 ADD SWAP2 PUSH1 0x20 SWAP2 DUP3 ADD SWAP2 ADD PUSH2 0x2E69 JUMP JUMPDEST PUSH1 0x1 DUP4 PUSH1 0x20 SUB PUSH2 0x100 EXP SUB DUP1 NOT DUP3 MLOAD AND DUP2 DUP5 MLOAD AND DUP1 DUP3 OR DUP6 MSTORE POP POP POP POP POP POP SWAP1 POP ADD DUP1 PUSH2 0x54F9 PUSH1 0x48 SWAP2 CODECOPY PUSH1 0x48 ADD DUP3 DUP1 MLOAD SWAP1 PUSH1 0x20 ADD SWAP1 DUP1 DUP4 DUP4 JUMPDEST PUSH1 0x20 DUP4 LT PUSH2 0x2EE0 JUMPI DUP1 MLOAD DUP3 MSTORE PUSH1 0x1F NOT SWAP1 SWAP3 ADD SWAP2 PUSH1 0x20 SWAP2 DUP3 ADD SWAP2 ADD PUSH2 0x2EC1 JUMP JUMPDEST PUSH1 0x1 DUP4 PUSH1 0x20 SUB PUSH2 0x100 EXP SUB DUP1 NOT DUP3 MLOAD AND DUP2 DUP5 MLOAD AND DUP1 DUP3 OR DUP6 MSTORE POP POP POP POP POP POP SWAP1 POP ADD SWAP6 POP POP POP POP POP POP PUSH1 0x40 MLOAD PUSH1 0x20 DUP2 DUP4 SUB SUB DUP2 MSTORE SWAP1 PUSH1 0x40 MSTORE SWAP3 POP POP POP SWAP5 SWAP4 POP POP POP POP JUMP JUMPDEST PUSH1 0x60 PUSH1 0x0 PUSH2 0x2F31 DUP5 PUSH2 0x3C74 JUMP JUMPDEST SWAP1 POP PUSH1 0x0 PUSH2 0x2F3E DUP5 PUSH2 0x3C74 JUMP JUMPDEST DUP7 MLOAD DUP4 MLOAD DUP3 MLOAD SWAP3 SWAP4 POP PUSH1 0x4 SWAP1 SWAP2 ADD SWAP2 PUSH1 0xA SWAP2 DUP3 ADD SWAP2 ADD PUSH1 0x0 DUP1 PUSH2 0x2F61 DUP11 DUP11 PUSH2 0x3BA JUMP JUMPDEST SWAP2 POP SWAP2 POP PUSH2 0x2F74 DUP6 PUSH1 0x4 ADD PUSH1 0x7 MUL PUSH2 0x1FAB JUMP JUMPDEST DUP12 PUSH2 0x2F84 DUP7 PUSH1 0x4 ADD PUSH1 0x7 MUL PUSH2 0x1FAB JUMP JUMPDEST DUP10 PUSH2 0x2F94 DUP8 PUSH1 0x4 ADD PUSH1 0x7 MUL PUSH2 0x1FAB JUMP JUMPDEST DUP11 DUP8 DUP8 PUSH1 0x40 MLOAD PUSH1 0x20 ADD DUP1 DUP1 PUSH2 0x55C0 PUSH1 0x2D SWAP2 CODECOPY PUSH1 0x2D ADD DUP1 PUSH13 0x1E3932B1BA103BB4B23A341E91 PUSH1 0x99 SHL DUP2 MSTORE POP PUSH1 0xD ADD DUP10 DUP1 MLOAD SWAP1 PUSH1 0x20 ADD SWAP1 DUP1 DUP4 DUP4 JUMPDEST PUSH1 0x20 DUP4 LT PUSH2 0x2FEC JUMPI DUP1 MLOAD DUP3 MSTORE PUSH1 0x1F NOT SWAP1 SWAP3 ADD SWAP2 PUSH1 0x20 SWAP2 DUP3 ADD SWAP2 ADD PUSH2 0x2FCD JUMP JUMPDEST PUSH1 0x1 DUP4 PUSH1 0x20 SUB PUSH2 0x100 EXP SUB DUP1 NOT DUP3 MLOAD AND DUP2 DUP5 MLOAD AND DUP1 DUP3 OR DUP6 MSTORE POP POP POP POP POP POP SWAP1 POP ADD DUP1 PUSH2 0x4FB4 PUSH1 0x3D SWAP2 CODECOPY PUSH1 0x3D ADD PUSH1 0x8D PUSH2 0x5C67 DUP3 CODECOPY PUSH1 0x8D ADD DUP9 DUP1 MLOAD SWAP1 PUSH1 0x20 ADD SWAP1 DUP1 DUP4 DUP4 JUMPDEST PUSH1 0x20 DUP4 LT PUSH2 0x304E JUMPI DUP1 MLOAD DUP3 MSTORE PUSH1 0x1F NOT SWAP1 SWAP3 ADD SWAP2 PUSH1 0x20 SWAP2 DUP3 ADD SWAP2 ADD PUSH2 0x302F JUMP JUMPDEST MLOAD DUP2 MLOAD PUSH1 0x20 SWAP4 SWAP1 SWAP4 SUB PUSH2 0x100 EXP PUSH1 0x0 NOT ADD DUP1 NOT SWAP1 SWAP2 AND SWAP3 AND SWAP2 SWAP1 SWAP2 OR SWAP1 MSTORE PUSH11 0x1E17BA32BC3A1F1E17B39F PUSH1 0xA9 SHL SWAP3 ADD SWAP2 DUP3 MSTORE POP PUSH1 0xB ADD PUSH1 0x2D PUSH2 0x5E03 DUP3 CODECOPY PUSH1 0x2D ADD DUP1 PUSH13 0x1E3932B1BA103BB4B23A341E91 PUSH1 0x99 SHL DUP2 MSTORE POP PUSH1 0xD ADD DUP8 DUP1 MLOAD SWAP1 PUSH1 0x20 ADD SWAP1 DUP1 DUP4 DUP4 JUMPDEST PUSH1 0x20 DUP4 LT PUSH2 0x30D1 JUMPI DUP1 MLOAD DUP3 MSTORE PUSH1 0x1F NOT SWAP1 SWAP3 ADD SWAP2 PUSH1 0x20 SWAP2 DUP3 ADD SWAP2 ADD PUSH2 0x30B2 JUMP JUMPDEST PUSH1 0x1 DUP4 PUSH1 0x20 SUB PUSH2 0x100 EXP SUB DUP1 NOT DUP3 MLOAD AND DUP2 DUP5 MLOAD AND DUP1 DUP3 OR DUP6 MSTORE POP POP POP POP POP POP SWAP1 POP ADD DUP1 PUSH2 0x4FB4 PUSH1 0x3D SWAP2 CODECOPY PUSH1 0x3D ADD PUSH1 0x93 PUSH2 0x4C8A DUP3 CODECOPY PUSH1 0x93 ADD DUP7 DUP1 MLOAD SWAP1 PUSH1 0x20 ADD SWAP1 DUP1 DUP4 DUP4 JUMPDEST PUSH1 0x20 DUP4 LT PUSH2 0x3133 JUMPI DUP1 MLOAD DUP3 MSTORE PUSH1 0x1F NOT SWAP1 SWAP3 ADD SWAP2 PUSH1 0x20 SWAP2 DUP3 ADD SWAP2 ADD PUSH2 0x3114 JUMP JUMPDEST MLOAD DUP2 MLOAD PUSH1 0x20 SWAP4 SWAP1 SWAP4 SUB PUSH2 0x100 EXP PUSH1 0x0 NOT ADD DUP1 NOT SWAP1 SWAP2 AND SWAP3 AND SWAP2 SWAP1 SWAP2 OR SWAP1 MSTORE PUSH11 0x1E17BA32BC3A1F1E17B39F PUSH1 0xA9 SHL SWAP3 ADD SWAP2 DUP3 MSTORE POP PUSH1 0xB ADD PUSH1 0x2D PUSH2 0x498E DUP3 CODECOPY PUSH1 0x2D ADD DUP1 PUSH13 0x1E3932B1BA103BB4B23A341E91 PUSH1 0x99 SHL DUP2 MSTORE POP PUSH1 0xD ADD DUP6 DUP1 MLOAD SWAP1 PUSH1 0x20 ADD SWAP1 DUP1 DUP4 DUP4 JUMPDEST PUSH1 0x20 DUP4 LT PUSH2 0x31B6 JUMPI DUP1 MLOAD DUP3 MSTORE PUSH1 0x1F NOT SWAP1 SWAP3 ADD SWAP2 PUSH1 0x20 SWAP2 DUP3 ADD SWAP2 ADD PUSH2 0x3197 JUMP JUMPDEST PUSH1 0x1 DUP4 PUSH1 0x20 SUB PUSH2 0x100 EXP SUB DUP1 NOT DUP3 MLOAD AND DUP2 DUP5 MLOAD AND DUP1 DUP3 OR DUP6 MSTORE POP POP POP POP POP POP SWAP1 POP ADD DUP1 PUSH2 0x4FB4 PUSH1 0x3D SWAP2 CODECOPY PUSH1 0x3D ADD PUSH1 0x93 PUSH2 0x57F1 DUP3 CODECOPY PUSH1 0x93 ADD DUP5 DUP1 MLOAD SWAP1 PUSH1 0x20 ADD SWAP1 DUP1 DUP4 DUP4 JUMPDEST PUSH1 0x20 DUP4 LT PUSH2 0x3218 JUMPI DUP1 MLOAD DUP3 MSTORE PUSH1 0x1F NOT SWAP1 SWAP3 ADD SWAP2 PUSH1 0x20 SWAP2 DUP3 ADD SWAP2 ADD PUSH2 0x31F9 JUMP JUMPDEST PUSH1 0x1 DUP4 PUSH1 0x20 SUB PUSH2 0x100 EXP SUB DUP1 NOT DUP3 MLOAD AND DUP2 DUP5 MLOAD AND DUP1 DUP3 OR DUP6 MSTORE POP POP POP POP POP POP SWAP1 POP ADD DUP1 PUSH2 0x5DCB PUSH1 0x38 SWAP2 CODECOPY PUSH1 0x38 ADD PUSH1 0x60 PUSH2 0x5CF4 DUP3 CODECOPY PUSH1 0x60 ADD PUSH1 0x64 PUSH2 0x537D DUP3 CODECOPY PUSH1 0x64 ADD PUSH1 0x25 PUSH2 0x49BB DUP3 CODECOPY PUSH1 0x25 ADD DUP4 DUP1 MLOAD SWAP1 PUSH1 0x20 ADD SWAP1 DUP1 DUP4 DUP4 JUMPDEST PUSH1 0x20 DUP4 LT PUSH2 0x328E JUMPI DUP1 MLOAD DUP3 MSTORE PUSH1 0x1F NOT SWAP1 SWAP3 ADD SWAP2 PUSH1 0x20 SWAP2 DUP3 ADD SWAP2 ADD PUSH2 0x326F JUMP JUMPDEST MLOAD DUP2 MLOAD PUSH1 0x20 SWAP4 DUP5 SUB PUSH2 0x100 EXP PUSH1 0x0 NOT ADD DUP1 NOT SWAP1 SWAP3 AND SWAP2 AND OR SWAP1 MSTORE PUSH32 0x70782C2000000000000000000000000000000000000000000000000000000000 SWAP2 SWAP1 SWAP4 ADD SWAP1 DUP2 MSTORE DUP5 MLOAD PUSH1 0x4 SWAP1 SWAP2 ADD SWAP3 DUP6 ADD SWAP2 POP DUP1 DUP4 DUP4 JUMPDEST PUSH1 0x20 DUP4 LT PUSH2 0x32FF JUMPI DUP1 MLOAD DUP3 MSTORE PUSH1 0x1F NOT SWAP1 SWAP3 ADD SWAP2 PUSH1 0x20 SWAP2 DUP3 ADD SWAP2 ADD PUSH2 0x32E0 JUMP JUMPDEST PUSH1 0x1 DUP4 PUSH1 0x20 SUB PUSH2 0x100 EXP SUB DUP1 NOT DUP3 MLOAD AND DUP2 DUP5 MLOAD AND DUP1 DUP3 OR DUP6 MSTORE POP POP POP POP POP POP SWAP1 POP ADD DUP1 PUSH2 0x47B1 PUSH1 0x36 SWAP2 CODECOPY PUSH1 0x36 ADD SWAP9 POP POP POP POP POP POP POP POP POP PUSH1 0x40 MLOAD PUSH1 0x20 DUP2 DUP4 SUB SUB DUP2 MSTORE SWAP1 PUSH1 0x40 MSTORE SWAP8 POP POP POP POP POP POP POP POP SWAP4 SWAP3 POP POP POP JUMP JUMPDEST PUSH1 0x60 PUSH2 0x3361 DUP4 DUP4 PUSH2 0xD50 JUMP JUMPDEST ISZERO PUSH2 0x33B7 JUMPI PUSH1 0x40 MLOAD PUSH1 0x20 ADD DUP1 PUSH1 0x8D PUSH2 0x56E9 DUP3 CODECOPY PUSH1 0x8D ADD PUSH1 0x73 PUSH2 0x530A DUP3 CODECOPY PUSH1 0x73 ADD PUSH1 0x71 PUSH2 0x5018 DUP3 CODECOPY PUSH1 0x71 ADD PUSH1 0x8A PUSH2 0x565F DUP3 CODECOPY PUSH1 0x8A ADD PUSH1 0x84 PUSH2 0x5884 DUP3 CODECOPY PUSH1 0x84 ADD SWAP1 POP PUSH1 0x40 MLOAD PUSH1 0x20 DUP2 DUP4 SUB SUB DUP2 MSTORE SWAP1 PUSH1 0x40 MSTORE SWAP1 POP PUSH2 0x20E JUMP JUMPDEST POP PUSH1 0x40 DUP1 MLOAD PUSH1 0x20 DUP2 ADD SWAP1 SWAP2 MSTORE PUSH1 0x0 DUP2 MSTORE SWAP3 SWAP2 POP POP JUMP JUMPDEST PUSH1 0x60 DUP2 MLOAD PUSH1 0x0 EQ ISZERO PUSH2 0x33EE JUMPI POP PUSH1 0x40 DUP1 MLOAD PUSH1 0x20 DUP2 ADD SWAP1 SWAP2 MSTORE PUSH1 0x0 DUP2 MSTORE PUSH2 0x222 JUMP JUMPDEST PUSH1 0x0 PUSH1 0x40 MLOAD DUP1 PUSH1 0x60 ADD PUSH1 0x40 MSTORE DUP1 PUSH1 0x40 DUP2 MSTORE PUSH1 0x20 ADD PUSH2 0x50CA PUSH1 0x40 SWAP2 CODECOPY SWAP1 POP PUSH1 0x0 PUSH1 0x3 DUP5 MLOAD PUSH1 0x2 ADD DUP2 PUSH2 0x341B JUMPI INVALID JUMPDEST DIV PUSH1 0x4 MUL SWAP1 POP PUSH1 0x0 DUP2 PUSH1 0x20 ADD PUSH8 0xFFFFFFFFFFFFFFFF DUP2 GT DUP1 ISZERO PUSH2 0x343D JUMPI PUSH1 0x0 DUP1 REVERT JUMPDEST POP PUSH1 0x40 MLOAD SWAP1 DUP1 DUP3 MSTORE DUP1 PUSH1 0x1F ADD PUSH1 0x1F NOT AND PUSH1 0x20 ADD DUP3 ADD PUSH1 0x40 MSTORE DUP1 ISZERO PUSH2 0x3468 JUMPI PUSH1 0x20 DUP3 ADD DUP2 DUP1 CALLDATASIZE DUP4 CALLDATACOPY ADD SWAP1 POP JUMPDEST POP SWAP1 POP DUP2 DUP2 MSTORE PUSH1 0x1 DUP4 ADD DUP6 DUP7 MLOAD DUP2 ADD PUSH1 0x20 DUP5 ADD JUMPDEST DUP2 DUP4 LT ISZERO PUSH2 0x34D6 JUMPI PUSH1 0x3 SWAP3 DUP4 ADD DUP1 MLOAD PUSH1 0x3F PUSH1 0x12 DUP3 SWAP1 SHR DUP2 AND DUP8 ADD MLOAD PUSH1 0xF8 SWAP1 DUP2 SHL DUP6 MSTORE PUSH1 0xC DUP4 SWAP1 SHR DUP3 AND DUP9 ADD MLOAD DUP2 SHL PUSH1 0x1 DUP7 ADD MSTORE PUSH1 0x6 DUP4 SWAP1 SHR DUP3 AND DUP9 ADD MLOAD DUP2 SHL PUSH1 0x2 DUP7 ADD MSTORE SWAP2 AND DUP7 ADD MLOAD SWAP1 SHL SWAP4 DUP3 ADD SWAP4 SWAP1 SWAP4 MSTORE PUSH1 0x4 ADD PUSH2 0x347C JUMP JUMPDEST PUSH1 0x3 DUP10 MLOAD MOD PUSH1 0x1 DUP2 EQ PUSH2 0x34F0 JUMPI PUSH1 0x2 DUP2 EQ PUSH2 0x351C JUMPI PUSH2 0x3544 JUMP JUMPDEST PUSH32 0x3D3D000000000000000000000000000000000000000000000000000000000000 PUSH1 0x1 NOT DUP4 ADD MSTORE PUSH2 0x3544 JUMP JUMPDEST PUSH32 0x3D00000000000000000000000000000000000000000000000000000000000000 PUSH1 0x0 NOT DUP4 ADD MSTORE JUMPDEST POP SWAP4 SWAP9 SWAP8 POP POP POP POP POP POP POP POP JUMP JUMPDEST PUSH1 0x60 PUSH1 0x0 DUP3 PUSH1 0x2 SIGNEXTEND DUP6 DUP6 SUB PUSH1 0x2 SIGNEXTEND DUP2 PUSH2 0x3567 JUMPI INVALID JUMPDEST SDIV SWAP1 POP PUSH1 0x4 DUP2 PUSH1 0x2 SIGNEXTEND SGT PUSH2 0x35B2 JUMPI PUSH1 0x40 MLOAD DUP1 PUSH1 0x40 ADD PUSH1 0x40 MSTORE DUP1 PUSH1 0x1A DUP2 MSTORE PUSH1 0x20 ADD PUSH32 0x4D31203143343120343120313035203130352031343520313435000000000000 DUP2 MSTORE POP SWAP2 POP PUSH2 0x10CD JUMP JUMPDEST PUSH1 0x8 DUP2 PUSH1 0x2 SIGNEXTEND SGT PUSH2 0x35FA JUMPI PUSH1 0x40 MLOAD DUP1 PUSH1 0x40 ADD PUSH1 0x40 MSTORE DUP1 PUSH1 0x19 DUP2 MSTORE PUSH1 0x20 ADD PUSH32 0x4D31203143333320343920393720313133203134352031343500000000000000 DUP2 MSTORE POP SWAP2 POP PUSH2 0x10CD JUMP JUMPDEST PUSH1 0x10 DUP2 PUSH1 0x2 SIGNEXTEND SGT PUSH2 0x3642 JUMPI PUSH1 0x40 MLOAD DUP1 PUSH1 0x40 ADD PUSH1 0x40 MSTORE DUP1 PUSH1 0x19 DUP2 MSTORE PUSH1 0x20 ADD PUSH32 0x4D31203143333320353720383920313133203134352031343500000000000000 DUP2 MSTORE POP SWAP2 POP PUSH2 0x10CD JUMP JUMPDEST PUSH1 0x20 DUP2 PUSH1 0x2 SIGNEXTEND SGT PUSH2 0x368A JUMPI PUSH1 0x40 MLOAD DUP1 PUSH1 0x40 ADD PUSH1 0x40 MSTORE DUP1 PUSH1 0x19 DUP2 MSTORE PUSH1 0x20 ADD PUSH32 0x4D31203143323520363520383120313231203134352031343500000000000000 DUP2 MSTORE POP SWAP2 POP PUSH2 0x10CD JUMP JUMPDEST PUSH1 0x40 DUP2 PUSH1 0x2 SIGNEXTEND SGT PUSH2 0x36D2 JUMPI PUSH1 0x40 MLOAD DUP1 PUSH1 0x40 ADD PUSH1 0x40 MSTORE DUP1 PUSH1 0x19 DUP2 MSTORE PUSH1 0x20 ADD PUSH32 0x4D31203143313720373320373320313239203134352031343500000000000000 DUP2 MSTORE POP SWAP2 POP PUSH2 0x10CD JUMP JUMPDEST PUSH1 0x80 DUP2 PUSH1 0x2 SIGNEXTEND SGT PUSH2 0x371A JUMPI PUSH1 0x40 MLOAD DUP1 PUSH1 0x40 ADD PUSH1 0x40 MSTORE DUP1 PUSH1 0x18 DUP2 MSTORE PUSH1 0x20 ADD PUSH32 0x4D31203143392038312036352031333720313435203134350000000000000000 DUP2 MSTORE POP SWAP2 POP PUSH2 0x10CD JUMP JUMPDEST PUSH2 0x100 DUP2 PUSH1 0x2 SIGNEXTEND SGT PUSH2 0x3763 JUMPI PUSH1 0x40 MLOAD DUP1 PUSH1 0x40 ADD PUSH1 0x40 MSTORE DUP1 PUSH1 0x1A DUP2 MSTORE PUSH1 0x20 ADD PUSH32 0x4D31203143312038392035372E35203134352031343520313435000000000000 DUP2 MSTORE POP SWAP2 POP PUSH2 0x10CD JUMP JUMPDEST POP POP PUSH1 0x40 DUP1 MLOAD DUP1 DUP3 ADD SWAP1 SWAP2 MSTORE PUSH1 0x18 DUP2 MSTORE PUSH32 0x4D31203143312039372034392031343520313435203134350000000000000000 PUSH1 0x20 DUP3 ADD MSTORE SWAP4 SWAP3 POP POP POP JUMP JUMPDEST PUSH1 0x40 DUP1 MLOAD DUP1 DUP3 ADD DUP3 MSTORE PUSH1 0x2 DUP2 MSTORE PUSH32 0x3733000000000000000000000000000000000000000000000000000000000000 PUSH1 0x20 DUP1 DUP4 ADD SWAP2 SWAP1 SWAP2 MSTORE DUP3 MLOAD DUP1 DUP5 ADD DUP5 MSTORE PUSH1 0x3 DUP1 DUP3 MSTORE PUSH32 0x3139300000000000000000000000000000000000000000000000000000000000 DUP3 DUP5 ADD MSTORE DUP5 MLOAD DUP1 DUP7 ADD DUP7 MSTORE DUP2 DUP2 MSTORE PUSH32 0x3231370000000000000000000000000000000000000000000000000000000000 DUP2 DUP6 ADD MSTORE DUP6 MLOAD DUP1 DUP8 ADD SWAP1 SWAP7 MSTORE SWAP1 DUP6 MSTORE PUSH32 0x3333340000000000000000000000000000000000000000000000000000000000 SWAP3 DUP6 ADD SWAP3 SWAP1 SWAP3 MSTORE PUSH1 0x60 SWAP4 SWAP1 SWAP2 SWAP1 PUSH1 0x1 PUSH1 0x0 DUP8 SWAP1 SIGNEXTEND EQ DUP1 PUSH2 0x3887 JUMPI POP DUP6 PUSH1 0x0 SIGNEXTEND PUSH1 0x0 NOT EQ JUMPDEST ISZERO PUSH2 0x3A7E JUMPI DUP6 PUSH1 0x0 SIGNEXTEND PUSH1 0x0 NOT EQ PUSH2 0x389E JUMPI DUP2 PUSH2 0x38A0 JUMP JUMPDEST DUP4 JUMPDEST DUP7 PUSH1 0x0 SIGNEXTEND PUSH1 0x0 NOT EQ PUSH2 0x38B2 JUMPI DUP2 PUSH2 0x38B4 JUMP JUMPDEST DUP4 JUMPDEST DUP8 PUSH1 0x0 SIGNEXTEND PUSH1 0x0 NOT EQ PUSH2 0x38C6 JUMPI DUP4 PUSH2 0x38C8 JUMP JUMPDEST DUP6 JUMPDEST DUP9 PUSH1 0x0 SIGNEXTEND PUSH1 0x0 NOT EQ PUSH2 0x38DA JUMPI DUP4 PUSH2 0x38DC JUMP JUMPDEST DUP6 JUMPDEST PUSH1 0x40 MLOAD PUSH1 0x20 ADD DUP1 DUP1 PUSH12 0x1E31B4B931B6329031BC1E91 PUSH1 0xA1 SHL DUP2 MSTORE POP PUSH1 0xC ADD DUP6 DUP1 MLOAD SWAP1 PUSH1 0x20 ADD SWAP1 DUP1 DUP4 DUP4 JUMPDEST PUSH1 0x20 DUP4 LT PUSH2 0x3925 JUMPI DUP1 MLOAD DUP3 MSTORE PUSH1 0x1F NOT SWAP1 SWAP3 ADD SWAP2 PUSH1 0x20 SWAP2 DUP3 ADD SWAP2 ADD PUSH2 0x3906 JUMP JUMPDEST MLOAD DUP2 MLOAD PUSH1 0x20 SWAP4 DUP5 SUB PUSH2 0x100 EXP PUSH1 0x0 NOT ADD DUP1 NOT SWAP1 SWAP3 AND SWAP2 AND OR SWAP1 MSTORE PUSH8 0x383C111031BC9E91 PUSH1 0xC1 SHL SWAP2 SWAP1 SWAP4 ADD SWAP1 DUP2 MSTORE DUP7 MLOAD PUSH1 0x8 SWAP1 SWAP2 ADD SWAP3 DUP8 ADD SWAP2 POP DUP1 DUP4 DUP4 JUMPDEST PUSH1 0x20 DUP4 LT PUSH2 0x3981 JUMPI DUP1 MLOAD DUP3 MSTORE PUSH1 0x1F NOT SWAP1 SWAP3 ADD SWAP2 PUSH1 0x20 SWAP2 DUP3 ADD SWAP2 ADD PUSH2 0x3962 JUMP JUMPDEST PUSH1 0x1 DUP4 PUSH1 0x20 SUB PUSH2 0x100 EXP SUB DUP1 NOT DUP3 MLOAD AND DUP2 DUP5 MLOAD AND DUP1 DUP3 OR DUP6 MSTORE POP POP POP POP POP POP SWAP1 POP ADD DUP1 PUSH2 0x4FF1 PUSH1 0x27 SWAP2 CODECOPY PUSH1 0x27 ADD DUP4 DUP1 MLOAD SWAP1 PUSH1 0x20 ADD SWAP1 DUP1 DUP4 DUP4 JUMPDEST PUSH1 0x20 DUP4 LT PUSH2 0x39D9 JUMPI DUP1 MLOAD DUP3 MSTORE PUSH1 0x1F NOT SWAP1 SWAP3 ADD SWAP2 PUSH1 0x20 SWAP2 DUP3 ADD SWAP2 ADD PUSH2 0x39BA JUMP JUMPDEST MLOAD DUP2 MLOAD PUSH1 0x20 SWAP4 DUP5 SUB PUSH2 0x100 EXP PUSH1 0x0 NOT ADD DUP1 NOT SWAP1 SWAP3 AND SWAP2 AND OR SWAP1 MSTORE PUSH8 0x383C111031BC9E91 PUSH1 0xC1 SHL SWAP2 SWAP1 SWAP4 ADD SWAP1 DUP2 MSTORE DUP5 MLOAD PUSH1 0x8 SWAP1 SWAP2 ADD SWAP3 DUP6 ADD SWAP2 POP DUP1 DUP4 DUP4 JUMPDEST PUSH1 0x20 DUP4 LT PUSH2 0x3A35 JUMPI DUP1 MLOAD DUP3 MSTORE PUSH1 0x1F NOT SWAP1 SWAP3 ADD SWAP2 PUSH1 0x20 SWAP2 DUP3 ADD SWAP2 ADD PUSH2 0x3A16 JUMP JUMPDEST PUSH1 0x1 DUP4 PUSH1 0x20 SUB PUSH2 0x100 EXP SUB DUP1 NOT DUP3 MLOAD AND DUP2 DUP5 MLOAD AND DUP1 DUP3 OR DUP6 MSTORE POP POP POP POP POP POP SWAP1 POP ADD DUP1 PUSH2 0x527A PUSH1 0x2A SWAP2 CODECOPY PUSH1 0x2A ADD SWAP5 POP POP POP POP POP PUSH1 0x40 MLOAD PUSH1 0x20 DUP2 DUP4 SUB SUB DUP2 MSTORE SWAP1 PUSH1 0x40 MSTORE SWAP5 POP PUSH2 0x3C6B JUMP JUMPDEST DUP4 DUP4 DUP4 DUP4 PUSH1 0x40 MLOAD PUSH1 0x20 ADD DUP1 DUP1 PUSH12 0x1E31B4B931B6329031BC1E91 PUSH1 0xA1 SHL DUP2 MSTORE POP PUSH1 0xC ADD DUP6 DUP1 MLOAD SWAP1 PUSH1 0x20 ADD SWAP1 DUP1 DUP4 DUP4 JUMPDEST PUSH1 0x20 DUP4 LT PUSH2 0x3ACB JUMPI DUP1 MLOAD DUP3 MSTORE PUSH1 0x1F NOT SWAP1 SWAP3 ADD SWAP2 PUSH1 0x20 SWAP2 DUP3 ADD SWAP2 ADD PUSH2 0x3AAC JUMP JUMPDEST MLOAD DUP2 MLOAD PUSH1 0x20 SWAP4 DUP5 SUB PUSH2 0x100 EXP PUSH1 0x0 NOT ADD DUP1 NOT SWAP1 SWAP3 AND SWAP2 AND OR SWAP1 MSTORE PUSH8 0x383C111031BC9E91 PUSH1 0xC1 SHL SWAP2 SWAP1 SWAP4 ADD SWAP1 DUP2 MSTORE DUP7 MLOAD PUSH1 0x8 SWAP1 SWAP2 ADD SWAP3 DUP8 ADD SWAP2 POP DUP1 DUP4 DUP4 JUMPDEST PUSH1 0x20 DUP4 LT PUSH2 0x3B27 JUMPI DUP1 MLOAD DUP3 MSTORE PUSH1 0x1F NOT SWAP1 SWAP3 ADD SWAP2 PUSH1 0x20 SWAP2 DUP3 ADD SWAP2 ADD PUSH2 0x3B08 JUMP JUMPDEST MLOAD DUP2 MLOAD PUSH1 0x20 SWAP4 DUP5 SUB PUSH2 0x100 EXP PUSH1 0x0 NOT ADD DUP1 NOT SWAP1 SWAP3 AND SWAP2 AND OR SWAP1 MSTORE PUSH32 0x70782220723D22347078222066696C6C3D22776869746522202F3E0000000000 SWAP2 SWAP1 SWAP4 ADD SWAP1 DUP2 MSTORE PUSH12 0x1E31B4B931B6329031BC1E91 PUSH1 0xA1 SHL PUSH1 0x1B DUP3 ADD MSTORE DUP6 MLOAD PUSH1 0x27 SWAP1 SWAP2 ADD SWAP3 DUP7 ADD SWAP2 POP DUP1 DUP4 DUP4 JUMPDEST PUSH1 0x20 DUP4 LT PUSH2 0x3BAD JUMPI DUP1 MLOAD DUP3 MSTORE PUSH1 0x1F NOT SWAP1 SWAP3 ADD SWAP2 PUSH1 0x20 SWAP2 DUP3 ADD SWAP2 ADD PUSH2 0x3B8E JUMP JUMPDEST MLOAD DUP2 MLOAD PUSH1 0x20 SWAP4 DUP5 SUB PUSH2 0x100 EXP PUSH1 0x0 NOT ADD DUP1 NOT SWAP1 SWAP3 AND SWAP2 AND OR SWAP1 MSTORE PUSH8 0x383C111031BC9E91 PUSH1 0xC1 SHL SWAP2 SWAP1 SWAP4 ADD SWAP1 DUP2 MSTORE DUP5 MLOAD PUSH1 0x8 SWAP1 SWAP2 ADD SWAP3 DUP6 ADD SWAP2 POP DUP1 DUP4 DUP4 JUMPDEST PUSH1 0x20 DUP4 LT PUSH2 0x3C09 JUMPI DUP1 MLOAD DUP3 MSTORE PUSH1 0x1F NOT SWAP1 SWAP3 ADD SWAP2 PUSH1 0x20 SWAP2 DUP3 ADD SWAP2 ADD PUSH2 0x3BEA JUMP JUMPDEST PUSH1 0x1 DUP4 PUSH1 0x20 SUB PUSH2 0x100 EXP SUB DUP1 NOT DUP3 MLOAD AND DUP2 DUP5 MLOAD AND DUP1 DUP3 OR DUP6 MSTORE POP POP POP POP POP POP SWAP1 POP ADD DUP1 PUSH32 0x70782220723D22347078222066696C6C3D22776869746522202F3E0000000000 DUP2 MSTORE POP PUSH1 0x1B ADD SWAP5 POP POP POP POP POP PUSH1 0x40 MLOAD PUSH1 0x20 DUP2 DUP4 SUB SUB DUP2 MSTORE SWAP1 PUSH1 0x40 MSTORE SWAP5 POP JUMPDEST POP POP POP POP SWAP2 SWAP1 POP JUMP JUMPDEST PUSH1 0x60 PUSH1 0x0 PUSH1 0x40 MLOAD DUP1 PUSH1 0x20 ADD PUSH1 0x40 MSTORE DUP1 PUSH1 0x0 DUP2 MSTORE POP SWAP1 POP PUSH1 0x0 DUP4 PUSH1 0x2 SIGNEXTEND SLT ISZERO PUSH2 0x3CD6 JUMPI DUP3 PUSH1 0x0 NOT MUL SWAP3 POP PUSH1 0x40 MLOAD DUP1 PUSH1 0x40 ADD PUSH1 0x40 MSTORE DUP1 PUSH1 0x1 DUP2 MSTORE PUSH1 0x20 ADD PUSH32 0x2D00000000000000000000000000000000000000000000000000000000000000 DUP2 MSTORE POP SWAP1 POP JUMPDEST DUP1 PUSH2 0x3CE3 DUP5 PUSH1 0x2 SIGNEXTEND PUSH2 0x1FAB JUMP JUMPDEST PUSH1 0x40 MLOAD PUSH1 0x20 ADD DUP1 DUP4 DUP1 MLOAD SWAP1 PUSH1 0x20 ADD SWAP1 DUP1 DUP4 DUP4 JUMPDEST PUSH1 0x20 DUP4 LT PUSH2 0x3D15 JUMPI DUP1 MLOAD DUP3 MSTORE PUSH1 0x1F NOT SWAP1 SWAP3 ADD SWAP2 PUSH1 0x20 SWAP2 DUP3 ADD SWAP2 ADD PUSH2 0x3CF6 JUMP JUMPDEST MLOAD DUP2 MLOAD PUSH1 0x20 SWAP4 DUP5 SUB PUSH2 0x100 EXP PUSH1 0x0 NOT ADD DUP1 NOT SWAP1 SWAP3 AND SWAP2 AND OR SWAP1 MSTORE DUP6 MLOAD SWAP2 SWAP1 SWAP4 ADD SWAP3 DUP6 ADD SWAP2 POP DUP1 DUP4 DUP4 JUMPDEST PUSH1 0x20 DUP4 LT PUSH2 0x3D5D JUMPI DUP1 MLOAD DUP3 MSTORE PUSH1 0x1F NOT SWAP1 SWAP3 ADD SWAP2 PUSH1 0x20 SWAP2 DUP3 ADD SWAP2 ADD PUSH2 0x3D3E JUMP JUMPDEST PUSH1 0x1 DUP4 PUSH1 0x20 SUB PUSH2 0x100 EXP SUB DUP1 NOT DUP3 MLOAD AND DUP2 DUP5 MLOAD AND DUP1 DUP3 OR DUP6 MSTORE POP POP POP POP POP POP SWAP1 POP ADD SWAP3 POP POP POP PUSH1 0x40 MLOAD PUSH1 0x20 DUP2 DUP4 SUB SUB DUP2 MSTORE SWAP1 PUSH1 0x40 MSTORE SWAP2 POP POP SWAP2 SWAP1 POP JUMP JUMPDEST PUSH1 0x40 DUP1 MLOAD PUSH2 0x100 DUP2 ADD DUP3 MSTORE PUSH1 0x0 DUP1 DUP3 MSTORE PUSH1 0x20 DUP3 ADD DUP2 SWAP1 MSTORE SWAP2 DUP2 ADD DUP3 SWAP1 MSTORE PUSH1 0x60 DUP2 ADD DUP3 SWAP1 MSTORE PUSH1 0x80 DUP2 ADD DUP3 SWAP1 MSTORE PUSH1 0xA0 DUP2 ADD DUP3 SWAP1 MSTORE PUSH1 0xC0 DUP2 ADD DUP3 SWAP1 MSTORE PUSH1 0xE0 DUP2 ADD SWAP2 SWAP1 SWAP2 MSTORE SWAP1 JUMP JUMPDEST DUP1 CALLDATALOAD PUSH2 0x222 DUP2 PUSH2 0x4518 JUMP JUMPDEST DUP1 CALLDATALOAD DUP1 ISZERO ISZERO DUP2 EQ PUSH2 0x222 JUMPI PUSH1 0x0 DUP1 REVERT JUMPDEST DUP1 CALLDATALOAD PUSH1 0x2 DUP2 SWAP1 SIGNEXTEND DUP2 EQ PUSH2 0x222 JUMPI PUSH1 0x0 DUP1 REVERT JUMPDEST PUSH1 0x0 DUP3 PUSH1 0x1F DUP4 ADD SLT PUSH2 0x3E1B JUMPI DUP1 DUP2 REVERT JUMPDEST DUP2 CALLDATALOAD PUSH2 0x3E2E PUSH2 0x3E29 DUP3 PUSH2 0x4481 JUMP JUMPDEST PUSH2 0x445D JUMP JUMPDEST DUP2 DUP2 MSTORE DUP5 PUSH1 0x20 DUP4 DUP7 ADD ADD GT ISZERO PUSH2 0x3E42 JUMPI DUP3 DUP4 REVERT JUMPDEST DUP2 PUSH1 0x20 DUP6 ADD PUSH1 0x20 DUP4 ADD CALLDATACOPY SWAP1 DUP2 ADD PUSH1 0x20 ADD SWAP2 SWAP1 SWAP2 MSTORE SWAP3 SWAP2 POP POP JUMP JUMPDEST DUP1 CALLDATALOAD PUSH3 0xFFFFFF DUP2 AND DUP2 EQ PUSH2 0x222 JUMPI PUSH1 0x0 DUP1 REVERT JUMPDEST DUP1 CALLDATALOAD PUSH1 0xFF DUP2 AND DUP2 EQ PUSH2 0x222 JUMPI PUSH1 0x0 DUP1 REVERT JUMPDEST PUSH1 0x0 PUSH1 0x20 DUP3 DUP5 SUB SLT ISZERO PUSH2 0x3E91 JUMPI DUP1 DUP2 REVERT JUMPDEST DUP2 CALLDATALOAD PUSH2 0x20B DUP2 PUSH2 0x4518 JUMP JUMPDEST PUSH1 0x0 DUP1 PUSH1 0x40 DUP4 DUP6 SUB SLT ISZERO PUSH2 0x3EAE JUMPI DUP1 DUP2 REVERT JUMPDEST DUP3 CALLDATALOAD PUSH2 0x3EB9 DUP2 PUSH2 0x4518 JUMP JUMPDEST SWAP5 PUSH1 0x20 SWAP4 SWAP1 SWAP4 ADD CALLDATALOAD SWAP4 POP POP POP JUMP JUMPDEST PUSH1 0x0 DUP1 PUSH1 0x40 DUP4 DUP6 SUB SLT ISZERO PUSH2 0x3ED9 JUMPI DUP2 DUP3 REVERT JUMPDEST PUSH2 0x3EE2 DUP4 PUSH2 0x3DF9 JUMP JUMPDEST SWAP2 POP PUSH2 0x3EF0 PUSH1 0x20 DUP5 ADD PUSH2 0x3DF9 JUMP JUMPDEST SWAP1 POP SWAP3 POP SWAP3 SWAP1 POP JUMP JUMPDEST PUSH1 0x0 DUP1 PUSH1 0x0 DUP1 PUSH1 0x0 PUSH1 0xA0 DUP7 DUP9 SUB SLT ISZERO PUSH2 0x3F10 JUMPI DUP1 DUP2 REVERT JUMPDEST PUSH2 0x3F19 DUP7 PUSH2 0x3DF9 JUMP JUMPDEST SWAP5 POP PUSH2 0x3F27 PUSH1 0x20 DUP8 ADD PUSH2 0x3DF9 JUMP JUMPDEST SWAP4 POP PUSH2 0x3F35 PUSH1 0x40 DUP8 ADD PUSH2 0x3E6F JUMP JUMPDEST SWAP3 POP PUSH2 0x3F43 PUSH1 0x60 DUP8 ADD PUSH2 0x3E6F JUMP JUMPDEST SWAP2 POP PUSH2 0x3F51 PUSH1 0x80 DUP8 ADD PUSH2 0x3DE9 JUMP JUMPDEST SWAP1 POP SWAP3 SWAP6 POP SWAP3 SWAP6 SWAP1 SWAP4 POP JUMP JUMPDEST PUSH1 0x0 PUSH1 0x20 DUP3 DUP5 SUB SLT ISZERO PUSH2 0x3F6E JUMPI DUP1 DUP2 REVERT JUMPDEST DUP2 MLOAD PUSH8 0xFFFFFFFFFFFFFFFF DUP2 GT ISZERO PUSH2 0x3F84 JUMPI DUP2 DUP3 REVERT JUMPDEST DUP3 ADD PUSH1 0x1F DUP2 ADD DUP5 SGT PUSH2 0x3F94 JUMPI DUP2 DUP3 REVERT JUMPDEST DUP1 MLOAD PUSH2 0x3FA2 PUSH2 0x3E29 DUP3 PUSH2 0x4481 JUMP JUMPDEST DUP2 DUP2 MSTORE DUP6 PUSH1 0x20 DUP4 DUP6 ADD ADD GT ISZERO PUSH2 0x3FB6 JUMPI DUP4 DUP5 REVERT JUMPDEST PUSH2 0x2D5 DUP3 PUSH1 0x20 DUP4 ADD PUSH1 0x20 DUP7 ADD PUSH2 0x44E8 JUMP JUMPDEST PUSH1 0x0 PUSH1 0x20 DUP3 DUP5 SUB SLT ISZERO PUSH2 0x3FD8 JUMPI DUP1 DUP2 REVERT JUMPDEST DUP2 CALLDATALOAD PUSH8 0xFFFFFFFFFFFFFFFF DUP2 GT ISZERO PUSH2 0x3FEE JUMPI DUP2 DUP3 REVERT JUMPDEST DUP3 ADD PUSH2 0x1C0 DUP2 DUP6 SUB SLT ISZERO PUSH2 0x20B JUMPI DUP2 DUP3 REVERT JUMPDEST PUSH1 0x0 PUSH1 0x20 DUP3 DUP5 SUB SLT ISZERO PUSH2 0x4011 JUMPI DUP1 DUP2 REVERT JUMPDEST DUP2 CALLDATALOAD PUSH8 0xFFFFFFFFFFFFFFFF DUP1 DUP3 GT ISZERO PUSH2 0x4028 JUMPI DUP3 DUP4 REVERT JUMPDEST DUP2 DUP5 ADD SWAP2 POP PUSH2 0x1C0 DUP1 DUP4 DUP8 SUB SLT ISZERO PUSH2 0x403E JUMPI DUP4 DUP5 REVERT JUMPDEST PUSH2 0x4047 DUP2 PUSH2 0x445D JUMP JUMPDEST SWAP1 POP DUP3 CALLDATALOAD DUP2 MSTORE PUSH2 0x4059 PUSH1 0x20 DUP5 ADD PUSH2 0x3DDE JUMP JUMPDEST PUSH1 0x20 DUP3 ADD MSTORE PUSH2 0x406A PUSH1 0x40 DUP5 ADD PUSH2 0x3DDE JUMP JUMPDEST PUSH1 0x40 DUP3 ADD MSTORE PUSH1 0x60 DUP4 ADD CALLDATALOAD DUP3 DUP2 GT ISZERO PUSH2 0x4080 JUMPI DUP5 DUP6 REVERT JUMPDEST PUSH2 0x408C DUP8 DUP3 DUP7 ADD PUSH2 0x3E0B JUMP JUMPDEST PUSH1 0x60 DUP4 ADD MSTORE POP PUSH1 0x80 DUP4 ADD CALLDATALOAD DUP3 DUP2 GT ISZERO PUSH2 0x40A3 JUMPI DUP5 DUP6 REVERT JUMPDEST PUSH2 0x40AF DUP8 DUP3 DUP7 ADD PUSH2 0x3E0B JUMP JUMPDEST PUSH1 0x80 DUP4 ADD MSTORE POP PUSH2 0x40C1 PUSH1 0xA0 DUP5 ADD PUSH2 0x3E6F JUMP JUMPDEST PUSH1 0xA0 DUP3 ADD MSTORE PUSH2 0x40D2 PUSH1 0xC0 DUP5 ADD PUSH2 0x3E6F JUMP JUMPDEST PUSH1 0xC0 DUP3 ADD MSTORE PUSH2 0x40E3 PUSH1 0xE0 DUP5 ADD PUSH2 0x3DE9 JUMP JUMPDEST PUSH1 0xE0 DUP3 ADD MSTORE PUSH2 0x100 SWAP2 POP PUSH2 0x40F8 DUP3 DUP5 ADD PUSH2 0x3DF9 JUMP JUMPDEST DUP3 DUP3 ADD MSTORE PUSH2 0x120 SWAP2 POP PUSH2 0x410C DUP3 DUP5 ADD PUSH2 0x3DF9 JUMP JUMPDEST DUP3 DUP3 ADD MSTORE PUSH2 0x140 SWAP2 POP PUSH2 0x4120 DUP3 DUP5 ADD PUSH2 0x3DF9 JUMP JUMPDEST DUP3 DUP3 ADD MSTORE PUSH2 0x160 SWAP2 POP PUSH2 0x4134 DUP3 DUP5 ADD PUSH2 0x3DF9 JUMP JUMPDEST DUP3 DUP3 ADD MSTORE PUSH2 0x180 SWAP2 POP PUSH2 0x4148 DUP3 DUP5 ADD PUSH2 0x3E5C JUMP JUMPDEST DUP3 DUP3 ADD MSTORE PUSH2 0x1A0 SWAP2 POP PUSH2 0x415C DUP3 DUP5 ADD PUSH2 0x3DDE JUMP JUMPDEST SWAP2 DUP2 ADD SWAP2 SWAP1 SWAP2 MSTORE SWAP5 SWAP4 POP POP POP POP JUMP JUMPDEST PUSH1 0x0 DUP1 PUSH1 0x0 PUSH1 0x60 DUP5 DUP7 SUB SLT ISZERO PUSH2 0x417F JUMPI DUP3 DUP4 REVERT JUMPDEST DUP4 CALLDATALOAD PUSH2 0x418A DUP2 PUSH2 0x4518 JUMP JUMPDEST SWAP3 POP PUSH2 0x4198 PUSH1 0x20 DUP6 ADD PUSH2 0x3E6F JUMP JUMPDEST SWAP2 POP PUSH2 0x41A6 PUSH1 0x40 DUP6 ADD PUSH2 0x3E6F JUMP JUMPDEST SWAP1 POP SWAP3 POP SWAP3 POP SWAP3 JUMP JUMPDEST PUSH1 0x0 PUSH1 0x20 DUP3 DUP5 SUB SLT ISZERO PUSH2 0x41C0 JUMPI DUP1 DUP2 REVERT JUMPDEST PUSH2 0x20B DUP3 PUSH2 0x3E5C JUMP JUMPDEST PUSH1 0x0 DUP1 PUSH1 0x40 DUP4 DUP6 SUB SLT ISZERO PUSH2 0x41DB JUMPI DUP2 DUP3 REVERT JUMPDEST DUP3 CALLDATALOAD SWAP2 POP PUSH1 0x20 DUP4 ADD CALLDATALOAD PUSH2 0x41ED DUP2 PUSH2 0x4518 JUMP JUMPDEST DUP1 SWAP2 POP POP SWAP3 POP SWAP3 SWAP1 POP JUMP JUMPDEST PUSH1 0x1 PUSH1 0x1 PUSH1 0xA0 SHL SUB AND SWAP1 MSTORE JUMP JUMPDEST ISZERO ISZERO SWAP1 MSTORE JUMP JUMPDEST PUSH1 0x2 SIGNEXTEND SWAP1 MSTORE JUMP JUMPDEST PUSH1 0x0 DUP3 DUP5 MSTORE DUP3 DUP3 PUSH1 0x20 DUP7 ADD CALLDATACOPY DUP1 PUSH1 0x20 DUP5 DUP7 ADD ADD MSTORE PUSH1 0x20 PUSH1 0x1F NOT PUSH1 0x1F DUP6 ADD AND DUP6 ADD ADD SWAP1 POP SWAP4 SWAP3 POP POP POP JUMP JUMPDEST PUSH1 0x0 DUP2 MLOAD DUP1 DUP5 MSTORE PUSH2 0x4254 DUP2 PUSH1 0x20 DUP7 ADD PUSH1 0x20 DUP7 ADD PUSH2 0x44E8 JUMP JUMPDEST PUSH1 0x1F ADD PUSH1 0x1F NOT AND SWAP3 SWAP1 SWAP3 ADD PUSH1 0x20 ADD SWAP3 SWAP2 POP POP JUMP JUMPDEST PUSH3 0xFFFFFF AND SWAP1 MSTORE JUMP JUMPDEST PUSH1 0xFF AND SWAP1 MSTORE JUMP JUMPDEST SWAP1 ISZERO ISZERO DUP2 MSTORE PUSH1 0x20 ADD SWAP1 JUMP JUMPDEST PUSH1 0x0 PUSH1 0x20 DUP3 MSTORE PUSH2 0x20B PUSH1 0x20 DUP4 ADD DUP5 PUSH2 0x423C JUMP JUMPDEST PUSH1 0x0 PUSH1 0x40 DUP3 MSTORE PUSH2 0x42A9 PUSH1 0x40 DUP4 ADD DUP6 PUSH2 0x423C JUMP JUMPDEST DUP3 DUP2 SUB PUSH1 0x20 DUP5 ADD MSTORE PUSH2 0x2D5 DUP2 DUP6 PUSH2 0x423C JUMP JUMPDEST PUSH1 0x0 PUSH1 0x20 DUP3 MSTORE DUP3 CALLDATALOAD PUSH1 0x20 DUP4 ADD MSTORE PUSH2 0x42D4 PUSH1 0x20 DUP5 ADD PUSH2 0x3DDE JUMP JUMPDEST PUSH2 0x42E1 PUSH1 0x40 DUP5 ADD DUP3 PUSH2 0x41F8 JUMP JUMPDEST POP PUSH2 0x42EE PUSH1 0x40 DUP5 ADD PUSH2 0x3DDE JUMP JUMPDEST PUSH2 0x42FB PUSH1 0x60 DUP5 ADD DUP3 PUSH2 0x41F8 JUMP JUMPDEST POP PUSH2 0x4309 PUSH1 0x60 DUP5 ADD DUP5 PUSH2 0x44A3 JUMP JUMPDEST PUSH2 0x1C0 DUP1 PUSH1 0x80 DUP7 ADD MSTORE PUSH2 0x4321 PUSH2 0x1E0 DUP7 ADD DUP4 DUP6 PUSH2 0x4212 JUMP JUMPDEST SWAP3 POP PUSH2 0x4330 PUSH1 0x80 DUP8 ADD DUP8 PUSH2 0x44A3 JUMP JUMPDEST DUP7 DUP6 SUB PUSH1 0x1F NOT ADD PUSH1 0xA0 DUP9 ADD MSTORE SWAP3 POP PUSH2 0x4349 DUP5 DUP5 DUP4 PUSH2 0x4212 JUMP JUMPDEST SWAP4 POP POP PUSH2 0x4358 PUSH1 0xA0 DUP8 ADD PUSH2 0x3E6F JUMP JUMPDEST SWAP2 POP PUSH2 0x4367 PUSH1 0xC0 DUP7 ADD DUP4 PUSH2 0x4271 JUMP JUMPDEST PUSH2 0x4373 PUSH1 0xC0 DUP8 ADD PUSH2 0x3E6F JUMP JUMPDEST SWAP2 POP PUSH2 0x4382 PUSH1 0xE0 DUP7 ADD DUP4 PUSH2 0x4271 JUMP JUMPDEST PUSH2 0x438E PUSH1 0xE0 DUP8 ADD PUSH2 0x3DE9 JUMP JUMPDEST SWAP2 POP PUSH2 0x100 PUSH2 0x439F DUP2 DUP8 ADD DUP5 PUSH2 0x4205 JUMP JUMPDEST PUSH2 0x43AA DUP2 DUP9 ADD PUSH2 0x3DF9 JUMP JUMPDEST SWAP3 POP POP PUSH2 0x120 PUSH2 0x43BC DUP2 DUP8 ADD DUP5 PUSH2 0x420B JUMP JUMPDEST PUSH2 0x43C7 DUP2 DUP9 ADD PUSH2 0x3DF9 JUMP JUMPDEST SWAP3 POP POP PUSH2 0x140 PUSH2 0x43D9 DUP2 DUP8 ADD DUP5 PUSH2 0x420B JUMP JUMPDEST PUSH2 0x43E4 DUP2 DUP9 ADD PUSH2 0x3DF9 JUMP JUMPDEST SWAP3 POP POP PUSH2 0x160 PUSH2 0x43F6 DUP2 DUP8 ADD DUP5 PUSH2 0x420B JUMP JUMPDEST PUSH2 0x4401 DUP2 DUP9 ADD PUSH2 0x3DF9 JUMP JUMPDEST SWAP3 POP POP PUSH2 0x180 PUSH2 0x4413 DUP2 DUP8 ADD DUP5 PUSH2 0x420B JUMP JUMPDEST PUSH2 0x441E DUP2 DUP9 ADD PUSH2 0x3E5C JUMP JUMPDEST SWAP3 POP POP PUSH2 0x1A0 PUSH2 0x4430 DUP2 DUP8 ADD DUP5 PUSH2 0x4268 JUMP JUMPDEST PUSH2 0x443B DUP2 DUP9 ADD PUSH2 0x3DDE JUMP JUMPDEST SWAP3 POP POP PUSH2 0x444A DUP2 DUP7 ADD DUP4 PUSH2 0x41F8 JUMP JUMPDEST POP SWAP1 SWAP5 SWAP4 POP POP POP POP JUMP JUMPDEST SWAP1 DUP2 MSTORE PUSH1 0x20 ADD SWAP1 JUMP JUMPDEST PUSH1 0x40 MLOAD DUP2 DUP2 ADD PUSH8 0xFFFFFFFFFFFFFFFF DUP2 GT DUP3 DUP3 LT OR ISZERO PUSH2 0x4479 JUMPI INVALID JUMPDEST PUSH1 0x40 MSTORE SWAP2 SWAP1 POP JUMP JUMPDEST PUSH1 0x0 PUSH8 0xFFFFFFFFFFFFFFFF DUP3 GT ISZERO PUSH2 0x4495 JUMPI INVALID JUMPDEST POP PUSH1 0x1F ADD PUSH1 0x1F NOT AND PUSH1 0x20 ADD SWAP1 JUMP JUMPDEST PUSH1 0x0 DUP1 DUP4 CALLDATALOAD PUSH1 0x1E NOT DUP5 CALLDATASIZE SUB ADD DUP2 SLT PUSH2 0x44B9 JUMPI DUP3 DUP4 REVERT JUMPDEST DUP4 ADD PUSH1 0x20 DUP2 ADD SWAP3 POP CALLDATALOAD SWAP1 POP PUSH8 0xFFFFFFFFFFFFFFFF DUP2 GT ISZERO PUSH2 0x44D9 JUMPI PUSH1 0x0 DUP1 REVERT JUMPDEST DUP1 CALLDATASIZE SUB DUP4 SGT ISZERO PUSH2 0x1EF JUMPI PUSH1 0x0 DUP1 REVERT JUMPDEST PUSH1 0x0 JUMPDEST DUP4 DUP2 LT ISZERO PUSH2 0x4503 JUMPI DUP2 DUP2 ADD MLOAD DUP4 DUP3 ADD MSTORE PUSH1 0x20 ADD PUSH2 0x44EB JUMP JUMPDEST DUP4 DUP2 GT ISZERO PUSH2 0x4512 JUMPI PUSH1 0x0 DUP5 DUP5 ADD MSTORE JUMPDEST POP POP POP POP JUMP JUMPDEST PUSH1 0x1 PUSH1 0x1 PUSH1 0xA0 SHL SUB DUP2 AND DUP2 EQ PUSH2 0x452D JUMPI PUSH1 0x0 DUP1 REVERT JUMPDEST POP JUMP INVALID KECCAK256 EXTCODECOPY PUSH2 0x6E69 PUSH14 0x6174652061646469746976653D22 PUSH20 0x756D22206174747269627574654E616D653D2273 PUSH21 0x6172744F6666736574222066726F6D3D2230252220 PUSH21 0x6F3D22313030252220626567696E3D223073222064 PUSH22 0x723D223330732220726570656174436F756E743D2269 PUSH15 0x646566696E69746522202F3E3C2F74 PUSH6 0x787450617468 RETURNDATACOPY EXTCODECOPY 0x2F PUSH21 0x6578743E3C73746F70206F66667365743D222E3922 KECCAK256 PUSH20 0x746F702D636F6C6F723D22776869746522207374 PUSH16 0x702D6F7061636974793D223022202F3E EXTCODECOPY 0x2F PUSH13 0x696E6561724772616469656E74 RETURNDATACOPY EXTCODECOPY PUSH19 0x656374207374796C653D2266696C7465723A20 PUSH22 0x726C28236631292220783D223070782220793D223070 PUSH25 0x222077696474683D22323930707822206865696768743D2235 ADDRESS ADDRESS PUSH17 0x7822202F3E3C6665496D61676520726573 PUSH22 0x6C743D2270332220786C696E6B3A687265663D226461 PUSH21 0x613A696D6167652F7376672B786D6C3B6261736536 CALLVALUE 0x2C EXTCODECOPY PUSH8 0x206D61736B3D2275 PUSH19 0x6C2823666164652D73796D626F6C29223E3C72 PUSH6 0x63742066696C PUSH13 0x3D226E6F6E652220783D223070 PUSH25 0x2220793D22307078222077696474683D223239307078222068 PUSH6 0x696768743D22 ORIGIN ADDRESS ADDRESS PUSH17 0x7822202F3E203C7465787420793D223730 PUSH17 0x782220783D2233327078222066696C6C3D 0x22 PUSH24 0x686974652220666F6E742D66616D696C793D2227436F7572 PUSH10 0x6572204E6577272C206D PUSH16 0x6E6F73706163652220666F6E742D7765 PUSH10 0x6768743D223230302220 PUSH7 0x6F6E742D73697A PUSH6 0x3D2233367078 0x22 RETURNDATACOPY EXTCODECOPY PUSH20 0x76672077696474683D2232393022206865696768 PUSH21 0x3D22353030222076696577426F783D223020302032 CODECOPY ADDRESS KECCAK256 CALLDATALOAD ADDRESS ADDRESS 0x22 KECCAK256 PUSH25 0x6D6C6E733D22687474703A2F2F7777772E77332E6F72672F32 ADDRESS ADDRESS ADDRESS 0x2F PUSH20 0x76672270782C2030707829222063783D22307078 0x22 KECCAK256 PUSH4 0x793D2230 PUSH17 0x782220723D22347078222066696C6C3D22 PUSH24 0x68697465222F3E3C2F673E203C616E696D61746520616464 PUSH10 0x746976653D2273756D22 KECCAK256 PUSH2 0x7474 PUSH19 0x69627574654E616D653D2273746172744F6666 PUSH20 0x6574222066726F6D3D2230252220746F3D223130 ADDRESS 0x25 0x22 KECCAK256 PUSH3 0x656769 PUSH15 0x3D22307322206475723D2233307322 KECCAK256 PUSH19 0x6570656174436F756E743D22696E646566696E PUSH10 0x746522202F3E203C2F74 PUSH6 0x787450617468 RETURNDATACOPY EXTCODECOPY PUSH14 0x61736B2069643D22666164652D75 PUSH17 0x22206D61736B436F6E74656E74556E6974 PUSH20 0x3D226F626A656374426F756E64696E67426F7822 RETURNDATACOPY EXTCODECOPY PUSH19 0x6563742077696474683D223122206865696768 PUSH21 0x3D2231222066696C6C3D2275726C2823677261642D PUSH22 0x702922202F3E3C2F6D61736B3E22207374726F6B653D 0x22 PUSH19 0x67626128302C302C302C302E33292220737472 PUSH16 0x6B652D77696474683D22333270782220 PUSH7 0x696C6C3D226E6F PUSH15 0x6522207374726F6B652D6C696E6563 PUSH2 0x703D 0x22 PUSH19 0x6F756E6422202F3E203C616E696D6174652061 PUSH5 0x6469746976 PUSH6 0x3D2273756D22 KECCAK256 PUSH2 0x7474 PUSH19 0x69627574654E616D653D2273746172744F6666 PUSH20 0x6574222066726F6D3D2230252220746F3D223130 ADDRESS 0x25 0x22 KECCAK256 PUSH3 0x656769 PUSH15 0x3D22307322206475723D2233307322 KECCAK256 EXTCODECOPY PUSH8 0x207374796C653D22 PUSH21 0x72616E73666F726D3A7472616E736C617465283239 PUSH17 0x782C20343434707829223E3C636972636C PUSH6 0x207374796C65 RETURNDATASIZE 0x22 PUSH21 0x72616E73666F726D3A7472616E736C617465336428 EXTCODECOPY PUSH20 0x76672077696474683D2732393027206865696768 PUSH21 0x3D27353030272076696577426F783D273020302032 CODECOPY ADDRESS KECCAK256 CALLDATALOAD ADDRESS ADDRESS 0x27 KECCAK256 PUSH25 0x6D6C6E733D27687474703A2F2F7777772E77332E6F72672F32 ADDRESS ADDRESS ADDRESS 0x2F PUSH20 0x7667273E3C636972636C652063783D27203C6720 PUSH20 0x74796C653D2266696C7465723A75726C2823746F PUSH17 0x2D726567696F6E2D626C7572293B207472 PUSH2 0x6E73 PUSH7 0x6F726D3A736361 PUSH13 0x6528312E35293B207472616E73 PUSH7 0x6F726D2D6F7269 PUSH8 0x696E3A63656E7465 PUSH19 0x20746F703B223E22202F3E3C6665426C656E64 KECCAK256 PUSH14 0x6F64653D226F7665726C61792220 PUSH10 0x6E3D2270302220696E32 RETURNDATASIZE 0x22 PUSH17 0x3122202F3E3C6665426C656E64206D6F64 PUSH6 0x3D226578636C PUSH22 0x73696F6E2220696E323D22703222202F3E3C6665426C PUSH6 0x6E64206D6F64 PUSH6 0x3D226F766572 PUSH13 0x61792220696E323D2270332220 PUSH19 0x6573756C743D22626C656E644F757422202F3E EXTCODECOPY PUSH7 0x65476175737369 PUSH2 0x6E42 PUSH13 0x7572203C706174682069643D22 PUSH14 0x696E696D61702220643D224D3233 CALLVALUE KECCAK256 CALLVALUE CALLVALUE CALLVALUE NUMBER ORIGIN CALLER CALLVALUE KECCAK256 CALLVALUE CALLDATALOAD CALLDATACOPY 0x2E CODECOPY CALLVALUE CODECOPY KECCAK256 ORIGIN CALLVALUE ORIGIN 0x2E ORIGIN BALANCE KECCAK256 CALLVALUE CALLDATASIZE CALLER KECCAK256 ORIGIN CALLDATALOAD CALLER KECCAK256 CALLVALUE CALLDATASIZE CALLER 0x22 KECCAK256 0x2F RETURNDATACOPY EXTCODECOPY PUSH14 0x61736B2069643D226E6F6E652220 PUSH14 0x61736B436F6E74656E74556E6974 PUSH20 0x3D226F626A656374426F756E64696E67426F7822 RETURNDATACOPY EXTCODECOPY PUSH19 0x6563742077696474683D223122206865696768 PUSH21 0x3D2231222066696C6C3D22776869746522202F3E3C 0x2F PUSH14 0x61736B3E2220783D223070782220 PUSH26 0x3D22307078222077696474683D22323930707822206865696768 PUSH21 0x3D22353030707822202F3E203C616E696D61746520 PUSH2 0x6464 PUSH10 0x746976653D2273756D22 KECCAK256 PUSH2 0x7474 PUSH19 0x69627574654E616D653D2273746172744F6666 PUSH20 0x6574222066726F6D3D2230252220746F3D223130 ADDRESS 0x25 0x22 KECCAK256 PUSH3 0x656769 PUSH15 0x3D22307322206475723D2233307322 KECCAK256 PUSH19 0x6570656174436F756E743D22696E646566696E PUSH10 0x746522202F3E3C746578 PUSH21 0x20783D22313270782220793D22313770782220666F PUSH15 0x742D66616D696C793D2227436F7572 PUSH10 0x6572204E6577272C206D PUSH16 0x6E6F73706163652220666F6E742D7369 PUSH27 0x653D2231327078222066696C6C3D227768697465223E3C74737061 PUSH15 0x2066696C6C3D227267626128323535 0x2C ORIGIN CALLDATALOAD CALLDATALOAD 0x2C ORIGIN CALLDATALOAD CALLDATALOAD 0x2C ADDRESS 0x2E CALLDATASIZE 0x29 0x22 RETURNDATACOPY 0x4D PUSH10 0x6E205469636B3A203C2F PUSH21 0x7370616E3E3C74657874506174682073746172744F PUSH7 0x667365743D222D BALANCE ADDRESS ADDRESS 0x25 0x22 KECCAK256 PUSH7 0x696C6C3D227768 PUSH10 0x74652220666F6E742D66 PUSH2 0x6D69 PUSH13 0x793D2227436F7572696572204E PUSH6 0x77272C206D6F PUSH15 0x6F73706163652220666F6E742D7369 PUSH27 0x653D22313070782220786C696E6B3A687265663D2223746578742D PUSH17 0x6174682D61223E3C6C696E656172477261 PUSH5 0x69656E7420 PUSH10 0x643D22677261642D646F PUSH24 0x6E222078313D2230222078323D2231222079313D22302220 PUSH26 0x323D2231223E3C73746F70206F66667365743D22302E30222073 PUSH21 0x6F702D636F6C6F723D227768697465222073746F70 0x2D PUSH16 0x7061636974793D223122202F3E3C7374 PUSH16 0x70206F66667365743D22302E39222073 PUSH21 0x6F702D636F6C6F723D227768697465222073746F70 0x2D PUSH16 0x7061636974793D223022202F3E3C2F6C PUSH10 0x6E656172477261646965 PUSH15 0x743E3C66696C7465722069643D2266 BALANCE 0x22 RETURNDATACOPY EXTCODECOPY PUSH7 0x65496D61676520 PUSH19 0x6573756C743D2270302220786C696E6B3A6872 PUSH6 0x663D22646174 PUSH2 0x3A69 PUSH14 0x6167652F7376672B786D6C3B6261 PUSH20 0x6536342C3C7376672077696474683D2732393027 KECCAK256 PUSH9 0x65696768743D273530 ADDRESS 0x27 KECCAK256 PUSH23 0x696577426F783D2730203020323930203530302720786D PUSH13 0x6E733D27687474703A2F2F7777 PUSH24 0x2E77332E6F72672F323030302F737667273E3C7265637420 PUSH24 0x696474683D27323930707827206865696768743D27353030 PUSH17 0x78272066696C6C3D2723222F3E3C666549 PUSH14 0x61676520726573756C743D227032 0x22 KECCAK256 PUSH25 0x6C696E6B3A687265663D22646174613A696D6167652F737667 0x2B PUSH25 0x6D6C3B6261736536342C3C656C6C697073652063783D223530 0x25 0x22 KECCAK256 PUSH4 0x793D2230 PUSH17 0x78222072783D223138307078222072793D 0x22 BALANCE ORIGIN ADDRESS PUSH17 0x78222066696C6C3D222330303022206F70 PUSH2 0x6369 PUSH21 0x793D22302E383522202F3E3C2F673E707822206865 PUSH10 0x6768743D223236707822 KECCAK256 PUSH19 0x783D22387078222072793D2238707822206669 PUSH13 0x6C3D227267626128302C302C30 0x2C ADDRESS 0x2E CALLDATASIZE 0x29 0x22 KECCAK256 0x2F RETURNDATACOPY PUSH17 0x782220723D22347078222066696C6C3D22 PUSH24 0x6869746522202F3E3C636972636C652063783D2231312E33 CALLVALUE CALLDATACOPY CODESIZE 0x4C ORIGIN CALLVALUE KECCAK256 BALANCE ORIGIN 0x4C BALANCE CALLVALUE 0x2E CALLVALUE CALLER CALLVALUE BALANCE KECCAK256 BALANCE ORIGIN 0x2E CALLDATASIZE CALLDATALOAD ORIGIN ORIGIN 0x4C ORIGIN ORIGIN 0x2E CALLER CODECOPY ORIGIN CALLER KECCAK256 BALANCE CODESIZE 0x4C BALANCE CALLER 0x2E CALLDATACOPY CODESIZE BALANCE CODECOPY KECCAK256 BALANCE CALLER 0x2E CALLDATACOPY CODESIZE BALANCE CODECOPY 0x4C BALANCE CODESIZE KECCAK256 ORIGIN ORIGIN 0x2E CALLER CODECOPY ORIGIN CALLER 0x4C BALANCE ORIGIN 0x2E CALLDATASIZE CALLDATALOAD ORIGIN ORIGIN KECCAK256 BALANCE CALLVALUE 0x2E CALLVALUE CALLER CALLVALUE BALANCE 0x4C BALANCE ORIGIN KECCAK256 ORIGIN CALLVALUE 0x4C BALANCE BALANCE 0x2E CALLER CALLVALUE CALLDATACOPY CODESIZE KECCAK256 BALANCE CALLVALUE 0x2E CALLVALUE CALLER CALLVALUE BALANCE 0x4C CALLDATASIZE KECCAK256 ORIGIN ORIGIN 0x2E CALLER CODECOPY EXTCODECOPY PUSH19 0x6563742066696C6C3D226E6F6E652220783D22 ADDRESS PUSH17 0x782220793D22307078222077696474683D 0x22 ORIGIN CODECOPY ADDRESS PUSH17 0x7822206865696768743D22353030707822 KECCAK256 0x2F RETURNDATACOPY COINBASE TIMESTAMP NUMBER DIFFICULTY GASLIMIT CHAINID SELFBALANCE 0x48 0x49 0x4A 0x4B 0x4C 0x4D 0x4E 0x4F POP MLOAD MSTORE MSTORE8 SLOAD SSTORE JUMP JUMPI PC MSIZE GAS PUSH2 0x6263 PUSH5 0x6566676869 PUSH11 0x6B6C6D6E6F707172737475 PUSH23 0x7778797A303132333435363738392B2F20786D6C6E733A PUSH25 0x6C696E6B3D27687474703A2F2F7777772E77332E6F72672F31 CODECOPY CODECOPY CODECOPY 0x2F PUSH25 0x6C696E6B273E3C6C696E6561724772616469656E742069643D 0x22 PUSH8 0x7261642D73796D62 PUSH16 0x6C223E3C73746F70206F66667365743D 0x22 ADDRESS 0x2E CALLDATACOPY 0x22 KECCAK256 PUSH20 0x746F702D636F6C6F723D22776869746522207374 PUSH16 0x702D6F7061636974793D223122202F3E EXTCODECOPY PUSH20 0x746F70206F66667365743D222E3935222073746F PUSH17 0x2D636F6C6F723D22776869746522207374 PUSH16 0x702D6F7061636974793D223022202F3E EXTCODECOPY 0x2F PUSH13 0x696E6561724772616469656E74 RETURNDATACOPY KECCAK256 PUSH20 0x74796C653D227472616E73666F726D3A7472616E PUSH20 0x6C61746528373270782C313839707829223E3C72 PUSH6 0x637420783D22 0x2D BALANCE CALLDATASIZE PUSH17 0x782220793D222D31367078222077696474 PUSH9 0x3D2231383070782220 PUSH9 0x65696768743D223138 ADDRESS PUSH17 0x78222066696C6C3D226E6F6E6522202F3E EXTCODECOPY PUSH17 0x61746820643D22207374796C653D227472 PUSH2 0x6E73 PUSH7 0x6F726D3A747261 PUSH15 0x736C61746528373270782C31383970 PUSH25 0x29223E70782220723D2232347078222066696C6C3D226E6F6E PUSH6 0x22207374726F PUSH12 0x653D22776869746522202F3E EXTCODECOPY PUSH19 0x65637420783D222D313670782220793D222D31 CALLDATASIZE PUSH17 0x78222077696474683D2231383070782220 PUSH9 0x65696768743D223138 ADDRESS PUSH17 0x78222066696C6C3D226E6F6E6522202F3E MSTORE8 PUSH2 0x6665 0x4D PUSH2 0x7468 GASPRICE KECCAK256 PUSH14 0x756C7469706C69636174696F6E20 PUSH16 0x766572666C6F773C673E3C7061746820 PUSH20 0x74796C653D227472616E73666F726D3A7472616E PUSH20 0x6C617465283670782C367078292220643D224D31 ORIGIN KECCAK256 ADDRESS 0x4C BALANCE ORIGIN 0x2E CALLDATASIZE CALLDATALOAD ORIGIN ORIGIN KECCAK256 CODECOPY 0x2E CALLDATALOAD CALLDATASIZE CALLDATALOAD CODESIZE CALLDATACOPY 0x4C BALANCE CODESIZE KECCAK256 BALANCE 0x2E CALLDATASIZE ADDRESS CALLDATACOPY CALLDATACOPY 0x4C BALANCE CALLER 0x2E CALLDATACOPY CODESIZE BALANCE CODECOPY KECCAK256 BALANCE ADDRESS 0x2E ORIGIN BALANCE CODESIZE BALANCE 0x4C ORIGIN ORIGIN 0x2E CALLER CODECOPY ORIGIN CALLER KECCAK256 CALLDATASIZE 0x4C BALANCE CALLVALUE 0x2E CALLVALUE CALLER CALLVALUE BALANCE KECCAK256 EXTCODECOPY PUSH17 0x617468207374726F6B652D6C696E656361 PUSH17 0x3D22726F756E642220643D224D38203943 CODESIZE 0x2E ADDRESS ADDRESS ADDRESS ADDRESS CALLVALUE KECCAK256 ORIGIN ORIGIN 0x2E CODECOPY CALLVALUE CODECOPY CALLVALUE KECCAK256 BALANCE CALLDATASIZE 0x2E ORIGIN ADDRESS CODECOPY CODECOPY KECCAK256 ORIGIN CODESIZE KECCAK256 ORIGIN CALLDATACOPY KECCAK256 ORIGIN CODESIZE 0x22 KECCAK256 PUSH7 0x696C6C3D226E6F PUSH15 0x6522207374726F6B653D2277686974 PUSH6 0x22202F3E2072 PUSH6 0x70656174436F PUSH22 0x6E743D22696E646566696E69746522202F3E3C2F7465 PUSH25 0x74506174683E3C74657874506174682073746172744F666673 PUSH6 0x743D222D3530 0x25 0x22 KECCAK256 PUSH7 0x696C6C3D227768 PUSH10 0x74652220666F6E742D66 PUSH2 0x6D69 PUSH13 0x793D2227436F7572696572204E PUSH6 0x77272C206D6F PUSH15 0x6F73706163652220666F6E742D7369 PUSH27 0x653D22313070782220786C696E6B3A687265663D2223746578742D PUSH17 0x6174682D61223E3C6D61736B2069643D22 PUSH7 0x6164652D646F77 PUSH15 0x22206D61736B436F6E74656E74556E PUSH10 0x74733D226F626A656374 TIMESTAMP PUSH16 0x756E64696E67426F78223E3C72656374 KECCAK256 PUSH24 0x696474683D223122206865696768743D2231222066696C6C RETURNDATASIZE 0x22 PUSH22 0x726C2823677261642D646F776E2922202F3E3C2F6D61 PUSH20 0x6B3E22207374726F6B653D227267626128323535 0x2C ORIGIN CALLDATALOAD CALLDATALOAD 0x2C ORIGIN CALLDATALOAD CALLDATALOAD 0x2C BALANCE 0x29 0x22 KECCAK256 PUSH7 0x696C6C3D226E6F PUSH15 0x6522207374726F6B652D6C696E6563 PUSH2 0x703D 0x22 PUSH19 0x6F756E6422202F3E3C2F673E696E3D22626C65 PUSH15 0x644F75742220737464446576696174 PUSH10 0x6F6E3D22343222202F3E EXTCODECOPY 0x2F PUSH7 0x696C7465723E20 EXTCODECOPY PUSH4 0x6C697050 PUSH2 0x7468 KECCAK256 PUSH10 0x643D22636F726E657273 0x22 RETURNDATACOPY EXTCODECOPY PUSH19 0x6563742077696474683D223239302220686569 PUSH8 0x68743D2235303022 KECCAK256 PUSH19 0x783D223432222072793D22343222202F3E3C2F PUSH4 0x6C697050 PUSH2 0x7468 RETURNDATACOPY KECCAK256 EXTCODECOPY PUSH8 0x207374796C653D22 PUSH21 0x72616E73666F726D3A7472616E736C617465283239 PUSH17 0x782C20333834707829223E3C6C696E6561 PUSH19 0x4772616469656E742069643D22677261642D75 PUSH17 0x222078313D2231222078323D2230222079 BALANCE RETURNDATASIZE 0x22 BALANCE 0x22 KECCAK256 PUSH26 0x323D2230223E3C73746F70206F66667365743D22302E30222073 PUSH21 0x6F702D636F6C6F723D227768697465222073746F70 0x2D PUSH16 0x7061636974793D223122202F3E32334C BALANCE ADDRESS 0x2E ORIGIN BALANCE CODESIZE BALANCE KECCAK256 BALANCE CALLER 0x2E CALLDATACOPY CODESIZE BALANCE CODECOPY 0x4C BALANCE 0x2E CALLDATASIZE ADDRESS CALLDATACOPY CALLDATACOPY KECCAK256 BALANCE CODESIZE 0x4C CODECOPY 0x2E CALLDATALOAD CALLDATASIZE CALLDATALOAD CODESIZE CALLDATACOPY KECCAK256 BALANCE ORIGIN 0x2E CALLDATASIZE CALLDATALOAD ORIGIN ORIGIN 0x4C ADDRESS KECCAK256 BALANCE ORIGIN 0x4C CODECOPY 0x2E CALLDATALOAD CALLDATASIZE CALLDATALOAD CODESIZE CALLDATACOPY KECCAK256 BALANCE BALANCE 0x2E CALLER CALLVALUE CALLDATACOPY CODESIZE 0x4C BALANCE 0x2E CALLDATASIZE ADDRESS CALLDATACOPY CALLDATACOPY KECCAK256 CALLDATASIZE 0x4C BALANCE ADDRESS 0x2E ORIGIN BALANCE CODESIZE BALANCE KECCAK256 BALANCE ADDRESS 0x2E ORIGIN BALANCE CODESIZE BALANCE 0x4C CALLDATASIZE KECCAK256 BALANCE 0x2E CALLDATASIZE ADDRESS CALLDATACOPY CALLDATACOPY 0x4C BALANCE BALANCE 0x2E CALLER CALLVALUE CALLDATACOPY CODESIZE KECCAK256 CODECOPY 0x2E CALLDATALOAD CALLDATASIZE CALLDATALOAD CODESIZE CALLDATACOPY 0x4C BALANCE ORIGIN KECCAK256 ADDRESS GAS 0x22 KECCAK256 PUSH7 0x696C6C3D227768 PUSH10 0x746522202F3E3C672073 PUSH21 0x796C653D227472616E73666F726D3A7472616E736C PUSH2 0x7465 0x28 ORIGIN ORIGIN CALLDATASIZE PUSH17 0x782C20333932707829223E3C7265637420 PUSH24 0x696474683D223336707822206865696768743D2233367078 0x22 KECCAK256 PUSH19 0x783D22387078222072793D2238707822206669 PUSH13 0x6C3D226E6F6E6522207374726F PUSH12 0x653D2272676261283235352C ORIGIN CALLDATALOAD CALLDATALOAD 0x2C ORIGIN CALLDATALOAD CALLDATALOAD 0x2C ADDRESS 0x2E ORIGIN 0x29 0x22 KECCAK256 0x2F RETURNDATACOPY EXTCODECOPY PUSH21 0x657874506174682073746172744F66667365743D22 CALLDATALOAD ADDRESS 0x25 0x22 KECCAK256 PUSH7 0x696C6C3D227768 PUSH10 0x74652220666F6E742D66 PUSH2 0x6D69 PUSH13 0x793D2227436F7572696572204E PUSH6 0x77272C206D6F PUSH15 0x6F73706163652220666F6E742D7369 PUSH27 0x653D22313070782220786C696E6B3A687265663D2223746578742D PUSH17 0x6174682D61223E3C7465787420783D2231 ORIGIN PUSH17 0x782220793D22313770782220666F6E742D PUSH7 0x616D696C793D22 0x27 NUMBER PUSH16 0x7572696572204E6577272C206D6F6E6F PUSH20 0x706163652220666F6E742D73697A653D22313270 PUSH25 0x222066696C6C3D227768697465223E3C747370616E2066696C PUSH13 0x3D2272676261283235352C3235 CALLDATALOAD 0x2C ORIGIN CALLDATALOAD CALLDATALOAD 0x2C ADDRESS 0x2E CALLDATASIZE 0x29 0x22 RETURNDATACOPY 0x4D PUSH2 0x7820 SLOAD PUSH10 0x636B3A203C2F74737061 PUSH15 0x3E3C616E696D6174655472616E7366 PUSH16 0x726D206174747269627574654E616D65 RETURNDATASIZE 0x22 PUSH21 0x72616E73666F726D2220747970653D22726F746174 PUSH6 0x222066726F6D RETURNDATASIZE 0x22 ADDRESS KECCAK256 BALANCE CODESIZE KECCAK256 BALANCE CODESIZE 0x22 KECCAK256 PUSH21 0x6F3D2233363020313820313822206475723D223130 PUSH20 0x2220726570656174436F756E743D22696E646566 PUSH10 0x6E697465222F3E3C2F67 RETURNDATACOPY EXTCODECOPY 0x2F PUSH8 0x3E3C706174682069 PUSH5 0x3D22746578 PUSH21 0x2D706174682D612220643D224D3430203132204832 CALLDATALOAD ADDRESS KECCAK256 COINBASE ORIGIN CODESIZE KECCAK256 ORIGIN CODESIZE KECCAK256 ADDRESS KECCAK256 ADDRESS KECCAK256 BALANCE KECCAK256 ORIGIN CALLDATACOPY CODESIZE KECCAK256 CALLVALUE ADDRESS KECCAK256 JUMP CALLVALUE CALLDATASIZE ADDRESS KECCAK256 COINBASE ORIGIN CODESIZE KECCAK256 ORIGIN CODESIZE KECCAK256 ADDRESS KECCAK256 ADDRESS KECCAK256 BALANCE KECCAK256 ORIGIN CALLDATALOAD ADDRESS KECCAK256 CALLVALUE CODESIZE CODESIZE KECCAK256 0x48 CALLVALUE ADDRESS KECCAK256 COINBASE ORIGIN CODESIZE KECCAK256 ORIGIN CODESIZE KECCAK256 ADDRESS KECCAK256 ADDRESS KECCAK256 BALANCE KECCAK256 BALANCE ORIGIN KECCAK256 CALLVALUE CALLDATASIZE ADDRESS KECCAK256 JUMP CALLVALUE ADDRESS KECCAK256 COINBASE ORIGIN CODESIZE KECCAK256 ORIGIN CODESIZE KECCAK256 ADDRESS KECCAK256 ADDRESS KECCAK256 BALANCE KECCAK256 CALLVALUE ADDRESS KECCAK256 BALANCE ORIGIN KECCAK256 PUSH27 0x22202F3E222F3E3C6665496D61676520726573756C743D22703122 KECCAK256 PUSH25 0x6C696E6B3A687265663D22646174613A696D6167652F737667 0x2B PUSH25 0x6D6C3B6261736536342C3C6D61736B2069643D22666164652D PUSH20 0x796D626F6C22206D61736B436F6E74656E74556E PUSH10 0x74733D22757365725370 PUSH2 0x6365 0x4F PUSH15 0x557365223E3C726563742077696474 PUSH9 0x3D2232393070782220 PUSH9 0x65696768743D223230 ADDRESS PUSH17 0x78222066696C6C3D2275726C2823677261 PUSH5 0x2D73796D62 PUSH16 0x6C2922202F3E3C2F6D61736B3E3C2F64 PUSH6 0x66733E3C7265 PUSH4 0x7420783D 0x22 ADDRESS 0x22 KECCAK256 PUSH26 0x3D2230222077696474683D2232393022206865696768743D2235 ADDRESS ADDRESS 0x22 KECCAK256 PUSH19 0x783D223432222072793D223432222066696C6C RETURNDATASIZE 0x22 PUSH19 0x67626128302C302C302C302922207374726F6B PUSH6 0x3D2272676261 0x28 ORIGIN CALLDATALOAD CALLDATALOAD 0x2C ORIGIN CALLDATALOAD CALLDATALOAD 0x2C ORIGIN CALLDATALOAD CALLDATALOAD 0x2C ADDRESS 0x2E ORIGIN 0x29 0x22 KECCAK256 0x2F RETURNDATACOPY EXTCODECOPY 0x2F PUSH8 0x3E3C66696C746572 KECCAK256 PUSH10 0x643D22746F702D726567 PUSH10 0x6F6E2D626C7572223E3C PUSH7 0x65476175737369 PUSH2 0x6E42 PUSH13 0x757220696E3D22536F75726365 SELFBALANCE PUSH19 0x61706869632220737464446576696174696F6E RETURNDATASIZE 0x22 ORIGIN CALLVALUE 0x22 KECCAK256 0x2F RETURNDATACOPY EXTCODECOPY 0x2F PUSH7 0x696C7465723E3C 0x2F PUSH21 0x657874506174683E203C7465787450617468207374 PUSH2 0x7274 0x4F PUSH7 0x667365743D2230 0x25 0x22 KECCAK256 PUSH7 0x696C6C3D227768 PUSH10 0x74652220666F6E742D66 PUSH2 0x6D69 PUSH13 0x793D2227436F7572696572204E PUSH6 0x77272C206D6F PUSH15 0x6F73706163652220666F6E742D7369 PUSH27 0x653D22313070782220786C696E6B3A687265663D2223746578742D PUSH17 0x6174682D61223E3C746578742074657874 0x2D PUSH19 0x656E646572696E673D226F7074696D697A6553 PUSH17 0x656564223E5369676E6564536166654D61 PUSH21 0x683A207375627472616374696F6E206F766572666C PUSH16 0x773C7265637420783D2231362220793D 0x22 BALANCE CALLDATASIZE 0x22 KECCAK256 PUSH24 0x696474683D2232353822206865696768743D223436382220 PUSH19 0x783D223236222072793D223236222066696C6C RETURNDATASIZE 0x22 PUSH19 0x67626128302C302C302C302922207374726F6B PUSH6 0x3D2272676261 0x28 ORIGIN CALLDATALOAD CALLDATALOAD 0x2C ORIGIN CALLDATALOAD CALLDATALOAD 0x2C ORIGIN CALLDATALOAD CALLDATALOAD 0x2C ADDRESS 0x2E ORIGIN 0x29 0x22 KECCAK256 0x2F RETURNDATACOPY EXTCODECOPY PUSH21 0x65787420783D22313270782220793D223137707822 KECCAK256 PUSH7 0x6F6E742D66616D PUSH10 0x6C793D2227436F757269 PUSH6 0x72204E657727 0x2C KECCAK256 PUSH14 0x6F6E6F73706163652220666F6E74 0x2D PUSH20 0x697A653D2231327078222066696C6C3D22776869 PUSH21 0x65223E3C747370616E2066696C6C3D227267626128 ORIGIN CALLDATALOAD CALLDATALOAD 0x2C ORIGIN CALLDATALOAD CALLDATALOAD 0x2C ORIGIN CALLDATALOAD CALLDATALOAD 0x2C ADDRESS 0x2E CALLDATASIZE 0x29 0x22 RETURNDATACOPY 0x49 DIFFICULTY GASPRICE KECCAK256 EXTCODECOPY 0x2F PUSH21 0x7370616E3E3C726563742077696474683D22333670 PUSH25 0x22206865696768743D2233367078222072783D223870782220 PUSH19 0x793D22387078222066696C6C3D226E6F6E6522 KECCAK256 PUSH20 0x74726F6B653D2272676261283235352C3235352C ORIGIN CALLDATALOAD CALLDATALOAD 0x2C ADDRESS 0x2E ORIGIN 0x29 0x22 KECCAK256 0x2F RETURNDATACOPY EXTCODECOPY 0x2F PUSH21 0x6578743E3C7465787420793D223131357078222078 RETURNDATASIZE 0x22 CALLER ORIGIN PUSH17 0x78222066696C6C3D227768697465222066 PUSH16 0x6E742D66616D696C793D2227436F7572 PUSH10 0x6572204E6577272C206D PUSH16 0x6E6F73706163652220666F6E742D7765 PUSH10 0x6768743D223230302220 PUSH7 0x6F6E742D73697A PUSH6 0x3D2233367078 0x22 RETURNDATACOPY EXTCODECOPY 0x2F PUSH21 0x6578743E3C2F673E3C67207374796C653D22747261 PUSH15 0x73666F726D3A7472616E736C617465 0x28 ORIGIN ORIGIN CALLDATASIZE PUSH17 0x782C20343333707829223E203C67207374 PUSH26 0x6C653D227472616E73666F726D3A7472616E736C617465283239 PUSH17 0x782C20343134707829223EA164736F6C63 NUMBER STOP SMOD MOD STOP EXP "},"methodIdentifiers":{"addressToString(address)":"5e57966d","constructTokenURI((uint256,address,address,string,string,uint8,uint8,bool,int24,int24,int24,int24,uint24,address))":"f93a7911","feeToPercentString(uint24)":"ea4d3bcd","fixedPointToDecimalString(uint160,uint8,uint8)":"d5c0bdd8","generateSVGImage((uint256,address,address,string,string,uint8,uint8,bool,int24,int24,int24,int24,uint24,address))":"e1649fcf","getGasCostOfConstructTokenURI((uint256,address,address,string,string,uint8,uint8,bool,int24,int24,int24,int24,uint24,address))":"854924ab","isRare(uint256,address)":"e7386906","rangeLocation(int24,int24)":"2fa2af10","sliceTokenHex(address,uint256)":"d6986d45","tickToDecimalString(int24,int24,uint8,uint8,bool)":"9288c218","tokenToColorHex(address,uint256)":"3a0cdee2"}}}}}